{
	"Contracts/KipuBank.sol": {
		"KipuBank": {
			"abi": [
				{
					"inputs": [
						{
							"internalType": "uint256",
							"name": "_bankCap",
							"type": "uint256"
						},
						{
							"internalType": "uint256",
							"name": "_thresholdWithdrawl",
							"type": "uint256"
						}
					],
					"stateMutability": "nonpayable",
					"type": "constructor"
				},
				{
					"inputs": [
						{
							"internalType": "uint256",
							"name": "amount",
							"type": "uint256"
						},
						{
							"internalType": "uint256",
							"name": "remainBankCap",
							"type": "uint256"
						}
					],
					"name": "ExceedsBankCap",
					"type": "error"
				},
				{
					"inputs": [
						{
							"internalType": "uint256",
							"name": "amount",
							"type": "uint256"
						},
						{
							"internalType": "uint256",
							"name": "thresholdWithdrawl",
							"type": "uint256"
						}
					],
					"name": "ExceedsWithdrawlThreshold",
					"type": "error"
				},
				{
					"inputs": [
						{
							"internalType": "address",
							"name": "user",
							"type": "address"
						},
						{
							"internalType": "uint256",
							"name": "amount",
							"type": "uint256"
						},
						{
							"internalType": "uint256",
							"name": "vaultBalance",
							"type": "uint256"
						}
					],
					"name": "InsufficientVaultBalance",
					"type": "error"
				},
				{
					"inputs": [],
					"name": "InvalidThreshold",
					"type": "error"
				},
				{
					"inputs": [],
					"name": "ZeroAmountNotAllowed",
					"type": "error"
				},
				{
					"anonymous": false,
					"inputs": [
						{
							"indexed": true,
							"internalType": "address",
							"name": "user",
							"type": "address"
						},
						{
							"indexed": false,
							"internalType": "string",
							"name": "reason",
							"type": "string"
						},
						{
							"indexed": false,
							"internalType": "uint256",
							"name": "amount",
							"type": "uint256"
						}
					],
					"name": "FailedDeposit",
					"type": "event"
				},
				{
					"anonymous": false,
					"inputs": [
						{
							"indexed": true,
							"internalType": "address",
							"name": "user",
							"type": "address"
						},
						{
							"indexed": false,
							"internalType": "string",
							"name": "reason",
							"type": "string"
						},
						{
							"indexed": false,
							"internalType": "uint256",
							"name": "amout",
							"type": "uint256"
						}
					],
					"name": "FailedWithdrawl",
					"type": "event"
				},
				{
					"anonymous": false,
					"inputs": [
						{
							"indexed": true,
							"internalType": "address",
							"name": "user",
							"type": "address"
						},
						{
							"indexed": false,
							"internalType": "uint256",
							"name": "depositAmount",
							"type": "uint256"
						},
						{
							"indexed": false,
							"internalType": "uint256",
							"name": "newVaultBalance",
							"type": "uint256"
						},
						{
							"indexed": false,
							"internalType": "uint256",
							"name": "newtotalDeposits",
							"type": "uint256"
						}
					],
					"name": "SuccessDeposit",
					"type": "event"
				},
				{
					"anonymous": false,
					"inputs": [
						{
							"indexed": true,
							"internalType": "address",
							"name": "user",
							"type": "address"
						},
						{
							"indexed": false,
							"internalType": "uint256",
							"name": "withdrawAmount",
							"type": "uint256"
						},
						{
							"indexed": false,
							"internalType": "uint256",
							"name": "newVaultBalance",
							"type": "uint256"
						},
						{
							"indexed": false,
							"internalType": "uint256",
							"name": "newtotalDeposits",
							"type": "uint256"
						}
					],
					"name": "SuccessWithdraw",
					"type": "event"
				},
				{
					"inputs": [],
					"name": "bankCap",
					"outputs": [
						{
							"internalType": "uint256",
							"name": "",
							"type": "uint256"
						}
					],
					"stateMutability": "view",
					"type": "function"
				},
				{
					"inputs": [],
					"name": "deposit",
					"outputs": [],
					"stateMutability": "payable",
					"type": "function"
				},
				{
					"inputs": [],
					"name": "depositCount",
					"outputs": [
						{
							"internalType": "uint256",
							"name": "",
							"type": "uint256"
						}
					],
					"stateMutability": "view",
					"type": "function"
				},
				{
					"inputs": [
						{
							"internalType": "address",
							"name": "_user",
							"type": "address"
						}
					],
					"name": "getVaultBalance",
					"outputs": [
						{
							"internalType": "uint256",
							"name": "",
							"type": "uint256"
						}
					],
					"stateMutability": "view",
					"type": "function"
				},
				{
					"inputs": [],
					"name": "thresholdWithdrawl",
					"outputs": [
						{
							"internalType": "uint256",
							"name": "",
							"type": "uint256"
						}
					],
					"stateMutability": "view",
					"type": "function"
				},
				{
					"inputs": [],
					"name": "totalDeposits",
					"outputs": [
						{
							"internalType": "uint256",
							"name": "",
							"type": "uint256"
						}
					],
					"stateMutability": "view",
					"type": "function"
				},
				{
					"inputs": [
						{
							"internalType": "address",
							"name": "",
							"type": "address"
						}
					],
					"name": "vaults",
					"outputs": [
						{
							"internalType": "uint256",
							"name": "",
							"type": "uint256"
						}
					],
					"stateMutability": "view",
					"type": "function"
				},
				{
					"inputs": [
						{
							"internalType": "uint256",
							"name": "amount",
							"type": "uint256"
						}
					],
					"name": "withdraw",
					"outputs": [],
					"stateMutability": "nonpayable",
					"type": "function"
				},
				{
					"inputs": [],
					"name": "withdrawalCount",
					"outputs": [
						{
							"internalType": "uint256",
							"name": "",
							"type": "uint256"
						}
					],
					"stateMutability": "view",
					"type": "function"
				}
			],
			"devdoc": {
				"kind": "dev",
				"methods": {},
				"title": "KIPU bank contract",
				"version": 1
			},
			"evm": {
				"assembly": "    /* \"Contracts/KipuBank.sol\":101:9019  contract KipuBank {... */\n  mstore(0x40, 0xc0)\n    /* \"Contracts/KipuBank.sol\":4634:4941  constructor(uint256 _bankCap, uint256 _thresholdWithdrawl) {... */\n  callvalue\n  dup1\n  iszero\n  tag_1\n  jumpi\n  revert(0x00, 0x00)\ntag_1:\n  pop\n  mload(0x40)\n  sub(codesize, bytecodeSize)\n  dup1\n  bytecodeSize\n  dup4\n  codecopy\n  dup2\n  dup2\n  add\n  0x40\n  mstore\n  dup2\n  add\n  swap1\n  tag_2\n  swap2\n  swap1\n  tag_3\n  jump\t// in\ntag_2:\n    /* \"Contracts/KipuBank.sol\":4720:4721  0 */\n  0x00\n    /* \"Contracts/KipuBank.sol\":4708:4716  _bankCap */\n  dup3\n    /* \"Contracts/KipuBank.sol\":4708:4721  _bankCap == 0 */\n  eq\n    /* \"Contracts/KipuBank.sol\":4708:4749  _bankCap == 0 || _thresholdWithdrawl == 0 */\n  dup1\n  tag_6\n  jumpi\n  pop\n    /* \"Contracts/KipuBank.sol\":4748:4749  0 */\n  0x00\n    /* \"Contracts/KipuBank.sol\":4725:4744  _thresholdWithdrawl */\n  dup2\n    /* \"Contracts/KipuBank.sol\":4725:4749  _thresholdWithdrawl == 0 */\n  eq\n    /* \"Contracts/KipuBank.sol\":4708:4749  _bankCap == 0 || _thresholdWithdrawl == 0 */\ntag_6:\n    /* \"Contracts/KipuBank.sol\":4704:4781  if (_bankCap == 0 || _thresholdWithdrawl == 0 ) revert ZeroAmountNotAllowed() */\n  iszero\n  tag_7\n  jumpi\n    /* \"Contracts/KipuBank.sol\":4759:4781  ZeroAmountNotAllowed() */\n  mload(0x40)\n  0x0f43956a00000000000000000000000000000000000000000000000000000000\n  dup2\n  mstore\n  0x04\n  add\n  mload(0x40)\n  dup1\n  swap2\n  sub\n  swap1\n  revert\n    /* \"Contracts/KipuBank.sol\":4704:4781  if (_bankCap == 0 || _thresholdWithdrawl == 0 ) revert ZeroAmountNotAllowed() */\ntag_7:\n    /* \"Contracts/KipuBank.sol\":4807:4826  _thresholdWithdrawl */\n  dup1\n    /* \"Contracts/KipuBank.sol\":4796:4804  _bankCap */\n  dup3\n    /* \"Contracts/KipuBank.sol\":4796:4826  _bankCap < _thresholdWithdrawl */\n  lt\n    /* \"Contracts/KipuBank.sol\":4792:4853  if (_bankCap < _thresholdWithdrawl) revert InvalidThreshold() */\n  iszero\n  tag_8\n  jumpi\n    /* \"Contracts/KipuBank.sol\":4835:4853  InvalidThreshold() */\n  mload(0x40)\n  0xaabd5a0900000000000000000000000000000000000000000000000000000000\n  dup2\n  mstore\n  0x04\n  add\n  mload(0x40)\n  dup1\n  swap2\n  sub\n  swap1\n  revert\n    /* \"Contracts/KipuBank.sol\":4792:4853  if (_bankCap < _thresholdWithdrawl) revert InvalidThreshold() */\ntag_8:\n    /* \"Contracts/KipuBank.sol\":4874:4882  _bankCap */\n  dup2\n    /* \"Contracts/KipuBank.sol\":4864:4882  bankCap = _bankCap */\n  0x80\n  dup2\n  dup2\n  mstore\n  pop\n  pop\n    /* \"Contracts/KipuBank.sol\":4914:4933  _thresholdWithdrawl */\n  dup1\n    /* \"Contracts/KipuBank.sol\":4893:4933  thresholdWithdrawl = _thresholdWithdrawl */\n  0xa0\n  dup2\n  dup2\n  mstore\n  pop\n  pop\n    /* \"Contracts/KipuBank.sol\":4634:4941  constructor(uint256 _bankCap, uint256 _thresholdWithdrawl) {... */\n  pop\n  pop\n    /* \"Contracts/KipuBank.sol\":101:9019  contract KipuBank {... */\n  jump(tag_9)\n    /* \"#utility.yul\":88:205   */\ntag_11:\n    /* \"#utility.yul\":197:198   */\n  0x00\n    /* \"#utility.yul\":194:195   */\n  0x00\n    /* \"#utility.yul\":187:199   */\n  revert\n    /* \"#utility.yul\":334:411   */\ntag_13:\n    /* \"#utility.yul\":371:378   */\n  0x00\n    /* \"#utility.yul\":400:405   */\n  dup2\n    /* \"#utility.yul\":389:405   */\n  swap1\n  pop\n    /* \"#utility.yul\":334:411   */\n  swap2\n  swap1\n  pop\n  jump\t// out\n    /* \"#utility.yul\":417:539   */\ntag_14:\n    /* \"#utility.yul\":490:514   */\n  tag_22\n    /* \"#utility.yul\":508:513   */\n  dup2\n    /* \"#utility.yul\":490:514   */\n  tag_13\n  jump\t// in\ntag_22:\n    /* \"#utility.yul\":483:488   */\n  dup2\n    /* \"#utility.yul\":480:515   */\n  eq\n    /* \"#utility.yul\":470:533   */\n  tag_23\n  jumpi\n    /* \"#utility.yul\":529:530   */\n  0x00\n    /* \"#utility.yul\":526:527   */\n  0x00\n    /* \"#utility.yul\":519:531   */\n  revert\n    /* \"#utility.yul\":470:533   */\ntag_23:\n    /* \"#utility.yul\":417:539   */\n  pop\n  jump\t// out\n    /* \"#utility.yul\":545:688   */\ntag_15:\n    /* \"#utility.yul\":602:607   */\n  0x00\n    /* \"#utility.yul\":633:639   */\n  dup2\n    /* \"#utility.yul\":627:640   */\n  mload\n    /* \"#utility.yul\":618:640   */\n  swap1\n  pop\n    /* \"#utility.yul\":649:682   */\n  tag_25\n    /* \"#utility.yul\":676:681   */\n  dup2\n    /* \"#utility.yul\":649:682   */\n  tag_14\n  jump\t// in\ntag_25:\n    /* \"#utility.yul\":545:688   */\n  swap3\n  swap2\n  pop\n  pop\n  jump\t// out\n    /* \"#utility.yul\":694:1201   */\ntag_3:\n    /* \"#utility.yul\":773:779   */\n  0x00\n    /* \"#utility.yul\":781:787   */\n  0x00\n    /* \"#utility.yul\":830:832   */\n  0x40\n    /* \"#utility.yul\":818:827   */\n  dup4\n    /* \"#utility.yul\":809:816   */\n  dup6\n    /* \"#utility.yul\":805:828   */\n  sub\n    /* \"#utility.yul\":801:833   */\n  slt\n    /* \"#utility.yul\":798:917   */\n  iszero\n  tag_27\n  jumpi\n    /* \"#utility.yul\":836:915   */\n  tag_28\n  tag_11\n  jump\t// in\ntag_28:\n    /* \"#utility.yul\":798:917   */\ntag_27:\n    /* \"#utility.yul\":956:957   */\n  0x00\n    /* \"#utility.yul\":981:1045   */\n  tag_29\n    /* \"#utility.yul\":1037:1044   */\n  dup6\n    /* \"#utility.yul\":1028:1034   */\n  dup3\n    /* \"#utility.yul\":1017:1026   */\n  dup7\n    /* \"#utility.yul\":1013:1035   */\n  add\n    /* \"#utility.yul\":981:1045   */\n  tag_15\n  jump\t// in\ntag_29:\n    /* \"#utility.yul\":971:1045   */\n  swap3\n  pop\n    /* \"#utility.yul\":927:1055   */\n  pop\n    /* \"#utility.yul\":1094:1096   */\n  0x20\n    /* \"#utility.yul\":1120:1184   */\n  tag_30\n    /* \"#utility.yul\":1176:1183   */\n  dup6\n    /* \"#utility.yul\":1167:1173   */\n  dup3\n    /* \"#utility.yul\":1156:1165   */\n  dup7\n    /* \"#utility.yul\":1152:1174   */\n  add\n    /* \"#utility.yul\":1120:1184   */\n  tag_15\n  jump\t// in\ntag_30:\n    /* \"#utility.yul\":1110:1184   */\n  swap2\n  pop\n    /* \"#utility.yul\":1065:1194   */\n  pop\n    /* \"#utility.yul\":694:1201   */\n  swap3\n  pop\n  swap3\n  swap1\n  pop\n  jump\t// out\n    /* \"Contracts/KipuBank.sol\":101:9019  contract KipuBank {... */\ntag_9:\n  mload(0x80)\n  mload(0xa0)\n  codecopy(0x00, dataOffset(sub_0), dataSize(sub_0))\n  0x00\n  assignImmutable(\"0xe455bf8ea6e7463a1046a0b52804526e119b4bf5136279614e0b1e8e296a4e2d\")\n  0x00\n  assignImmutable(\"0x13600b294191fc92924bb3ce4b969c1e7e2bab8f4c93c3fc6d0a51733df3c060\")\n  return(0x00, dataSize(sub_0))\nstop\n\nsub_0: assembly {\n        /* \"Contracts/KipuBank.sol\":101:9019  contract KipuBank {... */\n      mstore(0x40, 0x80)\n      jumpi(tag_1, lt(calldatasize, 0x04))\n      shr(0xe0, calldataload(0x00))\n      dup1\n      0x7d882097\n      gt\n      tag_11\n      jumpi\n      dup1\n      0x7d882097\n      eq\n      tag_6\n      jumpi\n      dup1\n      0xa622ee7c\n      eq\n      tag_7\n      jumpi\n      dup1\n      0xd0e30db0\n      eq\n      tag_8\n      jumpi\n      dup1\n      0xd3d7c002\n      eq\n      tag_9\n      jumpi\n      dup1\n      0xecbea24d\n      eq\n      tag_10\n      jumpi\n      jump(tag_1)\n    tag_11:\n      dup1\n      0x2dfdf0b5\n      eq\n      tag_2\n      jumpi\n      dup1\n      0x2e1a7d4d\n      eq\n      tag_3\n      jumpi\n      dup1\n      0x36b96be4\n      eq\n      tag_4\n      jumpi\n      dup1\n      0x71706cbe\n      eq\n      tag_5\n      jumpi\n    tag_1:\n      revert(0x00, 0x00)\n        /* \"Contracts/KipuBank.sol\":852:879  uint256 public depositCount */\n    tag_2:\n      callvalue\n      dup1\n      iszero\n      tag_12\n      jumpi\n      revert(0x00, 0x00)\n    tag_12:\n      pop\n      tag_13\n      tag_14\n      jump\t// in\n    tag_13:\n      mload(0x40)\n      tag_15\n      swap2\n      swap1\n      tag_16\n      jump\t// in\n    tag_15:\n      mload(0x40)\n      dup1\n      swap2\n      sub\n      swap1\n      return\n        /* \"Contracts/KipuBank.sol\":6896:7865  function withdraw(uint256 amount) external {... */\n    tag_3:\n      callvalue\n      dup1\n      iszero\n      tag_17\n      jumpi\n      revert(0x00, 0x00)\n    tag_17:\n      pop\n      tag_18\n      0x04\n      dup1\n      calldatasize\n      sub\n      dup2\n      add\n      swap1\n      tag_19\n      swap2\n      swap1\n      tag_20\n      jump\t// in\n    tag_19:\n      tag_21\n      jump\t// in\n    tag_18:\n      stop\n        /* \"Contracts/KipuBank.sol\":519:562  uint256 public immutable thresholdWithdrawl */\n    tag_4:\n      callvalue\n      dup1\n      iszero\n      tag_22\n      jumpi\n      revert(0x00, 0x00)\n    tag_22:\n      pop\n      tag_23\n      tag_24\n      jump\t// in\n    tag_23:\n      mload(0x40)\n      tag_25\n      swap2\n      swap1\n      tag_16\n      jump\t// in\n    tag_25:\n      mload(0x40)\n      dup1\n      swap2\n      sub\n      swap1\n      return\n        /* \"Contracts/KipuBank.sol\":1004:1034  uint256 public withdrawalCount */\n    tag_5:\n      callvalue\n      dup1\n      iszero\n      tag_26\n      jumpi\n      revert(0x00, 0x00)\n    tag_26:\n      pop\n      tag_27\n      tag_28\n      jump\t// in\n    tag_27:\n      mload(0x40)\n      tag_29\n      swap2\n      swap1\n      tag_16\n      jump\t// in\n    tag_29:\n      mload(0x40)\n      dup1\n      swap2\n      sub\n      swap1\n      return\n        /* \"Contracts/KipuBank.sol\":706:734  uint256 public totalDeposits */\n    tag_6:\n      callvalue\n      dup1\n      iszero\n      tag_30\n      jumpi\n      revert(0x00, 0x00)\n    tag_30:\n      pop\n      tag_31\n      tag_32\n      jump\t// in\n    tag_31:\n      mload(0x40)\n      tag_33\n      swap2\n      swap1\n      tag_16\n      jump\t// in\n    tag_33:\n      mload(0x40)\n      dup1\n      swap2\n      sub\n      swap1\n      return\n        /* \"Contracts/KipuBank.sol\":1228:1269  mapping(address => uint256) public vaults */\n    tag_7:\n      callvalue\n      dup1\n      iszero\n      tag_34\n      jumpi\n      revert(0x00, 0x00)\n    tag_34:\n      pop\n      tag_35\n      0x04\n      dup1\n      calldatasize\n      sub\n      dup2\n      add\n      swap1\n      tag_36\n      swap2\n      swap1\n      tag_37\n      jump\t// in\n    tag_36:\n      tag_38\n      jump\t// in\n    tag_35:\n      mload(0x40)\n      tag_39\n      swap2\n      swap1\n      tag_16\n      jump\t// in\n    tag_39:\n      mload(0x40)\n      dup1\n      swap2\n      sub\n      swap1\n      return\n        /* \"Contracts/KipuBank.sol\":6000:6421  function deposit() external payable checkBankCap(msg.value) {... */\n    tag_8:\n      tag_40\n      tag_41\n      jump\t// in\n    tag_40:\n      stop\n        /* \"Contracts/KipuBank.sol\":8905:9016  function getVaultBalance(address _user) external view returns (uint256) {... */\n    tag_9:\n      callvalue\n      dup1\n      iszero\n      tag_42\n      jumpi\n      revert(0x00, 0x00)\n    tag_42:\n      pop\n      tag_43\n      0x04\n      dup1\n      calldatasize\n      sub\n      dup2\n      add\n      swap1\n      tag_44\n      swap2\n      swap1\n      tag_37\n      jump\t// in\n    tag_44:\n      tag_45\n      jump\t// in\n    tag_43:\n      mload(0x40)\n      tag_46\n      swap2\n      swap1\n      tag_16\n      jump\t// in\n    tag_46:\n      mload(0x40)\n      dup1\n      swap2\n      sub\n      swap1\n      return\n        /* \"Contracts/KipuBank.sol\":311:343  uint256 public immutable bankCap */\n    tag_10:\n      callvalue\n      dup1\n      iszero\n      tag_47\n      jumpi\n      revert(0x00, 0x00)\n    tag_47:\n      pop\n      tag_48\n      tag_49\n      jump\t// in\n    tag_48:\n      mload(0x40)\n      tag_50\n      swap2\n      swap1\n      tag_16\n      jump\t// in\n    tag_50:\n      mload(0x40)\n      dup1\n      swap2\n      sub\n      swap1\n      return\n        /* \"Contracts/KipuBank.sol\":852:879  uint256 public depositCount */\n    tag_14:\n      sload(0x01)\n      dup2\n      jump\t// out\n        /* \"Contracts/KipuBank.sol\":6896:7865  function withdraw(uint256 amount) external {... */\n    tag_21:\n        /* \"Contracts/KipuBank.sol\":6964:6965  0 */\n      0x00\n        /* \"Contracts/KipuBank.sol\":6954:6960  amount */\n      dup2\n        /* \"Contracts/KipuBank.sol\":6954:6965  amount == 0 */\n      sub\n        /* \"Contracts/KipuBank.sol\":6950:7092  if (amount == 0){... */\n      tag_52\n      jumpi\n        /* \"Contracts/KipuBank.sol\":7002:7012  msg.sender */\n      caller\n        /* \"Contracts/KipuBank.sol\":6986:7036  FailedWithdrawl(msg.sender, \"ZeroAmountNotAll\", 0) */\n      0xffffffffffffffffffffffffffffffffffffffff\n      and\n      0xf541119c517482637f4067c28782ab86181c836aac97d5b2a8d752d147833849\n        /* \"Contracts/KipuBank.sol\":7034:7035  0 */\n      0x00\n        /* \"Contracts/KipuBank.sol\":6986:7036  FailedWithdrawl(msg.sender, \"ZeroAmountNotAll\", 0) */\n      mload(0x40)\n      tag_53\n      swap2\n      swap1\n      tag_54\n      jump\t// in\n    tag_53:\n      mload(0x40)\n      dup1\n      swap2\n      sub\n      swap1\n      log2\n        /* \"Contracts/KipuBank.sol\":7058:7080  ZeroAmountNotAllowed() */\n      mload(0x40)\n      0x0f43956a00000000000000000000000000000000000000000000000000000000\n      dup2\n      mstore\n      0x04\n      add\n      mload(0x40)\n      dup1\n      swap2\n      sub\n      swap1\n      revert\n        /* \"Contracts/KipuBank.sol\":6950:7092  if (amount == 0){... */\n    tag_52:\n        /* \"Contracts/KipuBank.sol\":7115:7133  thresholdWithdrawl */\n      immutable(\"0xe455bf8ea6e7463a1046a0b52804526e119b4bf5136279614e0b1e8e296a4e2d\")\n        /* \"Contracts/KipuBank.sol\":7106:7112  amount */\n      dup2\n        /* \"Contracts/KipuBank.sol\":7106:7133  amount > thresholdWithdrawl */\n      gt\n        /* \"Contracts/KipuBank.sol\":7102:7373  if (amount > thresholdWithdrawl) {... */\n      iszero\n      tag_55\n      jumpi\n        /* \"Contracts/KipuBank.sol\":7189:7199  msg.sender */\n      caller\n        /* \"Contracts/KipuBank.sol\":7155:7285  FailedWithdrawl(... */\n      0xffffffffffffffffffffffffffffffffffffffff\n      and\n      0xf541119c517482637f4067c28782ab86181c836aac97d5b2a8d752d147833849\n        /* \"Contracts/KipuBank.sol\":7264:7270  amount */\n      dup3\n        /* \"Contracts/KipuBank.sol\":7155:7285  FailedWithdrawl(... */\n      mload(0x40)\n      tag_56\n      swap2\n      swap1\n      tag_57\n      jump\t// in\n    tag_56:\n      mload(0x40)\n      dup1\n      swap2\n      sub\n      swap1\n      log2\n        /* \"Contracts/KipuBank.sol\":7333:7339  amount */\n      dup1\n        /* \"Contracts/KipuBank.sol\":7341:7359  thresholdWithdrawl */\n      immutable(\"0xe455bf8ea6e7463a1046a0b52804526e119b4bf5136279614e0b1e8e296a4e2d\")\n        /* \"Contracts/KipuBank.sol\":7307:7360  ExceedsWithdrawlThreshold(amount, thresholdWithdrawl) */\n      mload(0x40)\n      0x8e85bd5200000000000000000000000000000000000000000000000000000000\n      dup2\n      mstore\n      0x04\n      add\n      tag_58\n      swap3\n      swap2\n      swap1\n      tag_59\n      jump\t// in\n    tag_58:\n      mload(0x40)\n      dup1\n      swap2\n      sub\n      swap1\n      revert\n        /* \"Contracts/KipuBank.sol\":7102:7373  if (amount > thresholdWithdrawl) {... */\n    tag_55:\n        /* \"Contracts/KipuBank.sol\":7396:7402  vaults */\n      0x03\n        /* \"Contracts/KipuBank.sol\":7396:7414  vaults[msg.sender] */\n      0x00\n        /* \"Contracts/KipuBank.sol\":7403:7413  msg.sender */\n      caller\n        /* \"Contracts/KipuBank.sol\":7396:7414  vaults[msg.sender] */\n      0xffffffffffffffffffffffffffffffffffffffff\n      and\n      0xffffffffffffffffffffffffffffffffffffffff\n      and\n      dup2\n      mstore\n      0x20\n      add\n      swap1\n      dup2\n      mstore\n      0x20\n      add\n      0x00\n      keccak256\n      sload\n        /* \"Contracts/KipuBank.sol\":7387:7393  amount */\n      dup2\n        /* \"Contracts/KipuBank.sol\":7387:7414  amount > vaults[msg.sender] */\n      gt\n        /* \"Contracts/KipuBank.sol\":7383:7662  if (amount > vaults[msg.sender]){... */\n      iszero\n      tag_60\n      jumpi\n        /* \"Contracts/KipuBank.sol\":7469:7479  msg.sender */\n      caller\n        /* \"Contracts/KipuBank.sol\":7435:7564  FailedWithdrawl(... */\n      0xffffffffffffffffffffffffffffffffffffffff\n      and\n      0xf541119c517482637f4067c28782ab86181c836aac97d5b2a8d752d147833849\n        /* \"Contracts/KipuBank.sol\":7543:7549  amount */\n      dup3\n        /* \"Contracts/KipuBank.sol\":7435:7564  FailedWithdrawl(... */\n      mload(0x40)\n      tag_61\n      swap2\n      swap1\n      tag_62\n      jump\t// in\n    tag_61:\n      mload(0x40)\n      dup1\n      swap2\n      sub\n      swap1\n      log2\n        /* \"Contracts/KipuBank.sol\":7611:7621  msg.sender */\n      caller\n        /* \"Contracts/KipuBank.sol\":7623:7629  amount */\n      dup2\n        /* \"Contracts/KipuBank.sol\":7631:7637  vaults */\n      0x03\n        /* \"Contracts/KipuBank.sol\":7631:7649  vaults[msg.sender] */\n      0x00\n        /* \"Contracts/KipuBank.sol\":7638:7648  msg.sender */\n      caller\n        /* \"Contracts/KipuBank.sol\":7631:7649  vaults[msg.sender] */\n      0xffffffffffffffffffffffffffffffffffffffff\n      and\n      0xffffffffffffffffffffffffffffffffffffffff\n      and\n      dup2\n      mstore\n      0x20\n      add\n      swap1\n      dup2\n      mstore\n      0x20\n      add\n      0x00\n      keccak256\n      sload\n        /* \"Contracts/KipuBank.sol\":7586:7650  InsufficientVaultBalance(msg.sender, amount, vaults[msg.sender]) */\n      mload(0x40)\n      0xa343d5e000000000000000000000000000000000000000000000000000000000\n      dup2\n      mstore\n      0x04\n      add\n      tag_63\n      swap4\n      swap3\n      swap2\n      swap1\n      tag_64\n      jump\t// in\n    tag_63:\n      mload(0x40)\n      dup1\n      swap2\n      sub\n      swap1\n      revert\n        /* \"Contracts/KipuBank.sol\":7383:7662  if (amount > vaults[msg.sender]){... */\n    tag_60:\n        /* \"Contracts/KipuBank.sol\":7672:7708  _processWithdraw(msg.sender, amount) */\n      tag_65\n        /* \"Contracts/KipuBank.sol\":7689:7699  msg.sender */\n      caller\n        /* \"Contracts/KipuBank.sol\":7701:7707  amount */\n      dup3\n        /* \"Contracts/KipuBank.sol\":7672:7688  _processWithdraw */\n      tag_66\n        /* \"Contracts/KipuBank.sol\":7672:7708  _processWithdraw(msg.sender, amount) */\n      jump\t// in\n    tag_65:\n        /* \"Contracts/KipuBank.sol\":7754:7764  msg.sender */\n      caller\n        /* \"Contracts/KipuBank.sol\":7724:7857  SuccessWithdraw(... */\n      0xffffffffffffffffffffffffffffffffffffffff\n      and\n      0x9d13af23e9b71c27cef477f3213bb1a65c3d5bd1d262f06467d60b45ca285be9\n        /* \"Contracts/KipuBank.sol\":7779:7785  amount */\n      dup3\n        /* \"Contracts/KipuBank.sol\":7800:7806  vaults */\n      0x03\n        /* \"Contracts/KipuBank.sol\":7800:7818  vaults[msg.sender] */\n      0x00\n        /* \"Contracts/KipuBank.sol\":7807:7817  msg.sender */\n      caller\n        /* \"Contracts/KipuBank.sol\":7800:7818  vaults[msg.sender] */\n      0xffffffffffffffffffffffffffffffffffffffff\n      and\n      0xffffffffffffffffffffffffffffffffffffffff\n      and\n      dup2\n      mstore\n      0x20\n      add\n      swap1\n      dup2\n      mstore\n      0x20\n      add\n      0x00\n      keccak256\n      sload\n        /* \"Contracts/KipuBank.sol\":7833:7846  totalDeposits */\n      sload(0x00)\n        /* \"Contracts/KipuBank.sol\":7724:7857  SuccessWithdraw(... */\n      mload(0x40)\n      tag_67\n      swap4\n      swap3\n      swap2\n      swap1\n      tag_68\n      jump\t// in\n    tag_67:\n      mload(0x40)\n      dup1\n      swap2\n      sub\n      swap1\n      log2\n        /* \"Contracts/KipuBank.sol\":6896:7865  function withdraw(uint256 amount) external {... */\n      pop\n      jump\t// out\n        /* \"Contracts/KipuBank.sol\":519:562  uint256 public immutable thresholdWithdrawl */\n    tag_24:\n      immutable(\"0xe455bf8ea6e7463a1046a0b52804526e119b4bf5136279614e0b1e8e296a4e2d\")\n      dup2\n      jump\t// out\n        /* \"Contracts/KipuBank.sol\":1004:1034  uint256 public withdrawalCount */\n    tag_28:\n      sload(0x02)\n      dup2\n      jump\t// out\n        /* \"Contracts/KipuBank.sol\":706:734  uint256 public totalDeposits */\n    tag_32:\n      sload(0x00)\n      dup2\n      jump\t// out\n        /* \"Contracts/KipuBank.sol\":1228:1269  mapping(address => uint256) public vaults */\n    tag_38:\n      mstore(0x20, 0x03)\n      dup1\n      0x00\n      mstore\n      keccak256(0x00, 0x40)\n      0x00\n      swap2\n      pop\n      swap1\n      pop\n      sload\n      dup2\n      jump\t// out\n        /* \"Contracts/KipuBank.sol\":6000:6421  function deposit() external payable checkBankCap(msg.value) {... */\n    tag_41:\n        /* \"Contracts/KipuBank.sol\":6049:6058  msg.value */\n      callvalue\n        /* \"Contracts/KipuBank.sol\":5361:5368  bankCap */\n      immutable(\"0x13600b294191fc92924bb3ce4b969c1e7e2bab8f4c93c3fc6d0a51733df3c060\")\n        /* \"Contracts/KipuBank.sol\":5352:5358  amount */\n      dup2\n        /* \"Contracts/KipuBank.sol\":5336:5349  totalDeposits */\n      sload(0x00)\n        /* \"Contracts/KipuBank.sol\":5336:5358  totalDeposits + amount */\n      tag_70\n      swap2\n      swap1\n      tag_71\n      jump\t// in\n    tag_70:\n        /* \"Contracts/KipuBank.sol\":5336:5368  totalDeposits + amount > bankCap */\n      gt\n        /* \"Contracts/KipuBank.sol\":5332:5590  if (totalDeposits + amount > bankCap){... */\n      iszero\n      tag_72\n      jumpi\n        /* \"Contracts/KipuBank.sol\":5422:5432  msg.sender */\n      caller\n        /* \"Contracts/KipuBank.sol\":5389:5509  FailedDeposit (... */\n      0xffffffffffffffffffffffffffffffffffffffff\n      and\n      0x960c69db83012c2b65607b4050faea44e588af0eba0b5f3b610adb9669cca67b\n        /* \"Contracts/KipuBank.sol\":5488:5494  amount */\n      dup3\n        /* \"Contracts/KipuBank.sol\":5389:5509  FailedDeposit (... */\n      mload(0x40)\n      tag_73\n      swap2\n      swap1\n      tag_74\n      jump\t// in\n    tag_73:\n      mload(0x40)\n      dup1\n      swap2\n      sub\n      swap1\n      log2\n        /* \"Contracts/KipuBank.sol\":5546:5552  amount */\n      dup1\n        /* \"Contracts/KipuBank.sol\":5564:5577  totalDeposits */\n      sload(0x00)\n        /* \"Contracts/KipuBank.sol\":5554:5561  bankCap */\n      immutable(\"0x13600b294191fc92924bb3ce4b969c1e7e2bab8f4c93c3fc6d0a51733df3c060\")\n        /* \"Contracts/KipuBank.sol\":5554:5577  bankCap - totalDeposits */\n      tag_75\n      swap2\n      swap1\n      tag_76\n      jump\t// in\n    tag_75:\n        /* \"Contracts/KipuBank.sol\":5531:5578  ExceedsBankCap(amount, bankCap - totalDeposits) */\n      mload(0x40)\n      0x4274ef7700000000000000000000000000000000000000000000000000000000\n      dup2\n      mstore\n      0x04\n      add\n      tag_77\n      swap3\n      swap2\n      swap1\n      tag_59\n      jump\t// in\n    tag_77:\n      mload(0x40)\n      dup1\n      swap2\n      sub\n      swap1\n      revert\n        /* \"Contracts/KipuBank.sol\":5332:5590  if (totalDeposits + amount > bankCap){... */\n    tag_72:\n        /* \"Contracts/KipuBank.sol\":6088:6089  0 */\n      0x00\n        /* \"Contracts/KipuBank.sol\":6075:6084  msg.value */\n      callvalue\n        /* \"Contracts/KipuBank.sol\":6075:6089  msg.value == 0 */\n      sub\n        /* \"Contracts/KipuBank.sol\":6071:6214  if (msg.value == 0){... */\n      tag_79\n      jumpi\n        /* \"Contracts/KipuBank.sol\":6124:6134  msg.sender */\n      caller\n        /* \"Contracts/KipuBank.sol\":6110:6158  FailedDeposit(msg.sender, \"ZeroAmountNotAll\", 0) */\n      0xffffffffffffffffffffffffffffffffffffffff\n      and\n      0x960c69db83012c2b65607b4050faea44e588af0eba0b5f3b610adb9669cca67b\n        /* \"Contracts/KipuBank.sol\":6156:6157  0 */\n      0x00\n        /* \"Contracts/KipuBank.sol\":6110:6158  FailedDeposit(msg.sender, \"ZeroAmountNotAll\", 0) */\n      mload(0x40)\n      tag_80\n      swap2\n      swap1\n      tag_54\n      jump\t// in\n    tag_80:\n      mload(0x40)\n      dup1\n      swap2\n      sub\n      swap1\n      log2\n        /* \"Contracts/KipuBank.sol\":6180:6202  ZeroAmountNotAllowed() */\n      mload(0x40)\n      0x0f43956a00000000000000000000000000000000000000000000000000000000\n      dup2\n      mstore\n      0x04\n      add\n      mload(0x40)\n      dup1\n      swap2\n      sub\n      swap1\n      revert\n        /* \"Contracts/KipuBank.sol\":6071:6214  if (msg.value == 0){... */\n    tag_79:\n        /* \"Contracts/KipuBank.sol\":6224:6262  _processDeposit(msg.sender, msg.value) */\n      tag_81\n        /* \"Contracts/KipuBank.sol\":6240:6250  msg.sender */\n      caller\n        /* \"Contracts/KipuBank.sol\":6252:6261  msg.value */\n      callvalue\n        /* \"Contracts/KipuBank.sol\":6224:6239  _processDeposit */\n      tag_82\n        /* \"Contracts/KipuBank.sol\":6224:6262  _processDeposit(msg.sender, msg.value) */\n      jump\t// in\n    tag_81:\n        /* \"Contracts/KipuBank.sol\":6307:6317  msg.sender */\n      caller\n        /* \"Contracts/KipuBank.sol\":6278:6413  SuccessDeposit(... */\n      0xffffffffffffffffffffffffffffffffffffffff\n      and\n      0xbadf6a9cbb8d928fcfb4c613af1104439f4b4e9822469b18502ac2662f4e6c80\n        /* \"Contracts/KipuBank.sol\":6332:6341  msg.value */\n      callvalue\n        /* \"Contracts/KipuBank.sol\":6356:6362  vaults */\n      0x03\n        /* \"Contracts/KipuBank.sol\":6356:6374  vaults[msg.sender] */\n      0x00\n        /* \"Contracts/KipuBank.sol\":6363:6373  msg.sender */\n      caller\n        /* \"Contracts/KipuBank.sol\":6356:6374  vaults[msg.sender] */\n      0xffffffffffffffffffffffffffffffffffffffff\n      and\n      0xffffffffffffffffffffffffffffffffffffffff\n      and\n      dup2\n      mstore\n      0x20\n      add\n      swap1\n      dup2\n      mstore\n      0x20\n      add\n      0x00\n      keccak256\n      sload\n        /* \"Contracts/KipuBank.sol\":6389:6402  totalDeposits */\n      sload(0x00)\n        /* \"Contracts/KipuBank.sol\":6278:6413  SuccessDeposit(... */\n      mload(0x40)\n      tag_83\n      swap4\n      swap3\n      swap2\n      swap1\n      tag_68\n      jump\t// in\n    tag_83:\n      mload(0x40)\n      dup1\n      swap2\n      sub\n      swap1\n      log2\n        /* \"Contracts/KipuBank.sol\":6000:6421  function deposit() external payable checkBankCap(msg.value) {... */\n      pop\n      jump\t// out\n        /* \"Contracts/KipuBank.sol\":8905:9016  function getVaultBalance(address _user) external view returns (uint256) {... */\n    tag_45:\n        /* \"Contracts/KipuBank.sol\":8968:8975  uint256 */\n      0x00\n        /* \"Contracts/KipuBank.sol\":8995:9001  vaults */\n      0x03\n        /* \"Contracts/KipuBank.sol\":8995:9008  vaults[_user] */\n      0x00\n        /* \"Contracts/KipuBank.sol\":9002:9007  _user */\n      dup4\n        /* \"Contracts/KipuBank.sol\":8995:9008  vaults[_user] */\n      0xffffffffffffffffffffffffffffffffffffffff\n      and\n      0xffffffffffffffffffffffffffffffffffffffff\n      and\n      dup2\n      mstore\n      0x20\n      add\n      swap1\n      dup2\n      mstore\n      0x20\n      add\n      0x00\n      keccak256\n      sload\n        /* \"Contracts/KipuBank.sol\":8988:9008  return vaults[_user] */\n      swap1\n      pop\n        /* \"Contracts/KipuBank.sol\":8905:9016  function getVaultBalance(address _user) external view returns (uint256) {... */\n      swap2\n      swap1\n      pop\n      jump\t// out\n        /* \"Contracts/KipuBank.sol\":311:343  uint256 public immutable bankCap */\n    tag_49:\n      immutable(\"0x13600b294191fc92924bb3ce4b969c1e7e2bab8f4c93c3fc6d0a51733df3c060\")\n      dup2\n      jump\t// out\n        /* \"Contracts/KipuBank.sol\":8510:8682  function _processWithdraw(address _user, uint256 _amount) private {... */\n    tag_66:\n        /* \"Contracts/KipuBank.sol\":8604:8611  _amount */\n      dup1\n        /* \"Contracts/KipuBank.sol\":8587:8593  vaults */\n      0x03\n        /* \"Contracts/KipuBank.sol\":8587:8600  vaults[_user] */\n      0x00\n        /* \"Contracts/KipuBank.sol\":8594:8599  _user */\n      dup5\n        /* \"Contracts/KipuBank.sol\":8587:8600  vaults[_user] */\n      0xffffffffffffffffffffffffffffffffffffffff\n      and\n      0xffffffffffffffffffffffffffffffffffffffff\n      and\n      dup2\n      mstore\n      0x20\n      add\n      swap1\n      dup2\n      mstore\n      0x20\n      add\n      0x00\n      keccak256\n      0x00\n        /* \"Contracts/KipuBank.sol\":8587:8611  vaults[_user] -= _amount */\n      dup3\n      dup3\n      sload\n      tag_86\n      swap2\n      swap1\n      tag_76\n      jump\t// in\n    tag_86:\n      swap3\n      pop\n      pop\n      dup2\n      swap1\n      sstore\n      pop\n        /* \"Contracts/KipuBank.sol\":8639:8646  _amount */\n      dup1\n        /* \"Contracts/KipuBank.sol\":8622:8635  totalDeposits */\n      0x00\n      0x00\n        /* \"Contracts/KipuBank.sol\":8622:8646  totalDeposits -= _amount */\n      dup3\n      dup3\n      sload\n      tag_87\n      swap2\n      swap1\n      tag_76\n      jump\t// in\n    tag_87:\n      swap3\n      pop\n      pop\n      dup2\n      swap1\n      sstore\n      pop\n        /* \"Contracts/KipuBank.sol\":8657:8672  withdrawalCount */\n      0x02\n      0x00\n        /* \"Contracts/KipuBank.sol\":8657:8674  withdrawalCount++ */\n      dup2\n      sload\n      dup1\n      swap3\n      swap2\n      swap1\n      tag_88\n      swap1\n      tag_89\n      jump\t// in\n    tag_88:\n      swap2\n      swap1\n      pop\n      sstore\n      pop\n        /* \"Contracts/KipuBank.sol\":8510:8682  function _processWithdraw(address _user, uint256 _amount) private {... */\n      pop\n      pop\n      jump\t// out\n        /* \"Contracts/KipuBank.sol\":8109:8277  function _processDeposit(address _user, uint256 _amount) private {... */\n    tag_82:\n        /* \"Contracts/KipuBank.sol\":8202:8209  _amount */\n      dup1\n        /* \"Contracts/KipuBank.sol\":8185:8191  vaults */\n      0x03\n        /* \"Contracts/KipuBank.sol\":8185:8198  vaults[_user] */\n      0x00\n        /* \"Contracts/KipuBank.sol\":8192:8197  _user */\n      dup5\n        /* \"Contracts/KipuBank.sol\":8185:8198  vaults[_user] */\n      0xffffffffffffffffffffffffffffffffffffffff\n      and\n      0xffffffffffffffffffffffffffffffffffffffff\n      and\n      dup2\n      mstore\n      0x20\n      add\n      swap1\n      dup2\n      mstore\n      0x20\n      add\n      0x00\n      keccak256\n      0x00\n        /* \"Contracts/KipuBank.sol\":8185:8209  vaults[_user] += _amount */\n      dup3\n      dup3\n      sload\n      tag_91\n      swap2\n      swap1\n      tag_71\n      jump\t// in\n    tag_91:\n      swap3\n      pop\n      pop\n      dup2\n      swap1\n      sstore\n      pop\n        /* \"Contracts/KipuBank.sol\":8237:8244  _amount */\n      dup1\n        /* \"Contracts/KipuBank.sol\":8220:8233  totalDeposits */\n      0x00\n      0x00\n        /* \"Contracts/KipuBank.sol\":8220:8244  totalDeposits += _amount */\n      dup3\n      dup3\n      sload\n      tag_92\n      swap2\n      swap1\n      tag_71\n      jump\t// in\n    tag_92:\n      swap3\n      pop\n      pop\n      dup2\n      swap1\n      sstore\n      pop\n        /* \"Contracts/KipuBank.sol\":8255:8267  depositCount */\n      0x01\n      0x00\n        /* \"Contracts/KipuBank.sol\":8255:8269  depositCount++ */\n      dup2\n      sload\n      dup1\n      swap3\n      swap2\n      swap1\n      tag_93\n      swap1\n      tag_89\n      jump\t// in\n    tag_93:\n      swap2\n      swap1\n      pop\n      sstore\n      pop\n        /* \"Contracts/KipuBank.sol\":8109:8277  function _processDeposit(address _user, uint256 _amount) private {... */\n      pop\n      pop\n      jump\t// out\n        /* \"#utility.yul\":7:84   */\n    tag_94:\n        /* \"#utility.yul\":44:51   */\n      0x00\n        /* \"#utility.yul\":73:78   */\n      dup2\n        /* \"#utility.yul\":62:78   */\n      swap1\n      pop\n        /* \"#utility.yul\":7:84   */\n      swap2\n      swap1\n      pop\n      jump\t// out\n        /* \"#utility.yul\":90:208   */\n    tag_95:\n        /* \"#utility.yul\":177:201   */\n      tag_123\n        /* \"#utility.yul\":195:200   */\n      dup2\n        /* \"#utility.yul\":177:201   */\n      tag_94\n      jump\t// in\n    tag_123:\n        /* \"#utility.yul\":172:175   */\n      dup3\n        /* \"#utility.yul\":165:202   */\n      mstore\n        /* \"#utility.yul\":90:208   */\n      pop\n      pop\n      jump\t// out\n        /* \"#utility.yul\":214:436   */\n    tag_16:\n        /* \"#utility.yul\":307:311   */\n      0x00\n        /* \"#utility.yul\":345:347   */\n      0x20\n        /* \"#utility.yul\":334:343   */\n      dup3\n        /* \"#utility.yul\":330:348   */\n      add\n        /* \"#utility.yul\":322:348   */\n      swap1\n      pop\n        /* \"#utility.yul\":358:429   */\n      tag_125\n        /* \"#utility.yul\":426:427   */\n      0x00\n        /* \"#utility.yul\":415:424   */\n      dup4\n        /* \"#utility.yul\":411:428   */\n      add\n        /* \"#utility.yul\":402:408   */\n      dup5\n        /* \"#utility.yul\":358:429   */\n      tag_95\n      jump\t// in\n    tag_125:\n        /* \"#utility.yul\":214:436   */\n      swap3\n      swap2\n      pop\n      pop\n      jump\t// out\n        /* \"#utility.yul\":523:640   */\n    tag_97:\n        /* \"#utility.yul\":632:633   */\n      0x00\n        /* \"#utility.yul\":629:630   */\n      0x00\n        /* \"#utility.yul\":622:634   */\n      revert\n        /* \"#utility.yul\":769:891   */\n    tag_99:\n        /* \"#utility.yul\":842:866   */\n      tag_130\n        /* \"#utility.yul\":860:865   */\n      dup2\n        /* \"#utility.yul\":842:866   */\n      tag_94\n      jump\t// in\n    tag_130:\n        /* \"#utility.yul\":835:840   */\n      dup2\n        /* \"#utility.yul\":832:867   */\n      eq\n        /* \"#utility.yul\":822:885   */\n      tag_131\n      jumpi\n        /* \"#utility.yul\":881:882   */\n      0x00\n        /* \"#utility.yul\":878:879   */\n      0x00\n        /* \"#utility.yul\":871:883   */\n      revert\n        /* \"#utility.yul\":822:885   */\n    tag_131:\n        /* \"#utility.yul\":769:891   */\n      pop\n      jump\t// out\n        /* \"#utility.yul\":897:1036   */\n    tag_100:\n        /* \"#utility.yul\":943:948   */\n      0x00\n        /* \"#utility.yul\":981:987   */\n      dup2\n        /* \"#utility.yul\":968:988   */\n      calldataload\n        /* \"#utility.yul\":959:988   */\n      swap1\n      pop\n        /* \"#utility.yul\":997:1030   */\n      tag_133\n        /* \"#utility.yul\":1024:1029   */\n      dup2\n        /* \"#utility.yul\":997:1030   */\n      tag_99\n      jump\t// in\n    tag_133:\n        /* \"#utility.yul\":897:1036   */\n      swap3\n      swap2\n      pop\n      pop\n      jump\t// out\n        /* \"#utility.yul\":1042:1371   */\n    tag_20:\n        /* \"#utility.yul\":1101:1107   */\n      0x00\n        /* \"#utility.yul\":1150:1152   */\n      0x20\n        /* \"#utility.yul\":1138:1147   */\n      dup3\n        /* \"#utility.yul\":1129:1136   */\n      dup5\n        /* \"#utility.yul\":1125:1148   */\n      sub\n        /* \"#utility.yul\":1121:1153   */\n      slt\n        /* \"#utility.yul\":1118:1237   */\n      iszero\n      tag_135\n      jumpi\n        /* \"#utility.yul\":1156:1235   */\n      tag_136\n      tag_97\n      jump\t// in\n    tag_136:\n        /* \"#utility.yul\":1118:1237   */\n    tag_135:\n        /* \"#utility.yul\":1276:1277   */\n      0x00\n        /* \"#utility.yul\":1301:1354   */\n      tag_137\n        /* \"#utility.yul\":1346:1353   */\n      dup5\n        /* \"#utility.yul\":1337:1343   */\n      dup3\n        /* \"#utility.yul\":1326:1335   */\n      dup6\n        /* \"#utility.yul\":1322:1344   */\n      add\n        /* \"#utility.yul\":1301:1354   */\n      tag_100\n      jump\t// in\n    tag_137:\n        /* \"#utility.yul\":1291:1354   */\n      swap2\n      pop\n        /* \"#utility.yul\":1247:1364   */\n      pop\n        /* \"#utility.yul\":1042:1371   */\n      swap3\n      swap2\n      pop\n      pop\n      jump\t// out\n        /* \"#utility.yul\":1377:1503   */\n    tag_101:\n        /* \"#utility.yul\":1414:1421   */\n      0x00\n        /* \"#utility.yul\":1454:1496   */\n      0xffffffffffffffffffffffffffffffffffffffff\n        /* \"#utility.yul\":1447:1452   */\n      dup3\n        /* \"#utility.yul\":1443:1497   */\n      and\n        /* \"#utility.yul\":1432:1497   */\n      swap1\n      pop\n        /* \"#utility.yul\":1377:1503   */\n      swap2\n      swap1\n      pop\n      jump\t// out\n        /* \"#utility.yul\":1509:1605   */\n    tag_102:\n        /* \"#utility.yul\":1546:1553   */\n      0x00\n        /* \"#utility.yul\":1575:1599   */\n      tag_140\n        /* \"#utility.yul\":1593:1598   */\n      dup3\n        /* \"#utility.yul\":1575:1599   */\n      tag_101\n      jump\t// in\n    tag_140:\n        /* \"#utility.yul\":1564:1599   */\n      swap1\n      pop\n        /* \"#utility.yul\":1509:1605   */\n      swap2\n      swap1\n      pop\n      jump\t// out\n        /* \"#utility.yul\":1611:1733   */\n    tag_103:\n        /* \"#utility.yul\":1684:1708   */\n      tag_142\n        /* \"#utility.yul\":1702:1707   */\n      dup2\n        /* \"#utility.yul\":1684:1708   */\n      tag_102\n      jump\t// in\n    tag_142:\n        /* \"#utility.yul\":1677:1682   */\n      dup2\n        /* \"#utility.yul\":1674:1709   */\n      eq\n        /* \"#utility.yul\":1664:1727   */\n      tag_143\n      jumpi\n        /* \"#utility.yul\":1723:1724   */\n      0x00\n        /* \"#utility.yul\":1720:1721   */\n      0x00\n        /* \"#utility.yul\":1713:1725   */\n      revert\n        /* \"#utility.yul\":1664:1727   */\n    tag_143:\n        /* \"#utility.yul\":1611:1733   */\n      pop\n      jump\t// out\n        /* \"#utility.yul\":1739:1878   */\n    tag_104:\n        /* \"#utility.yul\":1785:1790   */\n      0x00\n        /* \"#utility.yul\":1823:1829   */\n      dup2\n        /* \"#utility.yul\":1810:1830   */\n      calldataload\n        /* \"#utility.yul\":1801:1830   */\n      swap1\n      pop\n        /* \"#utility.yul\":1839:1872   */\n      tag_145\n        /* \"#utility.yul\":1866:1871   */\n      dup2\n        /* \"#utility.yul\":1839:1872   */\n      tag_103\n      jump\t// in\n    tag_145:\n        /* \"#utility.yul\":1739:1878   */\n      swap3\n      swap2\n      pop\n      pop\n      jump\t// out\n        /* \"#utility.yul\":1884:2213   */\n    tag_37:\n        /* \"#utility.yul\":1943:1949   */\n      0x00\n        /* \"#utility.yul\":1992:1994   */\n      0x20\n        /* \"#utility.yul\":1980:1989   */\n      dup3\n        /* \"#utility.yul\":1971:1978   */\n      dup5\n        /* \"#utility.yul\":1967:1990   */\n      sub\n        /* \"#utility.yul\":1963:1995   */\n      slt\n        /* \"#utility.yul\":1960:2079   */\n      iszero\n      tag_147\n      jumpi\n        /* \"#utility.yul\":1998:2077   */\n      tag_148\n      tag_97\n      jump\t// in\n    tag_148:\n        /* \"#utility.yul\":1960:2079   */\n    tag_147:\n        /* \"#utility.yul\":2118:2119   */\n      0x00\n        /* \"#utility.yul\":2143:2196   */\n      tag_149\n        /* \"#utility.yul\":2188:2195   */\n      dup5\n        /* \"#utility.yul\":2179:2185   */\n      dup3\n        /* \"#utility.yul\":2168:2177   */\n      dup6\n        /* \"#utility.yul\":2164:2186   */\n      add\n        /* \"#utility.yul\":2143:2196   */\n      tag_104\n      jump\t// in\n    tag_149:\n        /* \"#utility.yul\":2133:2196   */\n      swap2\n      pop\n        /* \"#utility.yul\":2089:2206   */\n      pop\n        /* \"#utility.yul\":1884:2213   */\n      swap3\n      swap2\n      pop\n      pop\n      jump\t// out\n        /* \"#utility.yul\":2219:2388   */\n    tag_105:\n        /* \"#utility.yul\":2303:2314   */\n      0x00\n        /* \"#utility.yul\":2337:2343   */\n      dup3\n        /* \"#utility.yul\":2332:2335   */\n      dup3\n        /* \"#utility.yul\":2325:2344   */\n      mstore\n        /* \"#utility.yul\":2377:2381   */\n      0x20\n        /* \"#utility.yul\":2372:2375   */\n      dup3\n        /* \"#utility.yul\":2368:2382   */\n      add\n        /* \"#utility.yul\":2353:2382   */\n      swap1\n      pop\n        /* \"#utility.yul\":2219:2388   */\n      swap3\n      swap2\n      pop\n      pop\n      jump\t// out\n        /* \"#utility.yul\":2394:2560   */\n    tag_106:\n        /* \"#utility.yul\":2534:2552   */\n      0x5a65726f416d6f756e744e6f74416c6c00000000000000000000000000000000\n        /* \"#utility.yul\":2530:2531   */\n      0x00\n        /* \"#utility.yul\":2522:2528   */\n      dup3\n        /* \"#utility.yul\":2518:2532   */\n      add\n        /* \"#utility.yul\":2511:2553   */\n      mstore\n        /* \"#utility.yul\":2394:2560   */\n      pop\n      jump\t// out\n        /* \"#utility.yul\":2566:2932   */\n    tag_107:\n        /* \"#utility.yul\":2708:2711   */\n      0x00\n        /* \"#utility.yul\":2729:2796   */\n      tag_153\n        /* \"#utility.yul\":2793:2795   */\n      0x10\n        /* \"#utility.yul\":2788:2791   */\n      dup4\n        /* \"#utility.yul\":2729:2796   */\n      tag_105\n      jump\t// in\n    tag_153:\n        /* \"#utility.yul\":2722:2796   */\n      swap2\n      pop\n        /* \"#utility.yul\":2805:2898   */\n      tag_154\n        /* \"#utility.yul\":2894:2897   */\n      dup3\n        /* \"#utility.yul\":2805:2898   */\n      tag_106\n      jump\t// in\n    tag_154:\n        /* \"#utility.yul\":2923:2925   */\n      0x20\n        /* \"#utility.yul\":2918:2921   */\n      dup3\n        /* \"#utility.yul\":2914:2926   */\n      add\n        /* \"#utility.yul\":2907:2926   */\n      swap1\n      pop\n        /* \"#utility.yul\":2566:2932   */\n      swap2\n      swap1\n      pop\n      jump\t// out\n        /* \"#utility.yul\":2938:3023   */\n    tag_108:\n        /* \"#utility.yul\":2983:2990   */\n      0x00\n        /* \"#utility.yul\":3012:3017   */\n      dup2\n        /* \"#utility.yul\":3001:3017   */\n      swap1\n      pop\n        /* \"#utility.yul\":2938:3023   */\n      swap2\n      swap1\n      pop\n      jump\t// out\n        /* \"#utility.yul\":3029:3089   */\n    tag_109:\n        /* \"#utility.yul\":3057:3060   */\n      0x00\n        /* \"#utility.yul\":3078:3083   */\n      dup2\n        /* \"#utility.yul\":3071:3083   */\n      swap1\n      pop\n        /* \"#utility.yul\":3029:3089   */\n      swap2\n      swap1\n      pop\n      jump\t// out\n        /* \"#utility.yul\":3095:3253   */\n    tag_110:\n        /* \"#utility.yul\":3153:3162   */\n      0x00\n        /* \"#utility.yul\":3186:3247   */\n      tag_158\n        /* \"#utility.yul\":3204:3246   */\n      tag_159\n        /* \"#utility.yul\":3213:3245   */\n      tag_160\n        /* \"#utility.yul\":3239:3244   */\n      dup5\n        /* \"#utility.yul\":3213:3245   */\n      tag_108\n      jump\t// in\n    tag_160:\n        /* \"#utility.yul\":3204:3246   */\n      tag_109\n      jump\t// in\n    tag_159:\n        /* \"#utility.yul\":3186:3247   */\n      tag_94\n      jump\t// in\n    tag_158:\n        /* \"#utility.yul\":3173:3247   */\n      swap1\n      pop\n        /* \"#utility.yul\":3095:3253   */\n      swap2\n      swap1\n      pop\n      jump\t// out\n        /* \"#utility.yul\":3259:3406   */\n    tag_111:\n        /* \"#utility.yul\":3354:3399   */\n      tag_162\n        /* \"#utility.yul\":3393:3398   */\n      dup2\n        /* \"#utility.yul\":3354:3399   */\n      tag_110\n      jump\t// in\n    tag_162:\n        /* \"#utility.yul\":3349:3352   */\n      dup3\n        /* \"#utility.yul\":3342:3400   */\n      mstore\n        /* \"#utility.yul\":3259:3406   */\n      pop\n      pop\n      jump\t// out\n        /* \"#utility.yul\":3412:3957   */\n    tag_54:\n        /* \"#utility.yul\":3614:3618   */\n      0x00\n        /* \"#utility.yul\":3652:3654   */\n      0x40\n        /* \"#utility.yul\":3641:3650   */\n      dup3\n        /* \"#utility.yul\":3637:3655   */\n      add\n        /* \"#utility.yul\":3629:3655   */\n      swap1\n      pop\n        /* \"#utility.yul\":3701:3710   */\n      dup2\n        /* \"#utility.yul\":3695:3699   */\n      dup2\n        /* \"#utility.yul\":3691:3711   */\n      sub\n        /* \"#utility.yul\":3687:3688   */\n      0x00\n        /* \"#utility.yul\":3676:3685   */\n      dup4\n        /* \"#utility.yul\":3672:3689   */\n      add\n        /* \"#utility.yul\":3665:3712   */\n      mstore\n        /* \"#utility.yul\":3729:3860   */\n      tag_164\n        /* \"#utility.yul\":3855:3859   */\n      dup2\n        /* \"#utility.yul\":3729:3860   */\n      tag_107\n      jump\t// in\n    tag_164:\n        /* \"#utility.yul\":3721:3860   */\n      swap1\n      pop\n        /* \"#utility.yul\":3870:3950   */\n      tag_165\n        /* \"#utility.yul\":3946:3948   */\n      0x20\n        /* \"#utility.yul\":3935:3944   */\n      dup4\n        /* \"#utility.yul\":3931:3949   */\n      add\n        /* \"#utility.yul\":3922:3928   */\n      dup5\n        /* \"#utility.yul\":3870:3950   */\n      tag_111\n      jump\t// in\n    tag_165:\n        /* \"#utility.yul\":3412:3957   */\n      swap3\n      swap2\n      pop\n      pop\n      jump\t// out\n        /* \"#utility.yul\":3963:4138   */\n    tag_112:\n        /* \"#utility.yul\":4103:4130   */\n      0x4578636565647357697468647261776c5468726573686f6c6400000000000000\n        /* \"#utility.yul\":4099:4100   */\n      0x00\n        /* \"#utility.yul\":4091:4097   */\n      dup3\n        /* \"#utility.yul\":4087:4101   */\n      add\n        /* \"#utility.yul\":4080:4131   */\n      mstore\n        /* \"#utility.yul\":3963:4138   */\n      pop\n      jump\t// out\n        /* \"#utility.yul\":4144:4510   */\n    tag_113:\n        /* \"#utility.yul\":4286:4289   */\n      0x00\n        /* \"#utility.yul\":4307:4374   */\n      tag_168\n        /* \"#utility.yul\":4371:4373   */\n      0x19\n        /* \"#utility.yul\":4366:4369   */\n      dup4\n        /* \"#utility.yul\":4307:4374   */\n      tag_105\n      jump\t// in\n    tag_168:\n        /* \"#utility.yul\":4300:4374   */\n      swap2\n      pop\n        /* \"#utility.yul\":4383:4476   */\n      tag_169\n        /* \"#utility.yul\":4472:4475   */\n      dup3\n        /* \"#utility.yul\":4383:4476   */\n      tag_112\n      jump\t// in\n    tag_169:\n        /* \"#utility.yul\":4501:4503   */\n      0x20\n        /* \"#utility.yul\":4496:4499   */\n      dup3\n        /* \"#utility.yul\":4492:4504   */\n      add\n        /* \"#utility.yul\":4485:4504   */\n      swap1\n      pop\n        /* \"#utility.yul\":4144:4510   */\n      swap2\n      swap1\n      pop\n      jump\t// out\n        /* \"#utility.yul\":4516:5045   */\n    tag_57:\n        /* \"#utility.yul\":4710:4714   */\n      0x00\n        /* \"#utility.yul\":4748:4750   */\n      0x40\n        /* \"#utility.yul\":4737:4746   */\n      dup3\n        /* \"#utility.yul\":4733:4751   */\n      add\n        /* \"#utility.yul\":4725:4751   */\n      swap1\n      pop\n        /* \"#utility.yul\":4797:4806   */\n      dup2\n        /* \"#utility.yul\":4791:4795   */\n      dup2\n        /* \"#utility.yul\":4787:4807   */\n      sub\n        /* \"#utility.yul\":4783:4784   */\n      0x00\n        /* \"#utility.yul\":4772:4781   */\n      dup4\n        /* \"#utility.yul\":4768:4785   */\n      add\n        /* \"#utility.yul\":4761:4808   */\n      mstore\n        /* \"#utility.yul\":4825:4956   */\n      tag_171\n        /* \"#utility.yul\":4951:4955   */\n      dup2\n        /* \"#utility.yul\":4825:4956   */\n      tag_113\n      jump\t// in\n    tag_171:\n        /* \"#utility.yul\":4817:4956   */\n      swap1\n      pop\n        /* \"#utility.yul\":4966:5038   */\n      tag_172\n        /* \"#utility.yul\":5034:5036   */\n      0x20\n        /* \"#utility.yul\":5023:5032   */\n      dup4\n        /* \"#utility.yul\":5019:5037   */\n      add\n        /* \"#utility.yul\":5010:5016   */\n      dup5\n        /* \"#utility.yul\":4966:5038   */\n      tag_95\n      jump\t// in\n    tag_172:\n        /* \"#utility.yul\":4516:5045   */\n      swap3\n      swap2\n      pop\n      pop\n      jump\t// out\n        /* \"#utility.yul\":5051:5383   */\n    tag_59:\n        /* \"#utility.yul\":5172:5176   */\n      0x00\n        /* \"#utility.yul\":5210:5212   */\n      0x40\n        /* \"#utility.yul\":5199:5208   */\n      dup3\n        /* \"#utility.yul\":5195:5213   */\n      add\n        /* \"#utility.yul\":5187:5213   */\n      swap1\n      pop\n        /* \"#utility.yul\":5223:5294   */\n      tag_174\n        /* \"#utility.yul\":5291:5292   */\n      0x00\n        /* \"#utility.yul\":5280:5289   */\n      dup4\n        /* \"#utility.yul\":5276:5293   */\n      add\n        /* \"#utility.yul\":5267:5273   */\n      dup6\n        /* \"#utility.yul\":5223:5294   */\n      tag_95\n      jump\t// in\n    tag_174:\n        /* \"#utility.yul\":5304:5376   */\n      tag_175\n        /* \"#utility.yul\":5372:5374   */\n      0x20\n        /* \"#utility.yul\":5361:5370   */\n      dup4\n        /* \"#utility.yul\":5357:5375   */\n      add\n        /* \"#utility.yul\":5348:5354   */\n      dup5\n        /* \"#utility.yul\":5304:5376   */\n      tag_95\n      jump\t// in\n    tag_175:\n        /* \"#utility.yul\":5051:5383   */\n      swap4\n      swap3\n      pop\n      pop\n      pop\n      jump\t// out\n        /* \"#utility.yul\":5389:5563   */\n    tag_114:\n        /* \"#utility.yul\":5529:5555   */\n      0x496e73756666696369656e745661756c7442616c616e63650000000000000000\n        /* \"#utility.yul\":5525:5526   */\n      0x00\n        /* \"#utility.yul\":5517:5523   */\n      dup3\n        /* \"#utility.yul\":5513:5527   */\n      add\n        /* \"#utility.yul\":5506:5556   */\n      mstore\n        /* \"#utility.yul\":5389:5563   */\n      pop\n      jump\t// out\n        /* \"#utility.yul\":5569:5935   */\n    tag_115:\n        /* \"#utility.yul\":5711:5714   */\n      0x00\n        /* \"#utility.yul\":5732:5799   */\n      tag_178\n        /* \"#utility.yul\":5796:5798   */\n      0x18\n        /* \"#utility.yul\":5791:5794   */\n      dup4\n        /* \"#utility.yul\":5732:5799   */\n      tag_105\n      jump\t// in\n    tag_178:\n        /* \"#utility.yul\":5725:5799   */\n      swap2\n      pop\n        /* \"#utility.yul\":5808:5901   */\n      tag_179\n        /* \"#utility.yul\":5897:5900   */\n      dup3\n        /* \"#utility.yul\":5808:5901   */\n      tag_114\n      jump\t// in\n    tag_179:\n        /* \"#utility.yul\":5926:5928   */\n      0x20\n        /* \"#utility.yul\":5921:5924   */\n      dup3\n        /* \"#utility.yul\":5917:5929   */\n      add\n        /* \"#utility.yul\":5910:5929   */\n      swap1\n      pop\n        /* \"#utility.yul\":5569:5935   */\n      swap2\n      swap1\n      pop\n      jump\t// out\n        /* \"#utility.yul\":5941:6470   */\n    tag_62:\n        /* \"#utility.yul\":6135:6139   */\n      0x00\n        /* \"#utility.yul\":6173:6175   */\n      0x40\n        /* \"#utility.yul\":6162:6171   */\n      dup3\n        /* \"#utility.yul\":6158:6176   */\n      add\n        /* \"#utility.yul\":6150:6176   */\n      swap1\n      pop\n        /* \"#utility.yul\":6222:6231   */\n      dup2\n        /* \"#utility.yul\":6216:6220   */\n      dup2\n        /* \"#utility.yul\":6212:6232   */\n      sub\n        /* \"#utility.yul\":6208:6209   */\n      0x00\n        /* \"#utility.yul\":6197:6206   */\n      dup4\n        /* \"#utility.yul\":6193:6210   */\n      add\n        /* \"#utility.yul\":6186:6233   */\n      mstore\n        /* \"#utility.yul\":6250:6381   */\n      tag_181\n        /* \"#utility.yul\":6376:6380   */\n      dup2\n        /* \"#utility.yul\":6250:6381   */\n      tag_115\n      jump\t// in\n    tag_181:\n        /* \"#utility.yul\":6242:6381   */\n      swap1\n      pop\n        /* \"#utility.yul\":6391:6463   */\n      tag_182\n        /* \"#utility.yul\":6459:6461   */\n      0x20\n        /* \"#utility.yul\":6448:6457   */\n      dup4\n        /* \"#utility.yul\":6444:6462   */\n      add\n        /* \"#utility.yul\":6435:6441   */\n      dup5\n        /* \"#utility.yul\":6391:6463   */\n      tag_95\n      jump\t// in\n    tag_182:\n        /* \"#utility.yul\":5941:6470   */\n      swap3\n      swap2\n      pop\n      pop\n      jump\t// out\n        /* \"#utility.yul\":6476:6594   */\n    tag_116:\n        /* \"#utility.yul\":6563:6587   */\n      tag_184\n        /* \"#utility.yul\":6581:6586   */\n      dup2\n        /* \"#utility.yul\":6563:6587   */\n      tag_102\n      jump\t// in\n    tag_184:\n        /* \"#utility.yul\":6558:6561   */\n      dup3\n        /* \"#utility.yul\":6551:6588   */\n      mstore\n        /* \"#utility.yul\":6476:6594   */\n      pop\n      pop\n      jump\t// out\n        /* \"#utility.yul\":6600:7042   */\n    tag_64:\n        /* \"#utility.yul\":6749:6753   */\n      0x00\n        /* \"#utility.yul\":6787:6789   */\n      0x60\n        /* \"#utility.yul\":6776:6785   */\n      dup3\n        /* \"#utility.yul\":6772:6790   */\n      add\n        /* \"#utility.yul\":6764:6790   */\n      swap1\n      pop\n        /* \"#utility.yul\":6800:6871   */\n      tag_186\n        /* \"#utility.yul\":6868:6869   */\n      0x00\n        /* \"#utility.yul\":6857:6866   */\n      dup4\n        /* \"#utility.yul\":6853:6870   */\n      add\n        /* \"#utility.yul\":6844:6850   */\n      dup7\n        /* \"#utility.yul\":6800:6871   */\n      tag_116\n      jump\t// in\n    tag_186:\n        /* \"#utility.yul\":6881:6953   */\n      tag_187\n        /* \"#utility.yul\":6949:6951   */\n      0x20\n        /* \"#utility.yul\":6938:6947   */\n      dup4\n        /* \"#utility.yul\":6934:6952   */\n      add\n        /* \"#utility.yul\":6925:6931   */\n      dup6\n        /* \"#utility.yul\":6881:6953   */\n      tag_95\n      jump\t// in\n    tag_187:\n        /* \"#utility.yul\":6963:7035   */\n      tag_188\n        /* \"#utility.yul\":7031:7033   */\n      0x40\n        /* \"#utility.yul\":7020:7029   */\n      dup4\n        /* \"#utility.yul\":7016:7034   */\n      add\n        /* \"#utility.yul\":7007:7013   */\n      dup5\n        /* \"#utility.yul\":6963:7035   */\n      tag_95\n      jump\t// in\n    tag_188:\n        /* \"#utility.yul\":6600:7042   */\n      swap5\n      swap4\n      pop\n      pop\n      pop\n      pop\n      jump\t// out\n        /* \"#utility.yul\":7048:7490   */\n    tag_68:\n        /* \"#utility.yul\":7197:7201   */\n      0x00\n        /* \"#utility.yul\":7235:7237   */\n      0x60\n        /* \"#utility.yul\":7224:7233   */\n      dup3\n        /* \"#utility.yul\":7220:7238   */\n      add\n        /* \"#utility.yul\":7212:7238   */\n      swap1\n      pop\n        /* \"#utility.yul\":7248:7319   */\n      tag_190\n        /* \"#utility.yul\":7316:7317   */\n      0x00\n        /* \"#utility.yul\":7305:7314   */\n      dup4\n        /* \"#utility.yul\":7301:7318   */\n      add\n        /* \"#utility.yul\":7292:7298   */\n      dup7\n        /* \"#utility.yul\":7248:7319   */\n      tag_95\n      jump\t// in\n    tag_190:\n        /* \"#utility.yul\":7329:7401   */\n      tag_191\n        /* \"#utility.yul\":7397:7399   */\n      0x20\n        /* \"#utility.yul\":7386:7395   */\n      dup4\n        /* \"#utility.yul\":7382:7400   */\n      add\n        /* \"#utility.yul\":7373:7379   */\n      dup6\n        /* \"#utility.yul\":7329:7401   */\n      tag_95\n      jump\t// in\n    tag_191:\n        /* \"#utility.yul\":7411:7483   */\n      tag_192\n        /* \"#utility.yul\":7479:7481   */\n      0x40\n        /* \"#utility.yul\":7468:7477   */\n      dup4\n        /* \"#utility.yul\":7464:7482   */\n      add\n        /* \"#utility.yul\":7455:7461   */\n      dup5\n        /* \"#utility.yul\":7411:7483   */\n      tag_95\n      jump\t// in\n    tag_192:\n        /* \"#utility.yul\":7048:7490   */\n      swap5\n      swap4\n      pop\n      pop\n      pop\n      pop\n      jump\t// out\n        /* \"#utility.yul\":7496:7676   */\n    tag_117:\n        /* \"#utility.yul\":7544:7621   */\n      0x4e487b7100000000000000000000000000000000000000000000000000000000\n        /* \"#utility.yul\":7541:7542   */\n      0x00\n        /* \"#utility.yul\":7534:7622   */\n      mstore\n        /* \"#utility.yul\":7641:7645   */\n      0x11\n        /* \"#utility.yul\":7638:7639   */\n      0x04\n        /* \"#utility.yul\":7631:7646   */\n      mstore\n        /* \"#utility.yul\":7665:7669   */\n      0x24\n        /* \"#utility.yul\":7662:7663   */\n      0x00\n        /* \"#utility.yul\":7655:7670   */\n      revert\n        /* \"#utility.yul\":7682:7873   */\n    tag_71:\n        /* \"#utility.yul\":7722:7725   */\n      0x00\n        /* \"#utility.yul\":7741:7761   */\n      tag_195\n        /* \"#utility.yul\":7759:7760   */\n      dup3\n        /* \"#utility.yul\":7741:7761   */\n      tag_94\n      jump\t// in\n    tag_195:\n        /* \"#utility.yul\":7736:7761   */\n      swap2\n      pop\n        /* \"#utility.yul\":7775:7795   */\n      tag_196\n        /* \"#utility.yul\":7793:7794   */\n      dup4\n        /* \"#utility.yul\":7775:7795   */\n      tag_94\n      jump\t// in\n    tag_196:\n        /* \"#utility.yul\":7770:7795   */\n      swap3\n      pop\n        /* \"#utility.yul\":7818:7819   */\n      dup3\n        /* \"#utility.yul\":7815:7816   */\n      dup3\n        /* \"#utility.yul\":7811:7820   */\n      add\n        /* \"#utility.yul\":7804:7820   */\n      swap1\n      pop\n        /* \"#utility.yul\":7839:7842   */\n      dup1\n        /* \"#utility.yul\":7836:7837   */\n      dup3\n        /* \"#utility.yul\":7833:7843   */\n      gt\n        /* \"#utility.yul\":7830:7866   */\n      iszero\n      tag_197\n      jumpi\n        /* \"#utility.yul\":7846:7864   */\n      tag_198\n      tag_117\n      jump\t// in\n    tag_198:\n        /* \"#utility.yul\":7830:7866   */\n    tag_197:\n        /* \"#utility.yul\":7682:7873   */\n      swap3\n      swap2\n      pop\n      pop\n      jump\t// out\n        /* \"#utility.yul\":7879:8043   */\n    tag_118:\n        /* \"#utility.yul\":8019:8035   */\n      0x4578636565647342616e6b436170000000000000000000000000000000000000\n        /* \"#utility.yul\":8015:8016   */\n      0x00\n        /* \"#utility.yul\":8007:8013   */\n      dup3\n        /* \"#utility.yul\":8003:8017   */\n      add\n        /* \"#utility.yul\":7996:8036   */\n      mstore\n        /* \"#utility.yul\":7879:8043   */\n      pop\n      jump\t// out\n        /* \"#utility.yul\":8049:8415   */\n    tag_119:\n        /* \"#utility.yul\":8191:8194   */\n      0x00\n        /* \"#utility.yul\":8212:8279   */\n      tag_201\n        /* \"#utility.yul\":8276:8278   */\n      0x0e\n        /* \"#utility.yul\":8271:8274   */\n      dup4\n        /* \"#utility.yul\":8212:8279   */\n      tag_105\n      jump\t// in\n    tag_201:\n        /* \"#utility.yul\":8205:8279   */\n      swap2\n      pop\n        /* \"#utility.yul\":8288:8381   */\n      tag_202\n        /* \"#utility.yul\":8377:8380   */\n      dup3\n        /* \"#utility.yul\":8288:8381   */\n      tag_118\n      jump\t// in\n    tag_202:\n        /* \"#utility.yul\":8406:8408   */\n      0x20\n        /* \"#utility.yul\":8401:8404   */\n      dup3\n        /* \"#utility.yul\":8397:8409   */\n      add\n        /* \"#utility.yul\":8390:8409   */\n      swap1\n      pop\n        /* \"#utility.yul\":8049:8415   */\n      swap2\n      swap1\n      pop\n      jump\t// out\n        /* \"#utility.yul\":8421:8950   */\n    tag_74:\n        /* \"#utility.yul\":8615:8619   */\n      0x00\n        /* \"#utility.yul\":8653:8655   */\n      0x40\n        /* \"#utility.yul\":8642:8651   */\n      dup3\n        /* \"#utility.yul\":8638:8656   */\n      add\n        /* \"#utility.yul\":8630:8656   */\n      swap1\n      pop\n        /* \"#utility.yul\":8702:8711   */\n      dup2\n        /* \"#utility.yul\":8696:8700   */\n      dup2\n        /* \"#utility.yul\":8692:8712   */\n      sub\n        /* \"#utility.yul\":8688:8689   */\n      0x00\n        /* \"#utility.yul\":8677:8686   */\n      dup4\n        /* \"#utility.yul\":8673:8690   */\n      add\n        /* \"#utility.yul\":8666:8713   */\n      mstore\n        /* \"#utility.yul\":8730:8861   */\n      tag_204\n        /* \"#utility.yul\":8856:8860   */\n      dup2\n        /* \"#utility.yul\":8730:8861   */\n      tag_119\n      jump\t// in\n    tag_204:\n        /* \"#utility.yul\":8722:8861   */\n      swap1\n      pop\n        /* \"#utility.yul\":8871:8943   */\n      tag_205\n        /* \"#utility.yul\":8939:8941   */\n      0x20\n        /* \"#utility.yul\":8928:8937   */\n      dup4\n        /* \"#utility.yul\":8924:8942   */\n      add\n        /* \"#utility.yul\":8915:8921   */\n      dup5\n        /* \"#utility.yul\":8871:8943   */\n      tag_95\n      jump\t// in\n    tag_205:\n        /* \"#utility.yul\":8421:8950   */\n      swap3\n      swap2\n      pop\n      pop\n      jump\t// out\n        /* \"#utility.yul\":8956:9150   */\n    tag_76:\n        /* \"#utility.yul\":8996:9000   */\n      0x00\n        /* \"#utility.yul\":9016:9036   */\n      tag_207\n        /* \"#utility.yul\":9034:9035   */\n      dup3\n        /* \"#utility.yul\":9016:9036   */\n      tag_94\n      jump\t// in\n    tag_207:\n        /* \"#utility.yul\":9011:9036   */\n      swap2\n      pop\n        /* \"#utility.yul\":9050:9070   */\n      tag_208\n        /* \"#utility.yul\":9068:9069   */\n      dup4\n        /* \"#utility.yul\":9050:9070   */\n      tag_94\n      jump\t// in\n    tag_208:\n        /* \"#utility.yul\":9045:9070   */\n      swap3\n      pop\n        /* \"#utility.yul\":9094:9095   */\n      dup3\n        /* \"#utility.yul\":9091:9092   */\n      dup3\n        /* \"#utility.yul\":9087:9096   */\n      sub\n        /* \"#utility.yul\":9079:9096   */\n      swap1\n      pop\n        /* \"#utility.yul\":9118:9119   */\n      dup2\n        /* \"#utility.yul\":9112:9116   */\n      dup2\n        /* \"#utility.yul\":9109:9120   */\n      gt\n        /* \"#utility.yul\":9106:9143   */\n      iszero\n      tag_209\n      jumpi\n        /* \"#utility.yul\":9123:9141   */\n      tag_210\n      tag_117\n      jump\t// in\n    tag_210:\n        /* \"#utility.yul\":9106:9143   */\n    tag_209:\n        /* \"#utility.yul\":8956:9150   */\n      swap3\n      swap2\n      pop\n      pop\n      jump\t// out\n        /* \"#utility.yul\":9156:9389   */\n    tag_89:\n        /* \"#utility.yul\":9195:9198   */\n      0x00\n        /* \"#utility.yul\":9218:9242   */\n      tag_212\n        /* \"#utility.yul\":9236:9241   */\n      dup3\n        /* \"#utility.yul\":9218:9242   */\n      tag_94\n      jump\t// in\n    tag_212:\n        /* \"#utility.yul\":9209:9242   */\n      swap2\n      pop\n        /* \"#utility.yul\":9264:9330   */\n      0xffffffffffffffffffffffffffffffffffffffffffffffffffffffffffffffff\n        /* \"#utility.yul\":9257:9262   */\n      dup3\n        /* \"#utility.yul\":9254:9331   */\n      sub\n        /* \"#utility.yul\":9251:9354   */\n      tag_213\n      jumpi\n        /* \"#utility.yul\":9334:9352   */\n      tag_214\n      tag_117\n      jump\t// in\n    tag_214:\n        /* \"#utility.yul\":9251:9354   */\n    tag_213:\n        /* \"#utility.yul\":9381:9382   */\n      0x01\n        /* \"#utility.yul\":9374:9379   */\n      dup3\n        /* \"#utility.yul\":9370:9383   */\n      add\n        /* \"#utility.yul\":9363:9383   */\n      swap1\n      pop\n        /* \"#utility.yul\":9156:9389   */\n      swap2\n      swap1\n      pop\n      jump\t// out\n\n    auxdata: 0xa26469706673582212202561538534b615d648303e9ba4e4b8ea48e5e27b8f0d235730a9451097a0312a64736f6c634300081e0033\n}\n",
				"bytecode": {
					"linkReferences": {},
					"object": "60c060405234801561000f575f5ffd5b50604051610f40380380610f40833981810160405281019061003191906100fd565b5f82148061003e57505f81145b15610075576040517f0f43956a00000000000000000000000000000000000000000000000000000000815260040160405180910390fd5b808210156100af576040517faabd5a0900000000000000000000000000000000000000000000000000000000815260040160405180910390fd5b81608081815250508060a08181525050505061013b565b5f5ffd5b5f819050919050565b6100dc816100ca565b81146100e6575f5ffd5b50565b5f815190506100f7816100d3565b92915050565b5f5f60408385031215610113576101126100c6565b5b5f610120858286016100e9565b9250506020610131858286016100e9565b9150509250929050565b60805160a051610dc86101785f395f81816102940152818161030b015261051701525f818161055c015281816105e101526107b30152610dc85ff3fe608060405260043610610085575f3560e01c80637d882097116100585780637d8820971461012f578063a622ee7c14610159578063d0e30db014610195578063d3d7c0021461019f578063ecbea24d146101db57610085565b80632dfdf0b5146100895780632e1a7d4d146100b357806336b96be4146100db57806371706cbe14610105575b5f5ffd5b348015610094575f5ffd5b5061009d610205565b6040516100aa91906108f7565b60405180910390f35b3480156100be575f5ffd5b506100d960048036038101906100d4919061093e565b61020b565b005b3480156100e6575f5ffd5b506100ef610515565b6040516100fc91906108f7565b60405180910390f35b348015610110575f5ffd5b50610119610539565b60405161012691906108f7565b60405180910390f35b34801561013a575f5ffd5b5061014361053f565b60405161015091906108f7565b60405180910390f35b348015610164575f5ffd5b5061017f600480360381019061017a91906109c3565b610544565b60405161018c91906108f7565b60405180910390f35b61019d610559565b005b3480156101aa575f5ffd5b506101c560048036038101906101c091906109c3565b61076b565b6040516101d291906108f7565b60405180910390f35b3480156101e6575f5ffd5b506101ef6107b1565b6040516101fc91906108f7565b60405180910390f35b60015481565b5f8103610292573373ffffffffffffffffffffffffffffffffffffffff167ff541119c517482637f4067c28782ab86181c836aac97d5b2a8d752d1478338495f6040516102589190610a8a565b60405180910390a26040517f0f43956a00000000000000000000000000000000000000000000000000000000815260040160405180910390fd5b7f0000000000000000000000000000000000000000000000000000000000000000811115610367573373ffffffffffffffffffffffffffffffffffffffff167ff541119c517482637f4067c28782ab86181c836aac97d5b2a8d752d147833849826040516103009190610b00565b60405180910390a2807f00000000000000000000000000000000000000000000000000000000000000006040517f8e85bd5200000000000000000000000000000000000000000000000000000000815260040161035e929190610b2c565b60405180910390fd5b60035f3373ffffffffffffffffffffffffffffffffffffffff1673ffffffffffffffffffffffffffffffffffffffff1681526020019081526020015f2054811115610478573373ffffffffffffffffffffffffffffffffffffffff167ff541119c517482637f4067c28782ab86181c836aac97d5b2a8d752d147833849826040516103f29190610b9d565b60405180910390a2338160035f3373ffffffffffffffffffffffffffffffffffffffff1673ffffffffffffffffffffffffffffffffffffffff1681526020019081526020015f20546040517fa343d5e000000000000000000000000000000000000000000000000000000000815260040161046f93929190610bd8565b60405180910390fd5b61048233826107d5565b3373ffffffffffffffffffffffffffffffffffffffff167f9d13af23e9b71c27cef477f3213bb1a65c3d5bd1d262f06467d60b45ca285be98260035f3373ffffffffffffffffffffffffffffffffffffffff1673ffffffffffffffffffffffffffffffffffffffff1681526020019081526020015f20545f5460405161050a93929190610c0d565b60405180910390a250565b7f000000000000000000000000000000000000000000000000000000000000000081565b60025481565b5f5481565b6003602052805f5260405f205f915090505481565b347f0000000000000000000000000000000000000000000000000000000000000000815f546105889190610c6f565b1115610647573373ffffffffffffffffffffffffffffffffffffffff167f960c69db83012c2b65607b4050faea44e588af0eba0b5f3b610adb9669cca67b826040516105d49190610cec565b60405180910390a2805f547f000000000000000000000000000000000000000000000000000000000000000061060a9190610d18565b6040517f4274ef7700000000000000000000000000000000000000000000000000000000815260040161063e929190610b2c565b60405180910390fd5b5f34036106ce573373ffffffffffffffffffffffffffffffffffffffff167f960c69db83012c2b65607b4050faea44e588af0eba0b5f3b610adb9669cca67b5f6040516106949190610a8a565b60405180910390a26040517f0f43956a00000000000000000000000000000000000000000000000000000000815260040160405180910390fd5b6106d8333461085a565b3373ffffffffffffffffffffffffffffffffffffffff167fbadf6a9cbb8d928fcfb4c613af1104439f4b4e9822469b18502ac2662f4e6c803460035f3373ffffffffffffffffffffffffffffffffffffffff1673ffffffffffffffffffffffffffffffffffffffff1681526020019081526020015f20545f5460405161076093929190610c0d565b60405180910390a250565b5f60035f8373ffffffffffffffffffffffffffffffffffffffff1673ffffffffffffffffffffffffffffffffffffffff1681526020019081526020015f20549050919050565b7f000000000000000000000000000000000000000000000000000000000000000081565b8060035f8473ffffffffffffffffffffffffffffffffffffffff1673ffffffffffffffffffffffffffffffffffffffff1681526020019081526020015f205f8282546108219190610d18565b92505081905550805f5f8282546108389190610d18565b9250508190555060025f81548092919061085190610d4b565b91905055505050565b8060035f8473ffffffffffffffffffffffffffffffffffffffff1673ffffffffffffffffffffffffffffffffffffffff1681526020019081526020015f205f8282546108a69190610c6f565b92505081905550805f5f8282546108bd9190610c6f565b9250508190555060015f8154809291906108d690610d4b565b91905055505050565b5f819050919050565b6108f1816108df565b82525050565b5f60208201905061090a5f8301846108e8565b92915050565b5f5ffd5b61091d816108df565b8114610927575f5ffd5b50565b5f8135905061093881610914565b92915050565b5f6020828403121561095357610952610910565b5b5f6109608482850161092a565b91505092915050565b5f73ffffffffffffffffffffffffffffffffffffffff82169050919050565b5f61099282610969565b9050919050565b6109a281610988565b81146109ac575f5ffd5b50565b5f813590506109bd81610999565b92915050565b5f602082840312156109d8576109d7610910565b5b5f6109e5848285016109af565b91505092915050565b5f82825260208201905092915050565b7f5a65726f416d6f756e744e6f74416c6c000000000000000000000000000000005f82015250565b5f610a326010836109ee565b9150610a3d826109fe565b602082019050919050565b5f819050919050565b5f819050919050565b5f610a74610a6f610a6a84610a48565b610a51565b6108df565b9050919050565b610a8481610a5a565b82525050565b5f6040820190508181035f830152610aa181610a26565b9050610ab06020830184610a7b565b92915050565b7f4578636565647357697468647261776c5468726573686f6c64000000000000005f82015250565b5f610aea6019836109ee565b9150610af582610ab6565b602082019050919050565b5f6040820190508181035f830152610b1781610ade565b9050610b2660208301846108e8565b92915050565b5f604082019050610b3f5f8301856108e8565b610b4c60208301846108e8565b9392505050565b7f496e73756666696369656e745661756c7442616c616e636500000000000000005f82015250565b5f610b876018836109ee565b9150610b9282610b53565b602082019050919050565b5f6040820190508181035f830152610bb481610b7b565b9050610bc360208301846108e8565b92915050565b610bd281610988565b82525050565b5f606082019050610beb5f830186610bc9565b610bf860208301856108e8565b610c0560408301846108e8565b949350505050565b5f606082019050610c205f8301866108e8565b610c2d60208301856108e8565b610c3a60408301846108e8565b949350505050565b7f4e487b71000000000000000000000000000000000000000000000000000000005f52601160045260245ffd5b5f610c79826108df565b9150610c84836108df565b9250828201905080821115610c9c57610c9b610c42565b5b92915050565b7f4578636565647342616e6b4361700000000000000000000000000000000000005f82015250565b5f610cd6600e836109ee565b9150610ce182610ca2565b602082019050919050565b5f6040820190508181035f830152610d0381610cca565b9050610d1260208301846108e8565b92915050565b5f610d22826108df565b9150610d2d836108df565b9250828203905081811115610d4557610d44610c42565b5b92915050565b5f610d55826108df565b91507fffffffffffffffffffffffffffffffffffffffffffffffffffffffffffffffff8203610d8757610d86610c42565b5b60018201905091905056fea26469706673582212202561538534b615d648303e9ba4e4b8ea48e5e27b8f0d235730a9451097a0312a64736f6c634300081e0033",
					"opcodes": "PUSH1 0xC0 PUSH1 0x40 MSTORE CALLVALUE DUP1 ISZERO PUSH2 0xF JUMPI PUSH0 PUSH0 REVERT JUMPDEST POP PUSH1 0x40 MLOAD PUSH2 0xF40 CODESIZE SUB DUP1 PUSH2 0xF40 DUP4 CODECOPY DUP2 DUP2 ADD PUSH1 0x40 MSTORE DUP2 ADD SWAP1 PUSH2 0x31 SWAP2 SWAP1 PUSH2 0xFD JUMP JUMPDEST PUSH0 DUP3 EQ DUP1 PUSH2 0x3E JUMPI POP PUSH0 DUP2 EQ JUMPDEST ISZERO PUSH2 0x75 JUMPI PUSH1 0x40 MLOAD PUSH32 0xF43956A00000000000000000000000000000000000000000000000000000000 DUP2 MSTORE PUSH1 0x4 ADD PUSH1 0x40 MLOAD DUP1 SWAP2 SUB SWAP1 REVERT JUMPDEST DUP1 DUP3 LT ISZERO PUSH2 0xAF JUMPI PUSH1 0x40 MLOAD PUSH32 0xAABD5A0900000000000000000000000000000000000000000000000000000000 DUP2 MSTORE PUSH1 0x4 ADD PUSH1 0x40 MLOAD DUP1 SWAP2 SUB SWAP1 REVERT JUMPDEST DUP2 PUSH1 0x80 DUP2 DUP2 MSTORE POP POP DUP1 PUSH1 0xA0 DUP2 DUP2 MSTORE POP POP POP POP PUSH2 0x13B JUMP JUMPDEST PUSH0 PUSH0 REVERT JUMPDEST PUSH0 DUP2 SWAP1 POP SWAP2 SWAP1 POP JUMP JUMPDEST PUSH2 0xDC DUP2 PUSH2 0xCA JUMP JUMPDEST DUP2 EQ PUSH2 0xE6 JUMPI PUSH0 PUSH0 REVERT JUMPDEST POP JUMP JUMPDEST PUSH0 DUP2 MLOAD SWAP1 POP PUSH2 0xF7 DUP2 PUSH2 0xD3 JUMP JUMPDEST SWAP3 SWAP2 POP POP JUMP JUMPDEST PUSH0 PUSH0 PUSH1 0x40 DUP4 DUP6 SUB SLT ISZERO PUSH2 0x113 JUMPI PUSH2 0x112 PUSH2 0xC6 JUMP JUMPDEST JUMPDEST PUSH0 PUSH2 0x120 DUP6 DUP3 DUP7 ADD PUSH2 0xE9 JUMP JUMPDEST SWAP3 POP POP PUSH1 0x20 PUSH2 0x131 DUP6 DUP3 DUP7 ADD PUSH2 0xE9 JUMP JUMPDEST SWAP2 POP POP SWAP3 POP SWAP3 SWAP1 POP JUMP JUMPDEST PUSH1 0x80 MLOAD PUSH1 0xA0 MLOAD PUSH2 0xDC8 PUSH2 0x178 PUSH0 CODECOPY PUSH0 DUP2 DUP2 PUSH2 0x294 ADD MSTORE DUP2 DUP2 PUSH2 0x30B ADD MSTORE PUSH2 0x517 ADD MSTORE PUSH0 DUP2 DUP2 PUSH2 0x55C ADD MSTORE DUP2 DUP2 PUSH2 0x5E1 ADD MSTORE PUSH2 0x7B3 ADD MSTORE PUSH2 0xDC8 PUSH0 RETURN INVALID PUSH1 0x80 PUSH1 0x40 MSTORE PUSH1 0x4 CALLDATASIZE LT PUSH2 0x85 JUMPI PUSH0 CALLDATALOAD PUSH1 0xE0 SHR DUP1 PUSH4 0x7D882097 GT PUSH2 0x58 JUMPI DUP1 PUSH4 0x7D882097 EQ PUSH2 0x12F JUMPI DUP1 PUSH4 0xA622EE7C EQ PUSH2 0x159 JUMPI DUP1 PUSH4 0xD0E30DB0 EQ PUSH2 0x195 JUMPI DUP1 PUSH4 0xD3D7C002 EQ PUSH2 0x19F JUMPI DUP1 PUSH4 0xECBEA24D EQ PUSH2 0x1DB JUMPI PUSH2 0x85 JUMP JUMPDEST DUP1 PUSH4 0x2DFDF0B5 EQ PUSH2 0x89 JUMPI DUP1 PUSH4 0x2E1A7D4D EQ PUSH2 0xB3 JUMPI DUP1 PUSH4 0x36B96BE4 EQ PUSH2 0xDB JUMPI DUP1 PUSH4 0x71706CBE EQ PUSH2 0x105 JUMPI JUMPDEST PUSH0 PUSH0 REVERT JUMPDEST CALLVALUE DUP1 ISZERO PUSH2 0x94 JUMPI PUSH0 PUSH0 REVERT JUMPDEST POP PUSH2 0x9D PUSH2 0x205 JUMP JUMPDEST PUSH1 0x40 MLOAD PUSH2 0xAA SWAP2 SWAP1 PUSH2 0x8F7 JUMP JUMPDEST PUSH1 0x40 MLOAD DUP1 SWAP2 SUB SWAP1 RETURN JUMPDEST CALLVALUE DUP1 ISZERO PUSH2 0xBE JUMPI PUSH0 PUSH0 REVERT JUMPDEST POP PUSH2 0xD9 PUSH1 0x4 DUP1 CALLDATASIZE SUB DUP2 ADD SWAP1 PUSH2 0xD4 SWAP2 SWAP1 PUSH2 0x93E JUMP JUMPDEST PUSH2 0x20B JUMP JUMPDEST STOP JUMPDEST CALLVALUE DUP1 ISZERO PUSH2 0xE6 JUMPI PUSH0 PUSH0 REVERT JUMPDEST POP PUSH2 0xEF PUSH2 0x515 JUMP JUMPDEST PUSH1 0x40 MLOAD PUSH2 0xFC SWAP2 SWAP1 PUSH2 0x8F7 JUMP JUMPDEST PUSH1 0x40 MLOAD DUP1 SWAP2 SUB SWAP1 RETURN JUMPDEST CALLVALUE DUP1 ISZERO PUSH2 0x110 JUMPI PUSH0 PUSH0 REVERT JUMPDEST POP PUSH2 0x119 PUSH2 0x539 JUMP JUMPDEST PUSH1 0x40 MLOAD PUSH2 0x126 SWAP2 SWAP1 PUSH2 0x8F7 JUMP JUMPDEST PUSH1 0x40 MLOAD DUP1 SWAP2 SUB SWAP1 RETURN JUMPDEST CALLVALUE DUP1 ISZERO PUSH2 0x13A JUMPI PUSH0 PUSH0 REVERT JUMPDEST POP PUSH2 0x143 PUSH2 0x53F JUMP JUMPDEST PUSH1 0x40 MLOAD PUSH2 0x150 SWAP2 SWAP1 PUSH2 0x8F7 JUMP JUMPDEST PUSH1 0x40 MLOAD DUP1 SWAP2 SUB SWAP1 RETURN JUMPDEST CALLVALUE DUP1 ISZERO PUSH2 0x164 JUMPI PUSH0 PUSH0 REVERT JUMPDEST POP PUSH2 0x17F PUSH1 0x4 DUP1 CALLDATASIZE SUB DUP2 ADD SWAP1 PUSH2 0x17A SWAP2 SWAP1 PUSH2 0x9C3 JUMP JUMPDEST PUSH2 0x544 JUMP JUMPDEST PUSH1 0x40 MLOAD PUSH2 0x18C SWAP2 SWAP1 PUSH2 0x8F7 JUMP JUMPDEST PUSH1 0x40 MLOAD DUP1 SWAP2 SUB SWAP1 RETURN JUMPDEST PUSH2 0x19D PUSH2 0x559 JUMP JUMPDEST STOP JUMPDEST CALLVALUE DUP1 ISZERO PUSH2 0x1AA JUMPI PUSH0 PUSH0 REVERT JUMPDEST POP PUSH2 0x1C5 PUSH1 0x4 DUP1 CALLDATASIZE SUB DUP2 ADD SWAP1 PUSH2 0x1C0 SWAP2 SWAP1 PUSH2 0x9C3 JUMP JUMPDEST PUSH2 0x76B JUMP JUMPDEST PUSH1 0x40 MLOAD PUSH2 0x1D2 SWAP2 SWAP1 PUSH2 0x8F7 JUMP JUMPDEST PUSH1 0x40 MLOAD DUP1 SWAP2 SUB SWAP1 RETURN JUMPDEST CALLVALUE DUP1 ISZERO PUSH2 0x1E6 JUMPI PUSH0 PUSH0 REVERT JUMPDEST POP PUSH2 0x1EF PUSH2 0x7B1 JUMP JUMPDEST PUSH1 0x40 MLOAD PUSH2 0x1FC SWAP2 SWAP1 PUSH2 0x8F7 JUMP JUMPDEST PUSH1 0x40 MLOAD DUP1 SWAP2 SUB SWAP1 RETURN JUMPDEST PUSH1 0x1 SLOAD DUP2 JUMP JUMPDEST PUSH0 DUP2 SUB PUSH2 0x292 JUMPI CALLER PUSH20 0xFFFFFFFFFFFFFFFFFFFFFFFFFFFFFFFFFFFFFFFF AND PUSH32 0xF541119C517482637F4067C28782AB86181C836AAC97D5B2A8D752D147833849 PUSH0 PUSH1 0x40 MLOAD PUSH2 0x258 SWAP2 SWAP1 PUSH2 0xA8A JUMP JUMPDEST PUSH1 0x40 MLOAD DUP1 SWAP2 SUB SWAP1 LOG2 PUSH1 0x40 MLOAD PUSH32 0xF43956A00000000000000000000000000000000000000000000000000000000 DUP2 MSTORE PUSH1 0x4 ADD PUSH1 0x40 MLOAD DUP1 SWAP2 SUB SWAP1 REVERT JUMPDEST PUSH32 0x0 DUP2 GT ISZERO PUSH2 0x367 JUMPI CALLER PUSH20 0xFFFFFFFFFFFFFFFFFFFFFFFFFFFFFFFFFFFFFFFF AND PUSH32 0xF541119C517482637F4067C28782AB86181C836AAC97D5B2A8D752D147833849 DUP3 PUSH1 0x40 MLOAD PUSH2 0x300 SWAP2 SWAP1 PUSH2 0xB00 JUMP JUMPDEST PUSH1 0x40 MLOAD DUP1 SWAP2 SUB SWAP1 LOG2 DUP1 PUSH32 0x0 PUSH1 0x40 MLOAD PUSH32 0x8E85BD5200000000000000000000000000000000000000000000000000000000 DUP2 MSTORE PUSH1 0x4 ADD PUSH2 0x35E SWAP3 SWAP2 SWAP1 PUSH2 0xB2C JUMP JUMPDEST PUSH1 0x40 MLOAD DUP1 SWAP2 SUB SWAP1 REVERT JUMPDEST PUSH1 0x3 PUSH0 CALLER PUSH20 0xFFFFFFFFFFFFFFFFFFFFFFFFFFFFFFFFFFFFFFFF AND PUSH20 0xFFFFFFFFFFFFFFFFFFFFFFFFFFFFFFFFFFFFFFFF AND DUP2 MSTORE PUSH1 0x20 ADD SWAP1 DUP2 MSTORE PUSH1 0x20 ADD PUSH0 KECCAK256 SLOAD DUP2 GT ISZERO PUSH2 0x478 JUMPI CALLER PUSH20 0xFFFFFFFFFFFFFFFFFFFFFFFFFFFFFFFFFFFFFFFF AND PUSH32 0xF541119C517482637F4067C28782AB86181C836AAC97D5B2A8D752D147833849 DUP3 PUSH1 0x40 MLOAD PUSH2 0x3F2 SWAP2 SWAP1 PUSH2 0xB9D JUMP JUMPDEST PUSH1 0x40 MLOAD DUP1 SWAP2 SUB SWAP1 LOG2 CALLER DUP2 PUSH1 0x3 PUSH0 CALLER PUSH20 0xFFFFFFFFFFFFFFFFFFFFFFFFFFFFFFFFFFFFFFFF AND PUSH20 0xFFFFFFFFFFFFFFFFFFFFFFFFFFFFFFFFFFFFFFFF AND DUP2 MSTORE PUSH1 0x20 ADD SWAP1 DUP2 MSTORE PUSH1 0x20 ADD PUSH0 KECCAK256 SLOAD PUSH1 0x40 MLOAD PUSH32 0xA343D5E000000000000000000000000000000000000000000000000000000000 DUP2 MSTORE PUSH1 0x4 ADD PUSH2 0x46F SWAP4 SWAP3 SWAP2 SWAP1 PUSH2 0xBD8 JUMP JUMPDEST PUSH1 0x40 MLOAD DUP1 SWAP2 SUB SWAP1 REVERT JUMPDEST PUSH2 0x482 CALLER DUP3 PUSH2 0x7D5 JUMP JUMPDEST CALLER PUSH20 0xFFFFFFFFFFFFFFFFFFFFFFFFFFFFFFFFFFFFFFFF AND PUSH32 0x9D13AF23E9B71C27CEF477F3213BB1A65C3D5BD1D262F06467D60B45CA285BE9 DUP3 PUSH1 0x3 PUSH0 CALLER PUSH20 0xFFFFFFFFFFFFFFFFFFFFFFFFFFFFFFFFFFFFFFFF AND PUSH20 0xFFFFFFFFFFFFFFFFFFFFFFFFFFFFFFFFFFFFFFFF AND DUP2 MSTORE PUSH1 0x20 ADD SWAP1 DUP2 MSTORE PUSH1 0x20 ADD PUSH0 KECCAK256 SLOAD PUSH0 SLOAD PUSH1 0x40 MLOAD PUSH2 0x50A SWAP4 SWAP3 SWAP2 SWAP1 PUSH2 0xC0D JUMP JUMPDEST PUSH1 0x40 MLOAD DUP1 SWAP2 SUB SWAP1 LOG2 POP JUMP JUMPDEST PUSH32 0x0 DUP2 JUMP JUMPDEST PUSH1 0x2 SLOAD DUP2 JUMP JUMPDEST PUSH0 SLOAD DUP2 JUMP JUMPDEST PUSH1 0x3 PUSH1 0x20 MSTORE DUP1 PUSH0 MSTORE PUSH1 0x40 PUSH0 KECCAK256 PUSH0 SWAP2 POP SWAP1 POP SLOAD DUP2 JUMP JUMPDEST CALLVALUE PUSH32 0x0 DUP2 PUSH0 SLOAD PUSH2 0x588 SWAP2 SWAP1 PUSH2 0xC6F JUMP JUMPDEST GT ISZERO PUSH2 0x647 JUMPI CALLER PUSH20 0xFFFFFFFFFFFFFFFFFFFFFFFFFFFFFFFFFFFFFFFF AND PUSH32 0x960C69DB83012C2B65607B4050FAEA44E588AF0EBA0B5F3B610ADB9669CCA67B DUP3 PUSH1 0x40 MLOAD PUSH2 0x5D4 SWAP2 SWAP1 PUSH2 0xCEC JUMP JUMPDEST PUSH1 0x40 MLOAD DUP1 SWAP2 SUB SWAP1 LOG2 DUP1 PUSH0 SLOAD PUSH32 0x0 PUSH2 0x60A SWAP2 SWAP1 PUSH2 0xD18 JUMP JUMPDEST PUSH1 0x40 MLOAD PUSH32 0x4274EF7700000000000000000000000000000000000000000000000000000000 DUP2 MSTORE PUSH1 0x4 ADD PUSH2 0x63E SWAP3 SWAP2 SWAP1 PUSH2 0xB2C JUMP JUMPDEST PUSH1 0x40 MLOAD DUP1 SWAP2 SUB SWAP1 REVERT JUMPDEST PUSH0 CALLVALUE SUB PUSH2 0x6CE JUMPI CALLER PUSH20 0xFFFFFFFFFFFFFFFFFFFFFFFFFFFFFFFFFFFFFFFF AND PUSH32 0x960C69DB83012C2B65607B4050FAEA44E588AF0EBA0B5F3B610ADB9669CCA67B PUSH0 PUSH1 0x40 MLOAD PUSH2 0x694 SWAP2 SWAP1 PUSH2 0xA8A JUMP JUMPDEST PUSH1 0x40 MLOAD DUP1 SWAP2 SUB SWAP1 LOG2 PUSH1 0x40 MLOAD PUSH32 0xF43956A00000000000000000000000000000000000000000000000000000000 DUP2 MSTORE PUSH1 0x4 ADD PUSH1 0x40 MLOAD DUP1 SWAP2 SUB SWAP1 REVERT JUMPDEST PUSH2 0x6D8 CALLER CALLVALUE PUSH2 0x85A JUMP JUMPDEST CALLER PUSH20 0xFFFFFFFFFFFFFFFFFFFFFFFFFFFFFFFFFFFFFFFF AND PUSH32 0xBADF6A9CBB8D928FCFB4C613AF1104439F4B4E9822469B18502AC2662F4E6C80 CALLVALUE PUSH1 0x3 PUSH0 CALLER PUSH20 0xFFFFFFFFFFFFFFFFFFFFFFFFFFFFFFFFFFFFFFFF AND PUSH20 0xFFFFFFFFFFFFFFFFFFFFFFFFFFFFFFFFFFFFFFFF AND DUP2 MSTORE PUSH1 0x20 ADD SWAP1 DUP2 MSTORE PUSH1 0x20 ADD PUSH0 KECCAK256 SLOAD PUSH0 SLOAD PUSH1 0x40 MLOAD PUSH2 0x760 SWAP4 SWAP3 SWAP2 SWAP1 PUSH2 0xC0D JUMP JUMPDEST PUSH1 0x40 MLOAD DUP1 SWAP2 SUB SWAP1 LOG2 POP JUMP JUMPDEST PUSH0 PUSH1 0x3 PUSH0 DUP4 PUSH20 0xFFFFFFFFFFFFFFFFFFFFFFFFFFFFFFFFFFFFFFFF AND PUSH20 0xFFFFFFFFFFFFFFFFFFFFFFFFFFFFFFFFFFFFFFFF AND DUP2 MSTORE PUSH1 0x20 ADD SWAP1 DUP2 MSTORE PUSH1 0x20 ADD PUSH0 KECCAK256 SLOAD SWAP1 POP SWAP2 SWAP1 POP JUMP JUMPDEST PUSH32 0x0 DUP2 JUMP JUMPDEST DUP1 PUSH1 0x3 PUSH0 DUP5 PUSH20 0xFFFFFFFFFFFFFFFFFFFFFFFFFFFFFFFFFFFFFFFF AND PUSH20 0xFFFFFFFFFFFFFFFFFFFFFFFFFFFFFFFFFFFFFFFF AND DUP2 MSTORE PUSH1 0x20 ADD SWAP1 DUP2 MSTORE PUSH1 0x20 ADD PUSH0 KECCAK256 PUSH0 DUP3 DUP3 SLOAD PUSH2 0x821 SWAP2 SWAP1 PUSH2 0xD18 JUMP JUMPDEST SWAP3 POP POP DUP2 SWAP1 SSTORE POP DUP1 PUSH0 PUSH0 DUP3 DUP3 SLOAD PUSH2 0x838 SWAP2 SWAP1 PUSH2 0xD18 JUMP JUMPDEST SWAP3 POP POP DUP2 SWAP1 SSTORE POP PUSH1 0x2 PUSH0 DUP2 SLOAD DUP1 SWAP3 SWAP2 SWAP1 PUSH2 0x851 SWAP1 PUSH2 0xD4B JUMP JUMPDEST SWAP2 SWAP1 POP SSTORE POP POP POP JUMP JUMPDEST DUP1 PUSH1 0x3 PUSH0 DUP5 PUSH20 0xFFFFFFFFFFFFFFFFFFFFFFFFFFFFFFFFFFFFFFFF AND PUSH20 0xFFFFFFFFFFFFFFFFFFFFFFFFFFFFFFFFFFFFFFFF AND DUP2 MSTORE PUSH1 0x20 ADD SWAP1 DUP2 MSTORE PUSH1 0x20 ADD PUSH0 KECCAK256 PUSH0 DUP3 DUP3 SLOAD PUSH2 0x8A6 SWAP2 SWAP1 PUSH2 0xC6F JUMP JUMPDEST SWAP3 POP POP DUP2 SWAP1 SSTORE POP DUP1 PUSH0 PUSH0 DUP3 DUP3 SLOAD PUSH2 0x8BD SWAP2 SWAP1 PUSH2 0xC6F JUMP JUMPDEST SWAP3 POP POP DUP2 SWAP1 SSTORE POP PUSH1 0x1 PUSH0 DUP2 SLOAD DUP1 SWAP3 SWAP2 SWAP1 PUSH2 0x8D6 SWAP1 PUSH2 0xD4B JUMP JUMPDEST SWAP2 SWAP1 POP SSTORE POP POP POP JUMP JUMPDEST PUSH0 DUP2 SWAP1 POP SWAP2 SWAP1 POP JUMP JUMPDEST PUSH2 0x8F1 DUP2 PUSH2 0x8DF JUMP JUMPDEST DUP3 MSTORE POP POP JUMP JUMPDEST PUSH0 PUSH1 0x20 DUP3 ADD SWAP1 POP PUSH2 0x90A PUSH0 DUP4 ADD DUP5 PUSH2 0x8E8 JUMP JUMPDEST SWAP3 SWAP2 POP POP JUMP JUMPDEST PUSH0 PUSH0 REVERT JUMPDEST PUSH2 0x91D DUP2 PUSH2 0x8DF JUMP JUMPDEST DUP2 EQ PUSH2 0x927 JUMPI PUSH0 PUSH0 REVERT JUMPDEST POP JUMP JUMPDEST PUSH0 DUP2 CALLDATALOAD SWAP1 POP PUSH2 0x938 DUP2 PUSH2 0x914 JUMP JUMPDEST SWAP3 SWAP2 POP POP JUMP JUMPDEST PUSH0 PUSH1 0x20 DUP3 DUP5 SUB SLT ISZERO PUSH2 0x953 JUMPI PUSH2 0x952 PUSH2 0x910 JUMP JUMPDEST JUMPDEST PUSH0 PUSH2 0x960 DUP5 DUP3 DUP6 ADD PUSH2 0x92A JUMP JUMPDEST SWAP2 POP POP SWAP3 SWAP2 POP POP JUMP JUMPDEST PUSH0 PUSH20 0xFFFFFFFFFFFFFFFFFFFFFFFFFFFFFFFFFFFFFFFF DUP3 AND SWAP1 POP SWAP2 SWAP1 POP JUMP JUMPDEST PUSH0 PUSH2 0x992 DUP3 PUSH2 0x969 JUMP JUMPDEST SWAP1 POP SWAP2 SWAP1 POP JUMP JUMPDEST PUSH2 0x9A2 DUP2 PUSH2 0x988 JUMP JUMPDEST DUP2 EQ PUSH2 0x9AC JUMPI PUSH0 PUSH0 REVERT JUMPDEST POP JUMP JUMPDEST PUSH0 DUP2 CALLDATALOAD SWAP1 POP PUSH2 0x9BD DUP2 PUSH2 0x999 JUMP JUMPDEST SWAP3 SWAP2 POP POP JUMP JUMPDEST PUSH0 PUSH1 0x20 DUP3 DUP5 SUB SLT ISZERO PUSH2 0x9D8 JUMPI PUSH2 0x9D7 PUSH2 0x910 JUMP JUMPDEST JUMPDEST PUSH0 PUSH2 0x9E5 DUP5 DUP3 DUP6 ADD PUSH2 0x9AF JUMP JUMPDEST SWAP2 POP POP SWAP3 SWAP2 POP POP JUMP JUMPDEST PUSH0 DUP3 DUP3 MSTORE PUSH1 0x20 DUP3 ADD SWAP1 POP SWAP3 SWAP2 POP POP JUMP JUMPDEST PUSH32 0x5A65726F416D6F756E744E6F74416C6C00000000000000000000000000000000 PUSH0 DUP3 ADD MSTORE POP JUMP JUMPDEST PUSH0 PUSH2 0xA32 PUSH1 0x10 DUP4 PUSH2 0x9EE JUMP JUMPDEST SWAP2 POP PUSH2 0xA3D DUP3 PUSH2 0x9FE JUMP JUMPDEST PUSH1 0x20 DUP3 ADD SWAP1 POP SWAP2 SWAP1 POP JUMP JUMPDEST PUSH0 DUP2 SWAP1 POP SWAP2 SWAP1 POP JUMP JUMPDEST PUSH0 DUP2 SWAP1 POP SWAP2 SWAP1 POP JUMP JUMPDEST PUSH0 PUSH2 0xA74 PUSH2 0xA6F PUSH2 0xA6A DUP5 PUSH2 0xA48 JUMP JUMPDEST PUSH2 0xA51 JUMP JUMPDEST PUSH2 0x8DF JUMP JUMPDEST SWAP1 POP SWAP2 SWAP1 POP JUMP JUMPDEST PUSH2 0xA84 DUP2 PUSH2 0xA5A JUMP JUMPDEST DUP3 MSTORE POP POP JUMP JUMPDEST PUSH0 PUSH1 0x40 DUP3 ADD SWAP1 POP DUP2 DUP2 SUB PUSH0 DUP4 ADD MSTORE PUSH2 0xAA1 DUP2 PUSH2 0xA26 JUMP JUMPDEST SWAP1 POP PUSH2 0xAB0 PUSH1 0x20 DUP4 ADD DUP5 PUSH2 0xA7B JUMP JUMPDEST SWAP3 SWAP2 POP POP JUMP JUMPDEST PUSH32 0x4578636565647357697468647261776C5468726573686F6C6400000000000000 PUSH0 DUP3 ADD MSTORE POP JUMP JUMPDEST PUSH0 PUSH2 0xAEA PUSH1 0x19 DUP4 PUSH2 0x9EE JUMP JUMPDEST SWAP2 POP PUSH2 0xAF5 DUP3 PUSH2 0xAB6 JUMP JUMPDEST PUSH1 0x20 DUP3 ADD SWAP1 POP SWAP2 SWAP1 POP JUMP JUMPDEST PUSH0 PUSH1 0x40 DUP3 ADD SWAP1 POP DUP2 DUP2 SUB PUSH0 DUP4 ADD MSTORE PUSH2 0xB17 DUP2 PUSH2 0xADE JUMP JUMPDEST SWAP1 POP PUSH2 0xB26 PUSH1 0x20 DUP4 ADD DUP5 PUSH2 0x8E8 JUMP JUMPDEST SWAP3 SWAP2 POP POP JUMP JUMPDEST PUSH0 PUSH1 0x40 DUP3 ADD SWAP1 POP PUSH2 0xB3F PUSH0 DUP4 ADD DUP6 PUSH2 0x8E8 JUMP JUMPDEST PUSH2 0xB4C PUSH1 0x20 DUP4 ADD DUP5 PUSH2 0x8E8 JUMP JUMPDEST SWAP4 SWAP3 POP POP POP JUMP JUMPDEST PUSH32 0x496E73756666696369656E745661756C7442616C616E63650000000000000000 PUSH0 DUP3 ADD MSTORE POP JUMP JUMPDEST PUSH0 PUSH2 0xB87 PUSH1 0x18 DUP4 PUSH2 0x9EE JUMP JUMPDEST SWAP2 POP PUSH2 0xB92 DUP3 PUSH2 0xB53 JUMP JUMPDEST PUSH1 0x20 DUP3 ADD SWAP1 POP SWAP2 SWAP1 POP JUMP JUMPDEST PUSH0 PUSH1 0x40 DUP3 ADD SWAP1 POP DUP2 DUP2 SUB PUSH0 DUP4 ADD MSTORE PUSH2 0xBB4 DUP2 PUSH2 0xB7B JUMP JUMPDEST SWAP1 POP PUSH2 0xBC3 PUSH1 0x20 DUP4 ADD DUP5 PUSH2 0x8E8 JUMP JUMPDEST SWAP3 SWAP2 POP POP JUMP JUMPDEST PUSH2 0xBD2 DUP2 PUSH2 0x988 JUMP JUMPDEST DUP3 MSTORE POP POP JUMP JUMPDEST PUSH0 PUSH1 0x60 DUP3 ADD SWAP1 POP PUSH2 0xBEB PUSH0 DUP4 ADD DUP7 PUSH2 0xBC9 JUMP JUMPDEST PUSH2 0xBF8 PUSH1 0x20 DUP4 ADD DUP6 PUSH2 0x8E8 JUMP JUMPDEST PUSH2 0xC05 PUSH1 0x40 DUP4 ADD DUP5 PUSH2 0x8E8 JUMP JUMPDEST SWAP5 SWAP4 POP POP POP POP JUMP JUMPDEST PUSH0 PUSH1 0x60 DUP3 ADD SWAP1 POP PUSH2 0xC20 PUSH0 DUP4 ADD DUP7 PUSH2 0x8E8 JUMP JUMPDEST PUSH2 0xC2D PUSH1 0x20 DUP4 ADD DUP6 PUSH2 0x8E8 JUMP JUMPDEST PUSH2 0xC3A PUSH1 0x40 DUP4 ADD DUP5 PUSH2 0x8E8 JUMP JUMPDEST SWAP5 SWAP4 POP POP POP POP JUMP JUMPDEST PUSH32 0x4E487B7100000000000000000000000000000000000000000000000000000000 PUSH0 MSTORE PUSH1 0x11 PUSH1 0x4 MSTORE PUSH1 0x24 PUSH0 REVERT JUMPDEST PUSH0 PUSH2 0xC79 DUP3 PUSH2 0x8DF JUMP JUMPDEST SWAP2 POP PUSH2 0xC84 DUP4 PUSH2 0x8DF JUMP JUMPDEST SWAP3 POP DUP3 DUP3 ADD SWAP1 POP DUP1 DUP3 GT ISZERO PUSH2 0xC9C JUMPI PUSH2 0xC9B PUSH2 0xC42 JUMP JUMPDEST JUMPDEST SWAP3 SWAP2 POP POP JUMP JUMPDEST PUSH32 0x4578636565647342616E6B436170000000000000000000000000000000000000 PUSH0 DUP3 ADD MSTORE POP JUMP JUMPDEST PUSH0 PUSH2 0xCD6 PUSH1 0xE DUP4 PUSH2 0x9EE JUMP JUMPDEST SWAP2 POP PUSH2 0xCE1 DUP3 PUSH2 0xCA2 JUMP JUMPDEST PUSH1 0x20 DUP3 ADD SWAP1 POP SWAP2 SWAP1 POP JUMP JUMPDEST PUSH0 PUSH1 0x40 DUP3 ADD SWAP1 POP DUP2 DUP2 SUB PUSH0 DUP4 ADD MSTORE PUSH2 0xD03 DUP2 PUSH2 0xCCA JUMP JUMPDEST SWAP1 POP PUSH2 0xD12 PUSH1 0x20 DUP4 ADD DUP5 PUSH2 0x8E8 JUMP JUMPDEST SWAP3 SWAP2 POP POP JUMP JUMPDEST PUSH0 PUSH2 0xD22 DUP3 PUSH2 0x8DF JUMP JUMPDEST SWAP2 POP PUSH2 0xD2D DUP4 PUSH2 0x8DF JUMP JUMPDEST SWAP3 POP DUP3 DUP3 SUB SWAP1 POP DUP2 DUP2 GT ISZERO PUSH2 0xD45 JUMPI PUSH2 0xD44 PUSH2 0xC42 JUMP JUMPDEST JUMPDEST SWAP3 SWAP2 POP POP JUMP JUMPDEST PUSH0 PUSH2 0xD55 DUP3 PUSH2 0x8DF JUMP JUMPDEST SWAP2 POP PUSH32 0xFFFFFFFFFFFFFFFFFFFFFFFFFFFFFFFFFFFFFFFFFFFFFFFFFFFFFFFFFFFFFFFF DUP3 SUB PUSH2 0xD87 JUMPI PUSH2 0xD86 PUSH2 0xC42 JUMP JUMPDEST JUMPDEST PUSH1 0x1 DUP3 ADD SWAP1 POP SWAP2 SWAP1 POP JUMP INVALID LOG2 PUSH5 0x6970667358 0x22 SLT KECCAK256 0x25 PUSH2 0x5385 CALLVALUE 0xB6 ISZERO 0xD6 BASEFEE ADDRESS RETURNDATACOPY SWAP12 LOG4 RETF 0xB8 0xEA BASEFEE JUMPF 0xE27B DUP16 0xD 0x23 JUMPI ADDRESS 0xA9 GASLIMIT LT SWAP8 LOG0 BALANCE 0x2A PUSH5 0x736F6C6343 STOP ADDMOD 0x1E STOP CALLER "
				},
				"gasEstimates": {
					"creation": {
						"codeDepositCost": "705600",
						"executionCost": "infinite",
						"totalCost": "infinite"
					},
					"external": {
						"bankCap()": "infinite",
						"deposit()": "infinite",
						"depositCount()": "2426",
						"getVaultBalance(address)": "2895",
						"thresholdWithdrawl()": "infinite",
						"totalDeposits()": "2424",
						"vaults(address)": "2824",
						"withdraw(uint256)": "infinite",
						"withdrawalCount()": "2492"
					},
					"internal": {
						"_processDeposit(address,uint256)": "infinite",
						"_processWithdraw(address,uint256)": "infinite"
					}
				},
				"methodIdentifiers": {
					"bankCap()": "ecbea24d",
					"deposit()": "d0e30db0",
					"depositCount()": "2dfdf0b5",
					"getVaultBalance(address)": "d3d7c002",
					"thresholdWithdrawl()": "36b96be4",
					"totalDeposits()": "7d882097",
					"vaults(address)": "a622ee7c",
					"withdraw(uint256)": "2e1a7d4d",
					"withdrawalCount()": "71706cbe"
				}
			},
			"storageLayout": {
				"storage": [
					{
						"astId": 8,
						"contract": "Contracts/KipuBank.sol:KipuBank",
						"label": "totalDeposits",
						"offset": 0,
						"slot": "0",
						"type": "t_uint256"
					},
					{
						"astId": 10,
						"contract": "Contracts/KipuBank.sol:KipuBank",
						"label": "depositCount",
						"offset": 0,
						"slot": "1",
						"type": "t_uint256"
					},
					{
						"astId": 12,
						"contract": "Contracts/KipuBank.sol:KipuBank",
						"label": "withdrawalCount",
						"offset": 0,
						"slot": "2",
						"type": "t_uint256"
					},
					{
						"astId": 16,
						"contract": "Contracts/KipuBank.sol:KipuBank",
						"label": "vaults",
						"offset": 0,
						"slot": "3",
						"type": "t_mapping(t_address,t_uint256)"
					}
				],
				"types": {
					"t_address": {
						"encoding": "inplace",
						"label": "address",
						"numberOfBytes": "20"
					},
					"t_mapping(t_address,t_uint256)": {
						"encoding": "mapping",
						"key": "t_address",
						"label": "mapping(address => uint256)",
						"numberOfBytes": "32",
						"value": "t_uint256"
					},
					"t_uint256": {
						"encoding": "inplace",
						"label": "uint256",
						"numberOfBytes": "32"
					}
				}
			},
			"userdoc": {
				"kind": "user",
				"methods": {},
				"version": 1
			}
		}
	}
}