{
	"Contracts/KipuBank.sol": {
		"KipuBank": {
			"abi": [
				{
					"inputs": [
						{
							"internalType": "uint256",
							"name": "_bankCap",
							"type": "uint256"
						},
						{
							"internalType": "uint256",
							"name": "_thresholdWithdrawal",
							"type": "uint256"
						}
					],
					"stateMutability": "nonpayable",
					"type": "constructor"
				},
				{
					"inputs": [
						{
							"internalType": "uint256",
							"name": "amount",
							"type": "uint256"
						},
						{
							"internalType": "uint256",
							"name": "remainBankCap",
							"type": "uint256"
						}
					],
					"name": "ExceedsBankCap",
					"type": "error"
				},
				{
					"inputs": [
						{
							"internalType": "uint256",
							"name": "amount",
							"type": "uint256"
						},
						{
							"internalType": "uint256",
							"name": "thresholdWithdrawal",
							"type": "uint256"
						}
					],
					"name": "ExceedsWithdrawlThreshold",
					"type": "error"
				},
				{
					"inputs": [
						{
							"internalType": "address",
							"name": "user",
							"type": "address"
						},
						{
							"internalType": "uint256",
							"name": "amount",
							"type": "uint256"
						},
						{
							"internalType": "uint256",
							"name": "vaultBalance",
							"type": "uint256"
						}
					],
					"name": "InsufficientVaultBalance",
					"type": "error"
				},
				{
					"inputs": [],
					"name": "InvalidThreshold",
					"type": "error"
				},
				{
					"inputs": [],
					"name": "ZeroAmountNotAllowed",
					"type": "error"
				},
				{
					"anonymous": false,
					"inputs": [
						{
							"indexed": true,
							"internalType": "address",
							"name": "user",
							"type": "address"
						},
						{
							"indexed": false,
							"internalType": "string",
							"name": "reason",
							"type": "string"
						},
						{
							"indexed": false,
							"internalType": "uint256",
							"name": "amount",
							"type": "uint256"
						}
					],
					"name": "FailedDeposit",
					"type": "event"
				},
				{
					"anonymous": false,
					"inputs": [
						{
							"indexed": true,
							"internalType": "address",
							"name": "user",
							"type": "address"
						},
						{
							"indexed": false,
							"internalType": "string",
							"name": "reason",
							"type": "string"
						},
						{
							"indexed": false,
							"internalType": "uint256",
							"name": "amount",
							"type": "uint256"
						}
					],
					"name": "FailedWithdrawl",
					"type": "event"
				},
				{
					"anonymous": false,
					"inputs": [
						{
							"indexed": true,
							"internalType": "address",
							"name": "user",
							"type": "address"
						},
						{
							"indexed": false,
							"internalType": "uint256",
							"name": "depositAmount",
							"type": "uint256"
						},
						{
							"indexed": false,
							"internalType": "uint256",
							"name": "newVaultBalance",
							"type": "uint256"
						},
						{
							"indexed": false,
							"internalType": "uint256",
							"name": "newtotalDeposits",
							"type": "uint256"
						}
					],
					"name": "SuccessDeposit",
					"type": "event"
				},
				{
					"anonymous": false,
					"inputs": [
						{
							"indexed": true,
							"internalType": "address",
							"name": "user",
							"type": "address"
						},
						{
							"indexed": false,
							"internalType": "uint256",
							"name": "withdrawAmount",
							"type": "uint256"
						},
						{
							"indexed": false,
							"internalType": "uint256",
							"name": "newVaultBalance",
							"type": "uint256"
						},
						{
							"indexed": false,
							"internalType": "uint256",
							"name": "newtotalDeposits",
							"type": "uint256"
						}
					],
					"name": "SuccessWithdraw",
					"type": "event"
				},
				{
					"inputs": [],
					"name": "bankCap",
					"outputs": [
						{
							"internalType": "uint256",
							"name": "",
							"type": "uint256"
						}
					],
					"stateMutability": "view",
					"type": "function"
				},
				{
					"inputs": [],
					"name": "deposit",
					"outputs": [],
					"stateMutability": "payable",
					"type": "function"
				},
				{
					"inputs": [],
					"name": "depositCount",
					"outputs": [
						{
							"internalType": "uint256",
							"name": "",
							"type": "uint256"
						}
					],
					"stateMutability": "view",
					"type": "function"
				},
				{
					"inputs": [
						{
							"internalType": "address",
							"name": "_user",
							"type": "address"
						}
					],
					"name": "getVaultBalance",
					"outputs": [
						{
							"internalType": "uint256",
							"name": "",
							"type": "uint256"
						}
					],
					"stateMutability": "view",
					"type": "function"
				},
				{
					"inputs": [],
					"name": "thresholdWithdrawal",
					"outputs": [
						{
							"internalType": "uint256",
							"name": "",
							"type": "uint256"
						}
					],
					"stateMutability": "view",
					"type": "function"
				},
				{
					"inputs": [],
					"name": "totalDeposits",
					"outputs": [
						{
							"internalType": "uint256",
							"name": "",
							"type": "uint256"
						}
					],
					"stateMutability": "view",
					"type": "function"
				},
				{
					"inputs": [
						{
							"internalType": "address",
							"name": "",
							"type": "address"
						}
					],
					"name": "vaults",
					"outputs": [
						{
							"internalType": "uint256",
							"name": "",
							"type": "uint256"
						}
					],
					"stateMutability": "view",
					"type": "function"
				},
				{
					"inputs": [
						{
							"internalType": "uint256",
							"name": "amount",
							"type": "uint256"
						}
					],
					"name": "withdraw",
					"outputs": [],
					"stateMutability": "nonpayable",
					"type": "function"
				},
				{
					"inputs": [],
					"name": "withdrawalCount",
					"outputs": [
						{
							"internalType": "uint256",
							"name": "",
							"type": "uint256"
						}
					],
					"stateMutability": "view",
					"type": "function"
				}
			],
			"devdoc": {
				"errors": {
					"ExceedsBankCap(uint256,uint256)": [
						{
							"params": {
								"amount": "in wei trying to deposit by user.",
								"remainBankCap": "Remaining bank capacity in wei."
							}
						}
					],
					"ExceedsWithdrawlThreshold(uint256,uint256)": [
						{
							"params": {
								"amount": "in wei trying to withdraw by user.",
								"thresholdWithdrawal": "Current config state var value."
							}
						}
					],
					"InsufficientVaultBalance(address,uint256,uint256)": [
						{
							"params": {
								"amount": "in wei trying to withdraw by user.",
								"user": "Address from user.",
								"vaultBalance": "Current user vault balance."
							}
						}
					],
					"InvalidThreshold()": [
						{
							"details": "Avoid wrong contract config."
						}
					],
					"ZeroAmountNotAllowed()": [
						{
							"details": "Avoid deposit/withdraw without value."
						}
					]
				},
				"events": {
					"FailedDeposit(address,string,uint256)": {
						"params": {
							"amount": "Attempted amountin wei.",
							"reason": "Reason for error.",
							"user": "Address from user."
						}
					},
					"FailedWithdrawl(address,string,uint256)": {
						"params": {
							"amount": "Attempted amountin wei.",
							"reason": "Reason for error.",
							"user": "Address from user."
						}
					},
					"SuccessDeposit(address,uint256,uint256,uint256)": {
						"params": {
							"depositAmount": "Amount deposited in wei.",
							"newVaultBalance": "Updated user vualt balance after deposit in wei.",
							"newtotalDeposits": "Updated global total after deposit in wei.",
							"user": "Address from user."
						}
					},
					"SuccessWithdraw(address,uint256,uint256,uint256)": {
						"params": {
							"newVaultBalance": "Updated user vualt balance after withdraw in wei.",
							"newtotalDeposits": "Updated global total after withdraw in wei.",
							"user": "Address from user.",
							"withdrawAmount": "Amount withdrawal in wei."
						}
					}
				},
				"kind": "dev",
				"methods": {
					"constructor": {
						"custom:error": "ZeroAmountNotAllowedInvalidThreshold",
						"params": {
							"_bankCap": "Max total in wei for the contract.",
							"_thresholdWithdrawal": "Max in wei a user can withdraw in one transaction."
						}
					},
					"deposit()": {
						"custom:error": "ZeroAmountNotAllowed.",
						"custom:event": "FailedDeposit.SuccessDeposit.",
						"custom:modifier": "checkBankCap for the global total bank cap.",
						"details": "Check for the a valid amount and global bank cap before process."
					},
					"getVaultBalance(address)": {
						"details": "View function.",
						"params": {
							"_user": "Address from the user."
						},
						"returns": {
							"_0": "Vault balance from user address in wei."
						}
					},
					"withdraw(uint256)": {
						"custom:error": "ZeroAmountNotAllowed.ExceedsWithdrawalThreshold.InsufficientVaultBalance.",
						"custom:event": "FailedWithdrawal.SuccessWithdrawal.",
						"details": "Check for a valid amount, max threshold for each withdraw and vault balance before pocressing.",
						"params": {
							"amount": "Desire mmount in wei to withdraw from user vault."
						}
					}
				},
				"stateVariables": {
					"bankCap": {
						"details": "Set in the constructor and cannot be change."
					},
					"depositCount": {
						"details": "Update in each success deposit."
					},
					"thresholdWithdrawal": {
						"details": "Set in the constructor and cannot be change."
					},
					"totalDeposits": {
						"details": "Update in each deposit and withdraw."
					},
					"vaults": {
						"details": "Balance only update in success deposits or withrawlas."
					},
					"withdrawalCount": {
						"details": "Update in each success withdrawal."
					}
				},
				"title": "KIPU bank contract",
				"version": 1
			},
			"evm": {
				"assembly": "    /* \"Contracts/KipuBank.sol\":101:9111  contract KipuBank {... */\n  mstore(0x40, 0xc0)\n    /* \"Contracts/KipuBank.sol\":4655:4967  constructor(uint256 _bankCap, uint256 _thresholdWithdrawal) {... */\n  callvalue\n  dup1\n  iszero\n  tag_1\n  jumpi\n  revert(0x00, 0x00)\ntag_1:\n  pop\n  mload(0x40)\n  sub(codesize, bytecodeSize)\n  dup1\n  bytecodeSize\n  dup4\n  codecopy\n  dup2\n  dup2\n  add\n  0x40\n  mstore\n  dup2\n  add\n  swap1\n  tag_2\n  swap2\n  swap1\n  tag_3\n  jump\t// in\ntag_2:\n    /* \"Contracts/KipuBank.sol\":4742:4743  0 */\n  0x00\n    /* \"Contracts/KipuBank.sol\":4730:4738  _bankCap */\n  dup3\n    /* \"Contracts/KipuBank.sol\":4730:4743  _bankCap == 0 */\n  eq\n    /* \"Contracts/KipuBank.sol\":4730:4772  _bankCap == 0 || _thresholdWithdrawal == 0 */\n  dup1\n  tag_6\n  jumpi\n  pop\n    /* \"Contracts/KipuBank.sol\":4771:4772  0 */\n  0x00\n    /* \"Contracts/KipuBank.sol\":4747:4767  _thresholdWithdrawal */\n  dup2\n    /* \"Contracts/KipuBank.sol\":4747:4772  _thresholdWithdrawal == 0 */\n  eq\n    /* \"Contracts/KipuBank.sol\":4730:4772  _bankCap == 0 || _thresholdWithdrawal == 0 */\ntag_6:\n    /* \"Contracts/KipuBank.sol\":4726:4804  if (_bankCap == 0 || _thresholdWithdrawal == 0 ) revert ZeroAmountNotAllowed() */\n  iszero\n  tag_7\n  jumpi\n    /* \"Contracts/KipuBank.sol\":4782:4804  ZeroAmountNotAllowed() */\n  mload(0x40)\n  0x0f43956a00000000000000000000000000000000000000000000000000000000\n  dup2\n  mstore\n  0x04\n  add\n  mload(0x40)\n  dup1\n  swap2\n  sub\n  swap1\n  revert\n    /* \"Contracts/KipuBank.sol\":4726:4804  if (_bankCap == 0 || _thresholdWithdrawal == 0 ) revert ZeroAmountNotAllowed() */\ntag_7:\n    /* \"Contracts/KipuBank.sol\":4830:4850  _thresholdWithdrawal */\n  dup1\n    /* \"Contracts/KipuBank.sol\":4819:4827  _bankCap */\n  dup3\n    /* \"Contracts/KipuBank.sol\":4819:4850  _bankCap < _thresholdWithdrawal */\n  lt\n    /* \"Contracts/KipuBank.sol\":4815:4877  if (_bankCap < _thresholdWithdrawal) revert InvalidThreshold() */\n  iszero\n  tag_8\n  jumpi\n    /* \"Contracts/KipuBank.sol\":4859:4877  InvalidThreshold() */\n  mload(0x40)\n  0xaabd5a0900000000000000000000000000000000000000000000000000000000\n  dup2\n  mstore\n  0x04\n  add\n  mload(0x40)\n  dup1\n  swap2\n  sub\n  swap1\n  revert\n    /* \"Contracts/KipuBank.sol\":4815:4877  if (_bankCap < _thresholdWithdrawal) revert InvalidThreshold() */\ntag_8:\n    /* \"Contracts/KipuBank.sol\":4898:4906  _bankCap */\n  dup2\n    /* \"Contracts/KipuBank.sol\":4888:4906  bankCap = _bankCap */\n  0x80\n  dup2\n  dup2\n  mstore\n  pop\n  pop\n    /* \"Contracts/KipuBank.sol\":4939:4959  _thresholdWithdrawal */\n  dup1\n    /* \"Contracts/KipuBank.sol\":4917:4959  thresholdWithdrawal = _thresholdWithdrawal */\n  0xa0\n  dup2\n  dup2\n  mstore\n  pop\n  pop\n    /* \"Contracts/KipuBank.sol\":4655:4967  constructor(uint256 _bankCap, uint256 _thresholdWithdrawal) {... */\n  pop\n  pop\n    /* \"Contracts/KipuBank.sol\":101:9111  contract KipuBank {... */\n  jump(tag_9)\n    /* \"#utility.yul\":88:205   */\ntag_11:\n    /* \"#utility.yul\":197:198   */\n  0x00\n    /* \"#utility.yul\":194:195   */\n  0x00\n    /* \"#utility.yul\":187:199   */\n  revert\n    /* \"#utility.yul\":334:411   */\ntag_13:\n    /* \"#utility.yul\":371:378   */\n  0x00\n    /* \"#utility.yul\":400:405   */\n  dup2\n    /* \"#utility.yul\":389:405   */\n  swap1\n  pop\n    /* \"#utility.yul\":334:411   */\n  swap2\n  swap1\n  pop\n  jump\t// out\n    /* \"#utility.yul\":417:539   */\ntag_14:\n    /* \"#utility.yul\":490:514   */\n  tag_22\n    /* \"#utility.yul\":508:513   */\n  dup2\n    /* \"#utility.yul\":490:514   */\n  tag_13\n  jump\t// in\ntag_22:\n    /* \"#utility.yul\":483:488   */\n  dup2\n    /* \"#utility.yul\":480:515   */\n  eq\n    /* \"#utility.yul\":470:533   */\n  tag_23\n  jumpi\n    /* \"#utility.yul\":529:530   */\n  0x00\n    /* \"#utility.yul\":526:527   */\n  0x00\n    /* \"#utility.yul\":519:531   */\n  revert\n    /* \"#utility.yul\":470:533   */\ntag_23:\n    /* \"#utility.yul\":417:539   */\n  pop\n  jump\t// out\n    /* \"#utility.yul\":545:688   */\ntag_15:\n    /* \"#utility.yul\":602:607   */\n  0x00\n    /* \"#utility.yul\":633:639   */\n  dup2\n    /* \"#utility.yul\":627:640   */\n  mload\n    /* \"#utility.yul\":618:640   */\n  swap1\n  pop\n    /* \"#utility.yul\":649:682   */\n  tag_25\n    /* \"#utility.yul\":676:681   */\n  dup2\n    /* \"#utility.yul\":649:682   */\n  tag_14\n  jump\t// in\ntag_25:\n    /* \"#utility.yul\":545:688   */\n  swap3\n  swap2\n  pop\n  pop\n  jump\t// out\n    /* \"#utility.yul\":694:1201   */\ntag_3:\n    /* \"#utility.yul\":773:779   */\n  0x00\n    /* \"#utility.yul\":781:787   */\n  0x00\n    /* \"#utility.yul\":830:832   */\n  0x40\n    /* \"#utility.yul\":818:827   */\n  dup4\n    /* \"#utility.yul\":809:816   */\n  dup6\n    /* \"#utility.yul\":805:828   */\n  sub\n    /* \"#utility.yul\":801:833   */\n  slt\n    /* \"#utility.yul\":798:917   */\n  iszero\n  tag_27\n  jumpi\n    /* \"#utility.yul\":836:915   */\n  tag_28\n  tag_11\n  jump\t// in\ntag_28:\n    /* \"#utility.yul\":798:917   */\ntag_27:\n    /* \"#utility.yul\":956:957   */\n  0x00\n    /* \"#utility.yul\":981:1045   */\n  tag_29\n    /* \"#utility.yul\":1037:1044   */\n  dup6\n    /* \"#utility.yul\":1028:1034   */\n  dup3\n    /* \"#utility.yul\":1017:1026   */\n  dup7\n    /* \"#utility.yul\":1013:1035   */\n  add\n    /* \"#utility.yul\":981:1045   */\n  tag_15\n  jump\t// in\ntag_29:\n    /* \"#utility.yul\":971:1045   */\n  swap3\n  pop\n    /* \"#utility.yul\":927:1055   */\n  pop\n    /* \"#utility.yul\":1094:1096   */\n  0x20\n    /* \"#utility.yul\":1120:1184   */\n  tag_30\n    /* \"#utility.yul\":1176:1183   */\n  dup6\n    /* \"#utility.yul\":1167:1173   */\n  dup3\n    /* \"#utility.yul\":1156:1165   */\n  dup7\n    /* \"#utility.yul\":1152:1174   */\n  add\n    /* \"#utility.yul\":1120:1184   */\n  tag_15\n  jump\t// in\ntag_30:\n    /* \"#utility.yul\":1110:1184   */\n  swap2\n  pop\n    /* \"#utility.yul\":1065:1194   */\n  pop\n    /* \"#utility.yul\":694:1201   */\n  swap3\n  pop\n  swap3\n  swap1\n  pop\n  jump\t// out\n    /* \"Contracts/KipuBank.sol\":101:9111  contract KipuBank {... */\ntag_9:\n  mload(0x80)\n  mload(0xa0)\n  codecopy(0x00, dataOffset(sub_0), dataSize(sub_0))\n  0x00\n  assignImmutable(\"0xe4b1702d9298fee62dfeccc57d322a463ad55ca201256d01f62b45b2e1c21c10\")\n  0x00\n  assignImmutable(\"0xceebf77a833b30520287ddd9478ff51abbdffa30aa90a8d655dba0e8a79ce0c1\")\n  return(0x00, dataSize(sub_0))\nstop\n\nsub_0: assembly {\n        /* \"Contracts/KipuBank.sol\":101:9111  contract KipuBank {... */\n      mstore(0x40, 0x80)\n      jumpi(tag_1, lt(calldatasize, 0x04))\n      shr(0xe0, calldataload(0x00))\n      dup1\n      0xa622ee7c\n      gt\n      tag_11\n      jumpi\n      dup1\n      0xa622ee7c\n      eq\n      tag_6\n      jumpi\n      dup1\n      0xd0e30db0\n      eq\n      tag_7\n      jumpi\n      dup1\n      0xd3d7c002\n      eq\n      tag_8\n      jumpi\n      dup1\n      0xe25d2e8e\n      eq\n      tag_9\n      jumpi\n      dup1\n      0xecbea24d\n      eq\n      tag_10\n      jumpi\n      jump(tag_1)\n    tag_11:\n      dup1\n      0x2dfdf0b5\n      eq\n      tag_2\n      jumpi\n      dup1\n      0x2e1a7d4d\n      eq\n      tag_3\n      jumpi\n      dup1\n      0x71706cbe\n      eq\n      tag_4\n      jumpi\n      dup1\n      0x7d882097\n      eq\n      tag_5\n      jumpi\n    tag_1:\n      revert(0x00, 0x00)\n        /* \"Contracts/KipuBank.sol\":856:883  uint256 public depositCount */\n    tag_2:\n      callvalue\n      dup1\n      iszero\n      tag_12\n      jumpi\n      revert(0x00, 0x00)\n    tag_12:\n      pop\n      tag_13\n      tag_14\n      jump\t// in\n    tag_13:\n      mload(0x40)\n      tag_15\n      swap2\n      swap1\n      tag_16\n      jump\t// in\n    tag_15:\n      mload(0x40)\n      dup1\n      swap2\n      sub\n      swap1\n      return\n        /* \"Contracts/KipuBank.sol\":6935:7907  function withdraw(uint256 amount) external {... */\n    tag_3:\n      callvalue\n      dup1\n      iszero\n      tag_17\n      jumpi\n      revert(0x00, 0x00)\n    tag_17:\n      pop\n      tag_18\n      0x04\n      dup1\n      calldatasize\n      sub\n      dup2\n      add\n      swap1\n      tag_19\n      swap2\n      swap1\n      tag_20\n      jump\t// in\n    tag_19:\n      tag_21\n      jump\t// in\n    tag_18:\n      stop\n        /* \"Contracts/KipuBank.sol\":1008:1038  uint256 public withdrawalCount */\n    tag_4:\n      callvalue\n      dup1\n      iszero\n      tag_22\n      jumpi\n      revert(0x00, 0x00)\n    tag_22:\n      pop\n      tag_23\n      tag_24\n      jump\t// in\n    tag_23:\n      mload(0x40)\n      tag_25\n      swap2\n      swap1\n      tag_16\n      jump\t// in\n    tag_25:\n      mload(0x40)\n      dup1\n      swap2\n      sub\n      swap1\n      return\n        /* \"Contracts/KipuBank.sol\":709:737  uint256 public totalDeposits */\n    tag_5:\n      callvalue\n      dup1\n      iszero\n      tag_26\n      jumpi\n      revert(0x00, 0x00)\n    tag_26:\n      pop\n      tag_27\n      tag_28\n      jump\t// in\n    tag_27:\n      mload(0x40)\n      tag_29\n      swap2\n      swap1\n      tag_16\n      jump\t// in\n    tag_29:\n      mload(0x40)\n      dup1\n      swap2\n      sub\n      swap1\n      return\n        /* \"Contracts/KipuBank.sol\":1233:1274  mapping(address => uint256) public vaults */\n    tag_6:\n      callvalue\n      dup1\n      iszero\n      tag_30\n      jumpi\n      revert(0x00, 0x00)\n    tag_30:\n      pop\n      tag_31\n      0x04\n      dup1\n      calldatasize\n      sub\n      dup2\n      add\n      swap1\n      tag_32\n      swap2\n      swap1\n      tag_33\n      jump\t// in\n    tag_32:\n      tag_34\n      jump\t// in\n    tag_31:\n      mload(0x40)\n      tag_35\n      swap2\n      swap1\n      tag_16\n      jump\t// in\n    tag_35:\n      mload(0x40)\n      dup1\n      swap2\n      sub\n      swap1\n      return\n        /* \"Contracts/KipuBank.sol\":6029:6453  function deposit() external payable checkBankCap(msg.value) {... */\n    tag_7:\n      tag_36\n      tag_37\n      jump\t// in\n    tag_36:\n      stop\n        /* \"Contracts/KipuBank.sol\":8997:9108  function getVaultBalance(address _user) external view returns (uint256) {... */\n    tag_8:\n      callvalue\n      dup1\n      iszero\n      tag_38\n      jumpi\n      revert(0x00, 0x00)\n    tag_38:\n      pop\n      tag_39\n      0x04\n      dup1\n      calldatasize\n      sub\n      dup2\n      add\n      swap1\n      tag_40\n      swap2\n      swap1\n      tag_33\n      jump\t// in\n    tag_40:\n      tag_41\n      jump\t// in\n    tag_39:\n      mload(0x40)\n      tag_42\n      swap2\n      swap1\n      tag_16\n      jump\t// in\n    tag_42:\n      mload(0x40)\n      dup1\n      swap2\n      sub\n      swap1\n      return\n        /* \"Contracts/KipuBank.sol\":521:565  uint256 public immutable thresholdWithdrawal */\n    tag_9:\n      callvalue\n      dup1\n      iszero\n      tag_43\n      jumpi\n      revert(0x00, 0x00)\n    tag_43:\n      pop\n      tag_44\n      tag_45\n      jump\t// in\n    tag_44:\n      mload(0x40)\n      tag_46\n      swap2\n      swap1\n      tag_16\n      jump\t// in\n    tag_46:\n      mload(0x40)\n      dup1\n      swap2\n      sub\n      swap1\n      return\n        /* \"Contracts/KipuBank.sol\":312:344  uint256 public immutable bankCap */\n    tag_10:\n      callvalue\n      dup1\n      iszero\n      tag_47\n      jumpi\n      revert(0x00, 0x00)\n    tag_47:\n      pop\n      tag_48\n      tag_49\n      jump\t// in\n    tag_48:\n      mload(0x40)\n      tag_50\n      swap2\n      swap1\n      tag_16\n      jump\t// in\n    tag_50:\n      mload(0x40)\n      dup1\n      swap2\n      sub\n      swap1\n      return\n        /* \"Contracts/KipuBank.sol\":856:883  uint256 public depositCount */\n    tag_14:\n      sload(0x01)\n      dup2\n      jump\t// out\n        /* \"Contracts/KipuBank.sol\":6935:7907  function withdraw(uint256 amount) external {... */\n    tag_21:\n        /* \"Contracts/KipuBank.sol\":7003:7004  0 */\n      0x00\n        /* \"Contracts/KipuBank.sol\":6993:6999  amount */\n      dup2\n        /* \"Contracts/KipuBank.sol\":6993:7004  amount == 0 */\n      sub\n        /* \"Contracts/KipuBank.sol\":6989:7131  if (amount == 0){... */\n      tag_52\n      jumpi\n        /* \"Contracts/KipuBank.sol\":7041:7051  msg.sender */\n      caller\n        /* \"Contracts/KipuBank.sol\":7025:7075  FailedWithdrawl(msg.sender, \"ZeroAmountNotAll\", 0) */\n      0xffffffffffffffffffffffffffffffffffffffff\n      and\n      0xf541119c517482637f4067c28782ab86181c836aac97d5b2a8d752d147833849\n        /* \"Contracts/KipuBank.sol\":7073:7074  0 */\n      0x00\n        /* \"Contracts/KipuBank.sol\":7025:7075  FailedWithdrawl(msg.sender, \"ZeroAmountNotAll\", 0) */\n      mload(0x40)\n      tag_53\n      swap2\n      swap1\n      tag_54\n      jump\t// in\n    tag_53:\n      mload(0x40)\n      dup1\n      swap2\n      sub\n      swap1\n      log2\n        /* \"Contracts/KipuBank.sol\":7097:7119  ZeroAmountNotAllowed() */\n      mload(0x40)\n      0x0f43956a00000000000000000000000000000000000000000000000000000000\n      dup2\n      mstore\n      0x04\n      add\n      mload(0x40)\n      dup1\n      swap2\n      sub\n      swap1\n      revert\n        /* \"Contracts/KipuBank.sol\":6989:7131  if (amount == 0){... */\n    tag_52:\n        /* \"Contracts/KipuBank.sol\":7154:7173  thresholdWithdrawal */\n      immutable(\"0xe4b1702d9298fee62dfeccc57d322a463ad55ca201256d01f62b45b2e1c21c10\")\n        /* \"Contracts/KipuBank.sol\":7145:7151  amount */\n      dup2\n        /* \"Contracts/KipuBank.sol\":7145:7173  amount > thresholdWithdrawal */\n      gt\n        /* \"Contracts/KipuBank.sol\":7141:7415  if (amount > thresholdWithdrawal) {... */\n      iszero\n      tag_55\n      jumpi\n        /* \"Contracts/KipuBank.sol\":7229:7239  msg.sender */\n      caller\n        /* \"Contracts/KipuBank.sol\":7195:7326  FailedWithdrawl(... */\n      0xffffffffffffffffffffffffffffffffffffffff\n      and\n      0xf541119c517482637f4067c28782ab86181c836aac97d5b2a8d752d147833849\n        /* \"Contracts/KipuBank.sol\":7305:7311  amount */\n      dup3\n        /* \"Contracts/KipuBank.sol\":7195:7326  FailedWithdrawl(... */\n      mload(0x40)\n      tag_56\n      swap2\n      swap1\n      tag_57\n      jump\t// in\n    tag_56:\n      mload(0x40)\n      dup1\n      swap2\n      sub\n      swap1\n      log2\n        /* \"Contracts/KipuBank.sol\":7374:7380  amount */\n      dup1\n        /* \"Contracts/KipuBank.sol\":7382:7401  thresholdWithdrawal */\n      immutable(\"0xe4b1702d9298fee62dfeccc57d322a463ad55ca201256d01f62b45b2e1c21c10\")\n        /* \"Contracts/KipuBank.sol\":7348:7402  ExceedsWithdrawlThreshold(amount, thresholdWithdrawal) */\n      mload(0x40)\n      0x8e85bd5200000000000000000000000000000000000000000000000000000000\n      dup2\n      mstore\n      0x04\n      add\n      tag_58\n      swap3\n      swap2\n      swap1\n      tag_59\n      jump\t// in\n    tag_58:\n      mload(0x40)\n      dup1\n      swap2\n      sub\n      swap1\n      revert\n        /* \"Contracts/KipuBank.sol\":7141:7415  if (amount > thresholdWithdrawal) {... */\n    tag_55:\n        /* \"Contracts/KipuBank.sol\":7438:7444  vaults */\n      0x03\n        /* \"Contracts/KipuBank.sol\":7438:7456  vaults[msg.sender] */\n      0x00\n        /* \"Contracts/KipuBank.sol\":7445:7455  msg.sender */\n      caller\n        /* \"Contracts/KipuBank.sol\":7438:7456  vaults[msg.sender] */\n      0xffffffffffffffffffffffffffffffffffffffff\n      and\n      0xffffffffffffffffffffffffffffffffffffffff\n      and\n      dup2\n      mstore\n      0x20\n      add\n      swap1\n      dup2\n      mstore\n      0x20\n      add\n      0x00\n      keccak256\n      sload\n        /* \"Contracts/KipuBank.sol\":7429:7435  amount */\n      dup2\n        /* \"Contracts/KipuBank.sol\":7429:7456  amount > vaults[msg.sender] */\n      gt\n        /* \"Contracts/KipuBank.sol\":7425:7704  if (amount > vaults[msg.sender]){... */\n      iszero\n      tag_60\n      jumpi\n        /* \"Contracts/KipuBank.sol\":7511:7521  msg.sender */\n      caller\n        /* \"Contracts/KipuBank.sol\":7477:7606  FailedWithdrawl(... */\n      0xffffffffffffffffffffffffffffffffffffffff\n      and\n      0xf541119c517482637f4067c28782ab86181c836aac97d5b2a8d752d147833849\n        /* \"Contracts/KipuBank.sol\":7585:7591  amount */\n      dup3\n        /* \"Contracts/KipuBank.sol\":7477:7606  FailedWithdrawl(... */\n      mload(0x40)\n      tag_61\n      swap2\n      swap1\n      tag_62\n      jump\t// in\n    tag_61:\n      mload(0x40)\n      dup1\n      swap2\n      sub\n      swap1\n      log2\n        /* \"Contracts/KipuBank.sol\":7653:7663  msg.sender */\n      caller\n        /* \"Contracts/KipuBank.sol\":7665:7671  amount */\n      dup2\n        /* \"Contracts/KipuBank.sol\":7673:7679  vaults */\n      0x03\n        /* \"Contracts/KipuBank.sol\":7673:7691  vaults[msg.sender] */\n      0x00\n        /* \"Contracts/KipuBank.sol\":7680:7690  msg.sender */\n      caller\n        /* \"Contracts/KipuBank.sol\":7673:7691  vaults[msg.sender] */\n      0xffffffffffffffffffffffffffffffffffffffff\n      and\n      0xffffffffffffffffffffffffffffffffffffffff\n      and\n      dup2\n      mstore\n      0x20\n      add\n      swap1\n      dup2\n      mstore\n      0x20\n      add\n      0x00\n      keccak256\n      sload\n        /* \"Contracts/KipuBank.sol\":7628:7692  InsufficientVaultBalance(msg.sender, amount, vaults[msg.sender]) */\n      mload(0x40)\n      0xa343d5e000000000000000000000000000000000000000000000000000000000\n      dup2\n      mstore\n      0x04\n      add\n      tag_63\n      swap4\n      swap3\n      swap2\n      swap1\n      tag_64\n      jump\t// in\n    tag_63:\n      mload(0x40)\n      dup1\n      swap2\n      sub\n      swap1\n      revert\n        /* \"Contracts/KipuBank.sol\":7425:7704  if (amount > vaults[msg.sender]){... */\n    tag_60:\n        /* \"Contracts/KipuBank.sol\":7714:7750  _processWithdraw(msg.sender, amount) */\n      tag_65\n        /* \"Contracts/KipuBank.sol\":7731:7741  msg.sender */\n      caller\n        /* \"Contracts/KipuBank.sol\":7743:7749  amount */\n      dup3\n        /* \"Contracts/KipuBank.sol\":7714:7730  _processWithdraw */\n      tag_66\n        /* \"Contracts/KipuBank.sol\":7714:7750  _processWithdraw(msg.sender, amount) */\n      jump\t// in\n    tag_65:\n        /* \"Contracts/KipuBank.sol\":7796:7806  msg.sender */\n      caller\n        /* \"Contracts/KipuBank.sol\":7766:7899  SuccessWithdraw(... */\n      0xffffffffffffffffffffffffffffffffffffffff\n      and\n      0x9d13af23e9b71c27cef477f3213bb1a65c3d5bd1d262f06467d60b45ca285be9\n        /* \"Contracts/KipuBank.sol\":7821:7827  amount */\n      dup3\n        /* \"Contracts/KipuBank.sol\":7842:7848  vaults */\n      0x03\n        /* \"Contracts/KipuBank.sol\":7842:7860  vaults[msg.sender] */\n      0x00\n        /* \"Contracts/KipuBank.sol\":7849:7859  msg.sender */\n      caller\n        /* \"Contracts/KipuBank.sol\":7842:7860  vaults[msg.sender] */\n      0xffffffffffffffffffffffffffffffffffffffff\n      and\n      0xffffffffffffffffffffffffffffffffffffffff\n      and\n      dup2\n      mstore\n      0x20\n      add\n      swap1\n      dup2\n      mstore\n      0x20\n      add\n      0x00\n      keccak256\n      sload\n        /* \"Contracts/KipuBank.sol\":7875:7888  totalDeposits */\n      sload(0x00)\n        /* \"Contracts/KipuBank.sol\":7766:7899  SuccessWithdraw(... */\n      mload(0x40)\n      tag_67\n      swap4\n      swap3\n      swap2\n      swap1\n      tag_68\n      jump\t// in\n    tag_67:\n      mload(0x40)\n      dup1\n      swap2\n      sub\n      swap1\n      log2\n        /* \"Contracts/KipuBank.sol\":6935:7907  function withdraw(uint256 amount) external {... */\n      pop\n      jump\t// out\n        /* \"Contracts/KipuBank.sol\":1008:1038  uint256 public withdrawalCount */\n    tag_24:\n      sload(0x02)\n      dup2\n      jump\t// out\n        /* \"Contracts/KipuBank.sol\":709:737  uint256 public totalDeposits */\n    tag_28:\n      sload(0x00)\n      dup2\n      jump\t// out\n        /* \"Contracts/KipuBank.sol\":1233:1274  mapping(address => uint256) public vaults */\n    tag_34:\n      mstore(0x20, 0x03)\n      dup1\n      0x00\n      mstore\n      keccak256(0x00, 0x40)\n      0x00\n      swap2\n      pop\n      swap1\n      pop\n      sload\n      dup2\n      jump\t// out\n        /* \"Contracts/KipuBank.sol\":6029:6453  function deposit() external payable checkBankCap(msg.value) {... */\n    tag_37:\n        /* \"Contracts/KipuBank.sol\":6078:6087  msg.value */\n      callvalue\n        /* \"Contracts/KipuBank.sol\":5387:5394  bankCap */\n      immutable(\"0xceebf77a833b30520287ddd9478ff51abbdffa30aa90a8d655dba0e8a79ce0c1\")\n        /* \"Contracts/KipuBank.sol\":5378:5384  amount */\n      dup2\n        /* \"Contracts/KipuBank.sol\":5362:5375  totalDeposits */\n      sload(0x00)\n        /* \"Contracts/KipuBank.sol\":5362:5384  totalDeposits + amount */\n      tag_70\n      swap2\n      swap1\n      tag_71\n      jump\t// in\n    tag_70:\n        /* \"Contracts/KipuBank.sol\":5362:5394  totalDeposits + amount > bankCap */\n      gt\n        /* \"Contracts/KipuBank.sol\":5358:5616  if (totalDeposits + amount > bankCap){... */\n      iszero\n      tag_72\n      jumpi\n        /* \"Contracts/KipuBank.sol\":5448:5458  msg.sender */\n      caller\n        /* \"Contracts/KipuBank.sol\":5415:5535  FailedDeposit (... */\n      0xffffffffffffffffffffffffffffffffffffffff\n      and\n      0x960c69db83012c2b65607b4050faea44e588af0eba0b5f3b610adb9669cca67b\n        /* \"Contracts/KipuBank.sol\":5514:5520  amount */\n      dup3\n        /* \"Contracts/KipuBank.sol\":5415:5535  FailedDeposit (... */\n      mload(0x40)\n      tag_73\n      swap2\n      swap1\n      tag_74\n      jump\t// in\n    tag_73:\n      mload(0x40)\n      dup1\n      swap2\n      sub\n      swap1\n      log2\n        /* \"Contracts/KipuBank.sol\":5572:5578  amount */\n      dup1\n        /* \"Contracts/KipuBank.sol\":5590:5603  totalDeposits */\n      sload(0x00)\n        /* \"Contracts/KipuBank.sol\":5580:5587  bankCap */\n      immutable(\"0xceebf77a833b30520287ddd9478ff51abbdffa30aa90a8d655dba0e8a79ce0c1\")\n        /* \"Contracts/KipuBank.sol\":5580:5603  bankCap - totalDeposits */\n      tag_75\n      swap2\n      swap1\n      tag_76\n      jump\t// in\n    tag_75:\n        /* \"Contracts/KipuBank.sol\":5557:5604  ExceedsBankCap(amount, bankCap - totalDeposits) */\n      mload(0x40)\n      0x4274ef7700000000000000000000000000000000000000000000000000000000\n      dup2\n      mstore\n      0x04\n      add\n      tag_77\n      swap3\n      swap2\n      swap1\n      tag_59\n      jump\t// in\n    tag_77:\n      mload(0x40)\n      dup1\n      swap2\n      sub\n      swap1\n      revert\n        /* \"Contracts/KipuBank.sol\":5358:5616  if (totalDeposits + amount > bankCap){... */\n    tag_72:\n        /* \"Contracts/KipuBank.sol\":6117:6118  0 */\n      0x00\n        /* \"Contracts/KipuBank.sol\":6104:6113  msg.value */\n      callvalue\n        /* \"Contracts/KipuBank.sol\":6104:6118  msg.value == 0 */\n      sub\n        /* \"Contracts/KipuBank.sol\":6100:6246  if (msg.value == 0){... */\n      tag_79\n      jumpi\n        /* \"Contracts/KipuBank.sol\":6153:6163  msg.sender */\n      caller\n        /* \"Contracts/KipuBank.sol\":6139:6190  FailedDeposit(msg.sender, \"ZeroAmountNotAllwed\", 0) */\n      0xffffffffffffffffffffffffffffffffffffffff\n      and\n      0x960c69db83012c2b65607b4050faea44e588af0eba0b5f3b610adb9669cca67b\n        /* \"Contracts/KipuBank.sol\":6188:6189  0 */\n      0x00\n        /* \"Contracts/KipuBank.sol\":6139:6190  FailedDeposit(msg.sender, \"ZeroAmountNotAllwed\", 0) */\n      mload(0x40)\n      tag_80\n      swap2\n      swap1\n      tag_81\n      jump\t// in\n    tag_80:\n      mload(0x40)\n      dup1\n      swap2\n      sub\n      swap1\n      log2\n        /* \"Contracts/KipuBank.sol\":6212:6234  ZeroAmountNotAllowed() */\n      mload(0x40)\n      0x0f43956a00000000000000000000000000000000000000000000000000000000\n      dup2\n      mstore\n      0x04\n      add\n      mload(0x40)\n      dup1\n      swap2\n      sub\n      swap1\n      revert\n        /* \"Contracts/KipuBank.sol\":6100:6246  if (msg.value == 0){... */\n    tag_79:\n        /* \"Contracts/KipuBank.sol\":6256:6294  _processDeposit(msg.sender, msg.value) */\n      tag_82\n        /* \"Contracts/KipuBank.sol\":6272:6282  msg.sender */\n      caller\n        /* \"Contracts/KipuBank.sol\":6284:6293  msg.value */\n      callvalue\n        /* \"Contracts/KipuBank.sol\":6256:6271  _processDeposit */\n      tag_83\n        /* \"Contracts/KipuBank.sol\":6256:6294  _processDeposit(msg.sender, msg.value) */\n      jump\t// in\n    tag_82:\n        /* \"Contracts/KipuBank.sol\":6339:6349  msg.sender */\n      caller\n        /* \"Contracts/KipuBank.sol\":6310:6445  SuccessDeposit(... */\n      0xffffffffffffffffffffffffffffffffffffffff\n      and\n      0xbadf6a9cbb8d928fcfb4c613af1104439f4b4e9822469b18502ac2662f4e6c80\n        /* \"Contracts/KipuBank.sol\":6364:6373  msg.value */\n      callvalue\n        /* \"Contracts/KipuBank.sol\":6388:6394  vaults */\n      0x03\n        /* \"Contracts/KipuBank.sol\":6388:6406  vaults[msg.sender] */\n      0x00\n        /* \"Contracts/KipuBank.sol\":6395:6405  msg.sender */\n      caller\n        /* \"Contracts/KipuBank.sol\":6388:6406  vaults[msg.sender] */\n      0xffffffffffffffffffffffffffffffffffffffff\n      and\n      0xffffffffffffffffffffffffffffffffffffffff\n      and\n      dup2\n      mstore\n      0x20\n      add\n      swap1\n      dup2\n      mstore\n      0x20\n      add\n      0x00\n      keccak256\n      sload\n        /* \"Contracts/KipuBank.sol\":6421:6434  totalDeposits */\n      sload(0x00)\n        /* \"Contracts/KipuBank.sol\":6310:6445  SuccessDeposit(... */\n      mload(0x40)\n      tag_84\n      swap4\n      swap3\n      swap2\n      swap1\n      tag_68\n      jump\t// in\n    tag_84:\n      mload(0x40)\n      dup1\n      swap2\n      sub\n      swap1\n      log2\n        /* \"Contracts/KipuBank.sol\":6029:6453  function deposit() external payable checkBankCap(msg.value) {... */\n      pop\n      jump\t// out\n        /* \"Contracts/KipuBank.sol\":8997:9108  function getVaultBalance(address _user) external view returns (uint256) {... */\n    tag_41:\n        /* \"Contracts/KipuBank.sol\":9060:9067  uint256 */\n      0x00\n        /* \"Contracts/KipuBank.sol\":9087:9093  vaults */\n      0x03\n        /* \"Contracts/KipuBank.sol\":9087:9100  vaults[_user] */\n      0x00\n        /* \"Contracts/KipuBank.sol\":9094:9099  _user */\n      dup4\n        /* \"Contracts/KipuBank.sol\":9087:9100  vaults[_user] */\n      0xffffffffffffffffffffffffffffffffffffffff\n      and\n      0xffffffffffffffffffffffffffffffffffffffff\n      and\n      dup2\n      mstore\n      0x20\n      add\n      swap1\n      dup2\n      mstore\n      0x20\n      add\n      0x00\n      keccak256\n      sload\n        /* \"Contracts/KipuBank.sol\":9080:9100  return vaults[_user] */\n      swap1\n      pop\n        /* \"Contracts/KipuBank.sol\":8997:9108  function getVaultBalance(address _user) external view returns (uint256) {... */\n      swap2\n      swap1\n      pop\n      jump\t// out\n        /* \"Contracts/KipuBank.sol\":521:565  uint256 public immutable thresholdWithdrawal */\n    tag_45:\n      immutable(\"0xe4b1702d9298fee62dfeccc57d322a463ad55ca201256d01f62b45b2e1c21c10\")\n      dup2\n      jump\t// out\n        /* \"Contracts/KipuBank.sol\":312:344  uint256 public immutable bankCap */\n    tag_49:\n      immutable(\"0xceebf77a833b30520287ddd9478ff51abbdffa30aa90a8d655dba0e8a79ce0c1\")\n      dup2\n      jump\t// out\n        /* \"Contracts/KipuBank.sol\":8573:8745  function _processWithdraw(address _user, uint256 _amount) private {... */\n    tag_66:\n        /* \"Contracts/KipuBank.sol\":8667:8674  _amount */\n      dup1\n        /* \"Contracts/KipuBank.sol\":8650:8656  vaults */\n      0x03\n        /* \"Contracts/KipuBank.sol\":8650:8663  vaults[_user] */\n      0x00\n        /* \"Contracts/KipuBank.sol\":8657:8662  _user */\n      dup5\n        /* \"Contracts/KipuBank.sol\":8650:8663  vaults[_user] */\n      0xffffffffffffffffffffffffffffffffffffffff\n      and\n      0xffffffffffffffffffffffffffffffffffffffff\n      and\n      dup2\n      mstore\n      0x20\n      add\n      swap1\n      dup2\n      mstore\n      0x20\n      add\n      0x00\n      keccak256\n      0x00\n        /* \"Contracts/KipuBank.sol\":8650:8674  vaults[_user] -= _amount */\n      dup3\n      dup3\n      sload\n      tag_87\n      swap2\n      swap1\n      tag_76\n      jump\t// in\n    tag_87:\n      swap3\n      pop\n      pop\n      dup2\n      swap1\n      sstore\n      pop\n        /* \"Contracts/KipuBank.sol\":8702:8709  _amount */\n      dup1\n        /* \"Contracts/KipuBank.sol\":8685:8698  totalDeposits */\n      0x00\n      0x00\n        /* \"Contracts/KipuBank.sol\":8685:8709  totalDeposits -= _amount */\n      dup3\n      dup3\n      sload\n      tag_88\n      swap2\n      swap1\n      tag_76\n      jump\t// in\n    tag_88:\n      swap3\n      pop\n      pop\n      dup2\n      swap1\n      sstore\n      pop\n        /* \"Contracts/KipuBank.sol\":8720:8735  withdrawalCount */\n      0x02\n      0x00\n        /* \"Contracts/KipuBank.sol\":8720:8737  withdrawalCount++ */\n      dup2\n      sload\n      dup1\n      swap3\n      swap2\n      swap1\n      tag_89\n      swap1\n      tag_90\n      jump\t// in\n    tag_89:\n      swap2\n      swap1\n      pop\n      sstore\n      pop\n        /* \"Contracts/KipuBank.sol\":8573:8745  function _processWithdraw(address _user, uint256 _amount) private {... */\n      pop\n      pop\n      jump\t// out\n        /* \"Contracts/KipuBank.sol\":8158:8326  function _processDeposit(address _user, uint256 _amount) private {... */\n    tag_83:\n        /* \"Contracts/KipuBank.sol\":8251:8258  _amount */\n      dup1\n        /* \"Contracts/KipuBank.sol\":8234:8240  vaults */\n      0x03\n        /* \"Contracts/KipuBank.sol\":8234:8247  vaults[_user] */\n      0x00\n        /* \"Contracts/KipuBank.sol\":8241:8246  _user */\n      dup5\n        /* \"Contracts/KipuBank.sol\":8234:8247  vaults[_user] */\n      0xffffffffffffffffffffffffffffffffffffffff\n      and\n      0xffffffffffffffffffffffffffffffffffffffff\n      and\n      dup2\n      mstore\n      0x20\n      add\n      swap1\n      dup2\n      mstore\n      0x20\n      add\n      0x00\n      keccak256\n      0x00\n        /* \"Contracts/KipuBank.sol\":8234:8258  vaults[_user] += _amount */\n      dup3\n      dup3\n      sload\n      tag_92\n      swap2\n      swap1\n      tag_71\n      jump\t// in\n    tag_92:\n      swap3\n      pop\n      pop\n      dup2\n      swap1\n      sstore\n      pop\n        /* \"Contracts/KipuBank.sol\":8286:8293  _amount */\n      dup1\n        /* \"Contracts/KipuBank.sol\":8269:8282  totalDeposits */\n      0x00\n      0x00\n        /* \"Contracts/KipuBank.sol\":8269:8293  totalDeposits += _amount */\n      dup3\n      dup3\n      sload\n      tag_93\n      swap2\n      swap1\n      tag_71\n      jump\t// in\n    tag_93:\n      swap3\n      pop\n      pop\n      dup2\n      swap1\n      sstore\n      pop\n        /* \"Contracts/KipuBank.sol\":8304:8316  depositCount */\n      0x01\n      0x00\n        /* \"Contracts/KipuBank.sol\":8304:8318  depositCount++ */\n      dup2\n      sload\n      dup1\n      swap3\n      swap2\n      swap1\n      tag_94\n      swap1\n      tag_90\n      jump\t// in\n    tag_94:\n      swap2\n      swap1\n      pop\n      sstore\n      pop\n        /* \"Contracts/KipuBank.sol\":8158:8326  function _processDeposit(address _user, uint256 _amount) private {... */\n      pop\n      pop\n      jump\t// out\n        /* \"#utility.yul\":7:84   */\n    tag_95:\n        /* \"#utility.yul\":44:51   */\n      0x00\n        /* \"#utility.yul\":73:78   */\n      dup2\n        /* \"#utility.yul\":62:78   */\n      swap1\n      pop\n        /* \"#utility.yul\":7:84   */\n      swap2\n      swap1\n      pop\n      jump\t// out\n        /* \"#utility.yul\":90:208   */\n    tag_96:\n        /* \"#utility.yul\":177:201   */\n      tag_126\n        /* \"#utility.yul\":195:200   */\n      dup2\n        /* \"#utility.yul\":177:201   */\n      tag_95\n      jump\t// in\n    tag_126:\n        /* \"#utility.yul\":172:175   */\n      dup3\n        /* \"#utility.yul\":165:202   */\n      mstore\n        /* \"#utility.yul\":90:208   */\n      pop\n      pop\n      jump\t// out\n        /* \"#utility.yul\":214:436   */\n    tag_16:\n        /* \"#utility.yul\":307:311   */\n      0x00\n        /* \"#utility.yul\":345:347   */\n      0x20\n        /* \"#utility.yul\":334:343   */\n      dup3\n        /* \"#utility.yul\":330:348   */\n      add\n        /* \"#utility.yul\":322:348   */\n      swap1\n      pop\n        /* \"#utility.yul\":358:429   */\n      tag_128\n        /* \"#utility.yul\":426:427   */\n      0x00\n        /* \"#utility.yul\":415:424   */\n      dup4\n        /* \"#utility.yul\":411:428   */\n      add\n        /* \"#utility.yul\":402:408   */\n      dup5\n        /* \"#utility.yul\":358:429   */\n      tag_96\n      jump\t// in\n    tag_128:\n        /* \"#utility.yul\":214:436   */\n      swap3\n      swap2\n      pop\n      pop\n      jump\t// out\n        /* \"#utility.yul\":523:640   */\n    tag_98:\n        /* \"#utility.yul\":632:633   */\n      0x00\n        /* \"#utility.yul\":629:630   */\n      0x00\n        /* \"#utility.yul\":622:634   */\n      revert\n        /* \"#utility.yul\":769:891   */\n    tag_100:\n        /* \"#utility.yul\":842:866   */\n      tag_133\n        /* \"#utility.yul\":860:865   */\n      dup2\n        /* \"#utility.yul\":842:866   */\n      tag_95\n      jump\t// in\n    tag_133:\n        /* \"#utility.yul\":835:840   */\n      dup2\n        /* \"#utility.yul\":832:867   */\n      eq\n        /* \"#utility.yul\":822:885   */\n      tag_134\n      jumpi\n        /* \"#utility.yul\":881:882   */\n      0x00\n        /* \"#utility.yul\":878:879   */\n      0x00\n        /* \"#utility.yul\":871:883   */\n      revert\n        /* \"#utility.yul\":822:885   */\n    tag_134:\n        /* \"#utility.yul\":769:891   */\n      pop\n      jump\t// out\n        /* \"#utility.yul\":897:1036   */\n    tag_101:\n        /* \"#utility.yul\":943:948   */\n      0x00\n        /* \"#utility.yul\":981:987   */\n      dup2\n        /* \"#utility.yul\":968:988   */\n      calldataload\n        /* \"#utility.yul\":959:988   */\n      swap1\n      pop\n        /* \"#utility.yul\":997:1030   */\n      tag_136\n        /* \"#utility.yul\":1024:1029   */\n      dup2\n        /* \"#utility.yul\":997:1030   */\n      tag_100\n      jump\t// in\n    tag_136:\n        /* \"#utility.yul\":897:1036   */\n      swap3\n      swap2\n      pop\n      pop\n      jump\t// out\n        /* \"#utility.yul\":1042:1371   */\n    tag_20:\n        /* \"#utility.yul\":1101:1107   */\n      0x00\n        /* \"#utility.yul\":1150:1152   */\n      0x20\n        /* \"#utility.yul\":1138:1147   */\n      dup3\n        /* \"#utility.yul\":1129:1136   */\n      dup5\n        /* \"#utility.yul\":1125:1148   */\n      sub\n        /* \"#utility.yul\":1121:1153   */\n      slt\n        /* \"#utility.yul\":1118:1237   */\n      iszero\n      tag_138\n      jumpi\n        /* \"#utility.yul\":1156:1235   */\n      tag_139\n      tag_98\n      jump\t// in\n    tag_139:\n        /* \"#utility.yul\":1118:1237   */\n    tag_138:\n        /* \"#utility.yul\":1276:1277   */\n      0x00\n        /* \"#utility.yul\":1301:1354   */\n      tag_140\n        /* \"#utility.yul\":1346:1353   */\n      dup5\n        /* \"#utility.yul\":1337:1343   */\n      dup3\n        /* \"#utility.yul\":1326:1335   */\n      dup6\n        /* \"#utility.yul\":1322:1344   */\n      add\n        /* \"#utility.yul\":1301:1354   */\n      tag_101\n      jump\t// in\n    tag_140:\n        /* \"#utility.yul\":1291:1354   */\n      swap2\n      pop\n        /* \"#utility.yul\":1247:1364   */\n      pop\n        /* \"#utility.yul\":1042:1371   */\n      swap3\n      swap2\n      pop\n      pop\n      jump\t// out\n        /* \"#utility.yul\":1377:1503   */\n    tag_102:\n        /* \"#utility.yul\":1414:1421   */\n      0x00\n        /* \"#utility.yul\":1454:1496   */\n      0xffffffffffffffffffffffffffffffffffffffff\n        /* \"#utility.yul\":1447:1452   */\n      dup3\n        /* \"#utility.yul\":1443:1497   */\n      and\n        /* \"#utility.yul\":1432:1497   */\n      swap1\n      pop\n        /* \"#utility.yul\":1377:1503   */\n      swap2\n      swap1\n      pop\n      jump\t// out\n        /* \"#utility.yul\":1509:1605   */\n    tag_103:\n        /* \"#utility.yul\":1546:1553   */\n      0x00\n        /* \"#utility.yul\":1575:1599   */\n      tag_143\n        /* \"#utility.yul\":1593:1598   */\n      dup3\n        /* \"#utility.yul\":1575:1599   */\n      tag_102\n      jump\t// in\n    tag_143:\n        /* \"#utility.yul\":1564:1599   */\n      swap1\n      pop\n        /* \"#utility.yul\":1509:1605   */\n      swap2\n      swap1\n      pop\n      jump\t// out\n        /* \"#utility.yul\":1611:1733   */\n    tag_104:\n        /* \"#utility.yul\":1684:1708   */\n      tag_145\n        /* \"#utility.yul\":1702:1707   */\n      dup2\n        /* \"#utility.yul\":1684:1708   */\n      tag_103\n      jump\t// in\n    tag_145:\n        /* \"#utility.yul\":1677:1682   */\n      dup2\n        /* \"#utility.yul\":1674:1709   */\n      eq\n        /* \"#utility.yul\":1664:1727   */\n      tag_146\n      jumpi\n        /* \"#utility.yul\":1723:1724   */\n      0x00\n        /* \"#utility.yul\":1720:1721   */\n      0x00\n        /* \"#utility.yul\":1713:1725   */\n      revert\n        /* \"#utility.yul\":1664:1727   */\n    tag_146:\n        /* \"#utility.yul\":1611:1733   */\n      pop\n      jump\t// out\n        /* \"#utility.yul\":1739:1878   */\n    tag_105:\n        /* \"#utility.yul\":1785:1790   */\n      0x00\n        /* \"#utility.yul\":1823:1829   */\n      dup2\n        /* \"#utility.yul\":1810:1830   */\n      calldataload\n        /* \"#utility.yul\":1801:1830   */\n      swap1\n      pop\n        /* \"#utility.yul\":1839:1872   */\n      tag_148\n        /* \"#utility.yul\":1866:1871   */\n      dup2\n        /* \"#utility.yul\":1839:1872   */\n      tag_104\n      jump\t// in\n    tag_148:\n        /* \"#utility.yul\":1739:1878   */\n      swap3\n      swap2\n      pop\n      pop\n      jump\t// out\n        /* \"#utility.yul\":1884:2213   */\n    tag_33:\n        /* \"#utility.yul\":1943:1949   */\n      0x00\n        /* \"#utility.yul\":1992:1994   */\n      0x20\n        /* \"#utility.yul\":1980:1989   */\n      dup3\n        /* \"#utility.yul\":1971:1978   */\n      dup5\n        /* \"#utility.yul\":1967:1990   */\n      sub\n        /* \"#utility.yul\":1963:1995   */\n      slt\n        /* \"#utility.yul\":1960:2079   */\n      iszero\n      tag_150\n      jumpi\n        /* \"#utility.yul\":1998:2077   */\n      tag_151\n      tag_98\n      jump\t// in\n    tag_151:\n        /* \"#utility.yul\":1960:2079   */\n    tag_150:\n        /* \"#utility.yul\":2118:2119   */\n      0x00\n        /* \"#utility.yul\":2143:2196   */\n      tag_152\n        /* \"#utility.yul\":2188:2195   */\n      dup5\n        /* \"#utility.yul\":2179:2185   */\n      dup3\n        /* \"#utility.yul\":2168:2177   */\n      dup6\n        /* \"#utility.yul\":2164:2186   */\n      add\n        /* \"#utility.yul\":2143:2196   */\n      tag_105\n      jump\t// in\n    tag_152:\n        /* \"#utility.yul\":2133:2196   */\n      swap2\n      pop\n        /* \"#utility.yul\":2089:2206   */\n      pop\n        /* \"#utility.yul\":1884:2213   */\n      swap3\n      swap2\n      pop\n      pop\n      jump\t// out\n        /* \"#utility.yul\":2219:2388   */\n    tag_106:\n        /* \"#utility.yul\":2303:2314   */\n      0x00\n        /* \"#utility.yul\":2337:2343   */\n      dup3\n        /* \"#utility.yul\":2332:2335   */\n      dup3\n        /* \"#utility.yul\":2325:2344   */\n      mstore\n        /* \"#utility.yul\":2377:2381   */\n      0x20\n        /* \"#utility.yul\":2372:2375   */\n      dup3\n        /* \"#utility.yul\":2368:2382   */\n      add\n        /* \"#utility.yul\":2353:2382   */\n      swap1\n      pop\n        /* \"#utility.yul\":2219:2388   */\n      swap3\n      swap2\n      pop\n      pop\n      jump\t// out\n        /* \"#utility.yul\":2394:2560   */\n    tag_107:\n        /* \"#utility.yul\":2534:2552   */\n      0x5a65726f416d6f756e744e6f74416c6c00000000000000000000000000000000\n        /* \"#utility.yul\":2530:2531   */\n      0x00\n        /* \"#utility.yul\":2522:2528   */\n      dup3\n        /* \"#utility.yul\":2518:2532   */\n      add\n        /* \"#utility.yul\":2511:2553   */\n      mstore\n        /* \"#utility.yul\":2394:2560   */\n      pop\n      jump\t// out\n        /* \"#utility.yul\":2566:2932   */\n    tag_108:\n        /* \"#utility.yul\":2708:2711   */\n      0x00\n        /* \"#utility.yul\":2729:2796   */\n      tag_156\n        /* \"#utility.yul\":2793:2795   */\n      0x10\n        /* \"#utility.yul\":2788:2791   */\n      dup4\n        /* \"#utility.yul\":2729:2796   */\n      tag_106\n      jump\t// in\n    tag_156:\n        /* \"#utility.yul\":2722:2796   */\n      swap2\n      pop\n        /* \"#utility.yul\":2805:2898   */\n      tag_157\n        /* \"#utility.yul\":2894:2897   */\n      dup3\n        /* \"#utility.yul\":2805:2898   */\n      tag_107\n      jump\t// in\n    tag_157:\n        /* \"#utility.yul\":2923:2925   */\n      0x20\n        /* \"#utility.yul\":2918:2921   */\n      dup3\n        /* \"#utility.yul\":2914:2926   */\n      add\n        /* \"#utility.yul\":2907:2926   */\n      swap1\n      pop\n        /* \"#utility.yul\":2566:2932   */\n      swap2\n      swap1\n      pop\n      jump\t// out\n        /* \"#utility.yul\":2938:3023   */\n    tag_109:\n        /* \"#utility.yul\":2983:2990   */\n      0x00\n        /* \"#utility.yul\":3012:3017   */\n      dup2\n        /* \"#utility.yul\":3001:3017   */\n      swap1\n      pop\n        /* \"#utility.yul\":2938:3023   */\n      swap2\n      swap1\n      pop\n      jump\t// out\n        /* \"#utility.yul\":3029:3089   */\n    tag_110:\n        /* \"#utility.yul\":3057:3060   */\n      0x00\n        /* \"#utility.yul\":3078:3083   */\n      dup2\n        /* \"#utility.yul\":3071:3083   */\n      swap1\n      pop\n        /* \"#utility.yul\":3029:3089   */\n      swap2\n      swap1\n      pop\n      jump\t// out\n        /* \"#utility.yul\":3095:3253   */\n    tag_111:\n        /* \"#utility.yul\":3153:3162   */\n      0x00\n        /* \"#utility.yul\":3186:3247   */\n      tag_161\n        /* \"#utility.yul\":3204:3246   */\n      tag_162\n        /* \"#utility.yul\":3213:3245   */\n      tag_163\n        /* \"#utility.yul\":3239:3244   */\n      dup5\n        /* \"#utility.yul\":3213:3245   */\n      tag_109\n      jump\t// in\n    tag_163:\n        /* \"#utility.yul\":3204:3246   */\n      tag_110\n      jump\t// in\n    tag_162:\n        /* \"#utility.yul\":3186:3247   */\n      tag_95\n      jump\t// in\n    tag_161:\n        /* \"#utility.yul\":3173:3247   */\n      swap1\n      pop\n        /* \"#utility.yul\":3095:3253   */\n      swap2\n      swap1\n      pop\n      jump\t// out\n        /* \"#utility.yul\":3259:3406   */\n    tag_112:\n        /* \"#utility.yul\":3354:3399   */\n      tag_165\n        /* \"#utility.yul\":3393:3398   */\n      dup2\n        /* \"#utility.yul\":3354:3399   */\n      tag_111\n      jump\t// in\n    tag_165:\n        /* \"#utility.yul\":3349:3352   */\n      dup3\n        /* \"#utility.yul\":3342:3400   */\n      mstore\n        /* \"#utility.yul\":3259:3406   */\n      pop\n      pop\n      jump\t// out\n        /* \"#utility.yul\":3412:3957   */\n    tag_54:\n        /* \"#utility.yul\":3614:3618   */\n      0x00\n        /* \"#utility.yul\":3652:3654   */\n      0x40\n        /* \"#utility.yul\":3641:3650   */\n      dup3\n        /* \"#utility.yul\":3637:3655   */\n      add\n        /* \"#utility.yul\":3629:3655   */\n      swap1\n      pop\n        /* \"#utility.yul\":3701:3710   */\n      dup2\n        /* \"#utility.yul\":3695:3699   */\n      dup2\n        /* \"#utility.yul\":3691:3711   */\n      sub\n        /* \"#utility.yul\":3687:3688   */\n      0x00\n        /* \"#utility.yul\":3676:3685   */\n      dup4\n        /* \"#utility.yul\":3672:3689   */\n      add\n        /* \"#utility.yul\":3665:3712   */\n      mstore\n        /* \"#utility.yul\":3729:3860   */\n      tag_167\n        /* \"#utility.yul\":3855:3859   */\n      dup2\n        /* \"#utility.yul\":3729:3860   */\n      tag_108\n      jump\t// in\n    tag_167:\n        /* \"#utility.yul\":3721:3860   */\n      swap1\n      pop\n        /* \"#utility.yul\":3870:3950   */\n      tag_168\n        /* \"#utility.yul\":3946:3948   */\n      0x20\n        /* \"#utility.yul\":3935:3944   */\n      dup4\n        /* \"#utility.yul\":3931:3949   */\n      add\n        /* \"#utility.yul\":3922:3928   */\n      dup5\n        /* \"#utility.yul\":3870:3950   */\n      tag_112\n      jump\t// in\n    tag_168:\n        /* \"#utility.yul\":3412:3957   */\n      swap3\n      swap2\n      pop\n      pop\n      jump\t// out\n        /* \"#utility.yul\":3963:4139   */\n    tag_113:\n        /* \"#utility.yul\":4103:4131   */\n      0x457863656564735769746864726177616c5468726573686f6c64000000000000\n        /* \"#utility.yul\":4099:4100   */\n      0x00\n        /* \"#utility.yul\":4091:4097   */\n      dup3\n        /* \"#utility.yul\":4087:4101   */\n      add\n        /* \"#utility.yul\":4080:4132   */\n      mstore\n        /* \"#utility.yul\":3963:4139   */\n      pop\n      jump\t// out\n        /* \"#utility.yul\":4145:4511   */\n    tag_114:\n        /* \"#utility.yul\":4287:4290   */\n      0x00\n        /* \"#utility.yul\":4308:4375   */\n      tag_171\n        /* \"#utility.yul\":4372:4374   */\n      0x1a\n        /* \"#utility.yul\":4367:4370   */\n      dup4\n        /* \"#utility.yul\":4308:4375   */\n      tag_106\n      jump\t// in\n    tag_171:\n        /* \"#utility.yul\":4301:4375   */\n      swap2\n      pop\n        /* \"#utility.yul\":4384:4477   */\n      tag_172\n        /* \"#utility.yul\":4473:4476   */\n      dup3\n        /* \"#utility.yul\":4384:4477   */\n      tag_113\n      jump\t// in\n    tag_172:\n        /* \"#utility.yul\":4502:4504   */\n      0x20\n        /* \"#utility.yul\":4497:4500   */\n      dup3\n        /* \"#utility.yul\":4493:4505   */\n      add\n        /* \"#utility.yul\":4486:4505   */\n      swap1\n      pop\n        /* \"#utility.yul\":4145:4511   */\n      swap2\n      swap1\n      pop\n      jump\t// out\n        /* \"#utility.yul\":4517:5046   */\n    tag_57:\n        /* \"#utility.yul\":4711:4715   */\n      0x00\n        /* \"#utility.yul\":4749:4751   */\n      0x40\n        /* \"#utility.yul\":4738:4747   */\n      dup3\n        /* \"#utility.yul\":4734:4752   */\n      add\n        /* \"#utility.yul\":4726:4752   */\n      swap1\n      pop\n        /* \"#utility.yul\":4798:4807   */\n      dup2\n        /* \"#utility.yul\":4792:4796   */\n      dup2\n        /* \"#utility.yul\":4788:4808   */\n      sub\n        /* \"#utility.yul\":4784:4785   */\n      0x00\n        /* \"#utility.yul\":4773:4782   */\n      dup4\n        /* \"#utility.yul\":4769:4786   */\n      add\n        /* \"#utility.yul\":4762:4809   */\n      mstore\n        /* \"#utility.yul\":4826:4957   */\n      tag_174\n        /* \"#utility.yul\":4952:4956   */\n      dup2\n        /* \"#utility.yul\":4826:4957   */\n      tag_114\n      jump\t// in\n    tag_174:\n        /* \"#utility.yul\":4818:4957   */\n      swap1\n      pop\n        /* \"#utility.yul\":4967:5039   */\n      tag_175\n        /* \"#utility.yul\":5035:5037   */\n      0x20\n        /* \"#utility.yul\":5024:5033   */\n      dup4\n        /* \"#utility.yul\":5020:5038   */\n      add\n        /* \"#utility.yul\":5011:5017   */\n      dup5\n        /* \"#utility.yul\":4967:5039   */\n      tag_96\n      jump\t// in\n    tag_175:\n        /* \"#utility.yul\":4517:5046   */\n      swap3\n      swap2\n      pop\n      pop\n      jump\t// out\n        /* \"#utility.yul\":5052:5384   */\n    tag_59:\n        /* \"#utility.yul\":5173:5177   */\n      0x00\n        /* \"#utility.yul\":5211:5213   */\n      0x40\n        /* \"#utility.yul\":5200:5209   */\n      dup3\n        /* \"#utility.yul\":5196:5214   */\n      add\n        /* \"#utility.yul\":5188:5214   */\n      swap1\n      pop\n        /* \"#utility.yul\":5224:5295   */\n      tag_177\n        /* \"#utility.yul\":5292:5293   */\n      0x00\n        /* \"#utility.yul\":5281:5290   */\n      dup4\n        /* \"#utility.yul\":5277:5294   */\n      add\n        /* \"#utility.yul\":5268:5274   */\n      dup6\n        /* \"#utility.yul\":5224:5295   */\n      tag_96\n      jump\t// in\n    tag_177:\n        /* \"#utility.yul\":5305:5377   */\n      tag_178\n        /* \"#utility.yul\":5373:5375   */\n      0x20\n        /* \"#utility.yul\":5362:5371   */\n      dup4\n        /* \"#utility.yul\":5358:5376   */\n      add\n        /* \"#utility.yul\":5349:5355   */\n      dup5\n        /* \"#utility.yul\":5305:5377   */\n      tag_96\n      jump\t// in\n    tag_178:\n        /* \"#utility.yul\":5052:5384   */\n      swap4\n      swap3\n      pop\n      pop\n      pop\n      jump\t// out\n        /* \"#utility.yul\":5390:5564   */\n    tag_115:\n        /* \"#utility.yul\":5530:5556   */\n      0x496e73756666696369656e745661756c7442616c616e63650000000000000000\n        /* \"#utility.yul\":5526:5527   */\n      0x00\n        /* \"#utility.yul\":5518:5524   */\n      dup3\n        /* \"#utility.yul\":5514:5528   */\n      add\n        /* \"#utility.yul\":5507:5557   */\n      mstore\n        /* \"#utility.yul\":5390:5564   */\n      pop\n      jump\t// out\n        /* \"#utility.yul\":5570:5936   */\n    tag_116:\n        /* \"#utility.yul\":5712:5715   */\n      0x00\n        /* \"#utility.yul\":5733:5800   */\n      tag_181\n        /* \"#utility.yul\":5797:5799   */\n      0x18\n        /* \"#utility.yul\":5792:5795   */\n      dup4\n        /* \"#utility.yul\":5733:5800   */\n      tag_106\n      jump\t// in\n    tag_181:\n        /* \"#utility.yul\":5726:5800   */\n      swap2\n      pop\n        /* \"#utility.yul\":5809:5902   */\n      tag_182\n        /* \"#utility.yul\":5898:5901   */\n      dup3\n        /* \"#utility.yul\":5809:5902   */\n      tag_115\n      jump\t// in\n    tag_182:\n        /* \"#utility.yul\":5927:5929   */\n      0x20\n        /* \"#utility.yul\":5922:5925   */\n      dup3\n        /* \"#utility.yul\":5918:5930   */\n      add\n        /* \"#utility.yul\":5911:5930   */\n      swap1\n      pop\n        /* \"#utility.yul\":5570:5936   */\n      swap2\n      swap1\n      pop\n      jump\t// out\n        /* \"#utility.yul\":5942:6471   */\n    tag_62:\n        /* \"#utility.yul\":6136:6140   */\n      0x00\n        /* \"#utility.yul\":6174:6176   */\n      0x40\n        /* \"#utility.yul\":6163:6172   */\n      dup3\n        /* \"#utility.yul\":6159:6177   */\n      add\n        /* \"#utility.yul\":6151:6177   */\n      swap1\n      pop\n        /* \"#utility.yul\":6223:6232   */\n      dup2\n        /* \"#utility.yul\":6217:6221   */\n      dup2\n        /* \"#utility.yul\":6213:6233   */\n      sub\n        /* \"#utility.yul\":6209:6210   */\n      0x00\n        /* \"#utility.yul\":6198:6207   */\n      dup4\n        /* \"#utility.yul\":6194:6211   */\n      add\n        /* \"#utility.yul\":6187:6234   */\n      mstore\n        /* \"#utility.yul\":6251:6382   */\n      tag_184\n        /* \"#utility.yul\":6377:6381   */\n      dup2\n        /* \"#utility.yul\":6251:6382   */\n      tag_116\n      jump\t// in\n    tag_184:\n        /* \"#utility.yul\":6243:6382   */\n      swap1\n      pop\n        /* \"#utility.yul\":6392:6464   */\n      tag_185\n        /* \"#utility.yul\":6460:6462   */\n      0x20\n        /* \"#utility.yul\":6449:6458   */\n      dup4\n        /* \"#utility.yul\":6445:6463   */\n      add\n        /* \"#utility.yul\":6436:6442   */\n      dup5\n        /* \"#utility.yul\":6392:6464   */\n      tag_96\n      jump\t// in\n    tag_185:\n        /* \"#utility.yul\":5942:6471   */\n      swap3\n      swap2\n      pop\n      pop\n      jump\t// out\n        /* \"#utility.yul\":6477:6595   */\n    tag_117:\n        /* \"#utility.yul\":6564:6588   */\n      tag_187\n        /* \"#utility.yul\":6582:6587   */\n      dup2\n        /* \"#utility.yul\":6564:6588   */\n      tag_103\n      jump\t// in\n    tag_187:\n        /* \"#utility.yul\":6559:6562   */\n      dup3\n        /* \"#utility.yul\":6552:6589   */\n      mstore\n        /* \"#utility.yul\":6477:6595   */\n      pop\n      pop\n      jump\t// out\n        /* \"#utility.yul\":6601:7043   */\n    tag_64:\n        /* \"#utility.yul\":6750:6754   */\n      0x00\n        /* \"#utility.yul\":6788:6790   */\n      0x60\n        /* \"#utility.yul\":6777:6786   */\n      dup3\n        /* \"#utility.yul\":6773:6791   */\n      add\n        /* \"#utility.yul\":6765:6791   */\n      swap1\n      pop\n        /* \"#utility.yul\":6801:6872   */\n      tag_189\n        /* \"#utility.yul\":6869:6870   */\n      0x00\n        /* \"#utility.yul\":6858:6867   */\n      dup4\n        /* \"#utility.yul\":6854:6871   */\n      add\n        /* \"#utility.yul\":6845:6851   */\n      dup7\n        /* \"#utility.yul\":6801:6872   */\n      tag_117\n      jump\t// in\n    tag_189:\n        /* \"#utility.yul\":6882:6954   */\n      tag_190\n        /* \"#utility.yul\":6950:6952   */\n      0x20\n        /* \"#utility.yul\":6939:6948   */\n      dup4\n        /* \"#utility.yul\":6935:6953   */\n      add\n        /* \"#utility.yul\":6926:6932   */\n      dup6\n        /* \"#utility.yul\":6882:6954   */\n      tag_96\n      jump\t// in\n    tag_190:\n        /* \"#utility.yul\":6964:7036   */\n      tag_191\n        /* \"#utility.yul\":7032:7034   */\n      0x40\n        /* \"#utility.yul\":7021:7030   */\n      dup4\n        /* \"#utility.yul\":7017:7035   */\n      add\n        /* \"#utility.yul\":7008:7014   */\n      dup5\n        /* \"#utility.yul\":6964:7036   */\n      tag_96\n      jump\t// in\n    tag_191:\n        /* \"#utility.yul\":6601:7043   */\n      swap5\n      swap4\n      pop\n      pop\n      pop\n      pop\n      jump\t// out\n        /* \"#utility.yul\":7049:7491   */\n    tag_68:\n        /* \"#utility.yul\":7198:7202   */\n      0x00\n        /* \"#utility.yul\":7236:7238   */\n      0x60\n        /* \"#utility.yul\":7225:7234   */\n      dup3\n        /* \"#utility.yul\":7221:7239   */\n      add\n        /* \"#utility.yul\":7213:7239   */\n      swap1\n      pop\n        /* \"#utility.yul\":7249:7320   */\n      tag_193\n        /* \"#utility.yul\":7317:7318   */\n      0x00\n        /* \"#utility.yul\":7306:7315   */\n      dup4\n        /* \"#utility.yul\":7302:7319   */\n      add\n        /* \"#utility.yul\":7293:7299   */\n      dup7\n        /* \"#utility.yul\":7249:7320   */\n      tag_96\n      jump\t// in\n    tag_193:\n        /* \"#utility.yul\":7330:7402   */\n      tag_194\n        /* \"#utility.yul\":7398:7400   */\n      0x20\n        /* \"#utility.yul\":7387:7396   */\n      dup4\n        /* \"#utility.yul\":7383:7401   */\n      add\n        /* \"#utility.yul\":7374:7380   */\n      dup6\n        /* \"#utility.yul\":7330:7402   */\n      tag_96\n      jump\t// in\n    tag_194:\n        /* \"#utility.yul\":7412:7484   */\n      tag_195\n        /* \"#utility.yul\":7480:7482   */\n      0x40\n        /* \"#utility.yul\":7469:7478   */\n      dup4\n        /* \"#utility.yul\":7465:7483   */\n      add\n        /* \"#utility.yul\":7456:7462   */\n      dup5\n        /* \"#utility.yul\":7412:7484   */\n      tag_96\n      jump\t// in\n    tag_195:\n        /* \"#utility.yul\":7049:7491   */\n      swap5\n      swap4\n      pop\n      pop\n      pop\n      pop\n      jump\t// out\n        /* \"#utility.yul\":7497:7677   */\n    tag_118:\n        /* \"#utility.yul\":7545:7622   */\n      0x4e487b7100000000000000000000000000000000000000000000000000000000\n        /* \"#utility.yul\":7542:7543   */\n      0x00\n        /* \"#utility.yul\":7535:7623   */\n      mstore\n        /* \"#utility.yul\":7642:7646   */\n      0x11\n        /* \"#utility.yul\":7639:7640   */\n      0x04\n        /* \"#utility.yul\":7632:7647   */\n      mstore\n        /* \"#utility.yul\":7666:7670   */\n      0x24\n        /* \"#utility.yul\":7663:7664   */\n      0x00\n        /* \"#utility.yul\":7656:7671   */\n      revert\n        /* \"#utility.yul\":7683:7874   */\n    tag_71:\n        /* \"#utility.yul\":7723:7726   */\n      0x00\n        /* \"#utility.yul\":7742:7762   */\n      tag_198\n        /* \"#utility.yul\":7760:7761   */\n      dup3\n        /* \"#utility.yul\":7742:7762   */\n      tag_95\n      jump\t// in\n    tag_198:\n        /* \"#utility.yul\":7737:7762   */\n      swap2\n      pop\n        /* \"#utility.yul\":7776:7796   */\n      tag_199\n        /* \"#utility.yul\":7794:7795   */\n      dup4\n        /* \"#utility.yul\":7776:7796   */\n      tag_95\n      jump\t// in\n    tag_199:\n        /* \"#utility.yul\":7771:7796   */\n      swap3\n      pop\n        /* \"#utility.yul\":7819:7820   */\n      dup3\n        /* \"#utility.yul\":7816:7817   */\n      dup3\n        /* \"#utility.yul\":7812:7821   */\n      add\n        /* \"#utility.yul\":7805:7821   */\n      swap1\n      pop\n        /* \"#utility.yul\":7840:7843   */\n      dup1\n        /* \"#utility.yul\":7837:7838   */\n      dup3\n        /* \"#utility.yul\":7834:7844   */\n      gt\n        /* \"#utility.yul\":7831:7867   */\n      iszero\n      tag_200\n      jumpi\n        /* \"#utility.yul\":7847:7865   */\n      tag_201\n      tag_118\n      jump\t// in\n    tag_201:\n        /* \"#utility.yul\":7831:7867   */\n    tag_200:\n        /* \"#utility.yul\":7683:7874   */\n      swap3\n      swap2\n      pop\n      pop\n      jump\t// out\n        /* \"#utility.yul\":7880:8044   */\n    tag_119:\n        /* \"#utility.yul\":8020:8036   */\n      0x4578636565647342616e6b436170000000000000000000000000000000000000\n        /* \"#utility.yul\":8016:8017   */\n      0x00\n        /* \"#utility.yul\":8008:8014   */\n      dup3\n        /* \"#utility.yul\":8004:8018   */\n      add\n        /* \"#utility.yul\":7997:8037   */\n      mstore\n        /* \"#utility.yul\":7880:8044   */\n      pop\n      jump\t// out\n        /* \"#utility.yul\":8050:8416   */\n    tag_120:\n        /* \"#utility.yul\":8192:8195   */\n      0x00\n        /* \"#utility.yul\":8213:8280   */\n      tag_204\n        /* \"#utility.yul\":8277:8279   */\n      0x0e\n        /* \"#utility.yul\":8272:8275   */\n      dup4\n        /* \"#utility.yul\":8213:8280   */\n      tag_106\n      jump\t// in\n    tag_204:\n        /* \"#utility.yul\":8206:8280   */\n      swap2\n      pop\n        /* \"#utility.yul\":8289:8382   */\n      tag_205\n        /* \"#utility.yul\":8378:8381   */\n      dup3\n        /* \"#utility.yul\":8289:8382   */\n      tag_119\n      jump\t// in\n    tag_205:\n        /* \"#utility.yul\":8407:8409   */\n      0x20\n        /* \"#utility.yul\":8402:8405   */\n      dup3\n        /* \"#utility.yul\":8398:8410   */\n      add\n        /* \"#utility.yul\":8391:8410   */\n      swap1\n      pop\n        /* \"#utility.yul\":8050:8416   */\n      swap2\n      swap1\n      pop\n      jump\t// out\n        /* \"#utility.yul\":8422:8951   */\n    tag_74:\n        /* \"#utility.yul\":8616:8620   */\n      0x00\n        /* \"#utility.yul\":8654:8656   */\n      0x40\n        /* \"#utility.yul\":8643:8652   */\n      dup3\n        /* \"#utility.yul\":8639:8657   */\n      add\n        /* \"#utility.yul\":8631:8657   */\n      swap1\n      pop\n        /* \"#utility.yul\":8703:8712   */\n      dup2\n        /* \"#utility.yul\":8697:8701   */\n      dup2\n        /* \"#utility.yul\":8693:8713   */\n      sub\n        /* \"#utility.yul\":8689:8690   */\n      0x00\n        /* \"#utility.yul\":8678:8687   */\n      dup4\n        /* \"#utility.yul\":8674:8691   */\n      add\n        /* \"#utility.yul\":8667:8714   */\n      mstore\n        /* \"#utility.yul\":8731:8862   */\n      tag_207\n        /* \"#utility.yul\":8857:8861   */\n      dup2\n        /* \"#utility.yul\":8731:8862   */\n      tag_120\n      jump\t// in\n    tag_207:\n        /* \"#utility.yul\":8723:8862   */\n      swap1\n      pop\n        /* \"#utility.yul\":8872:8944   */\n      tag_208\n        /* \"#utility.yul\":8940:8942   */\n      0x20\n        /* \"#utility.yul\":8929:8938   */\n      dup4\n        /* \"#utility.yul\":8925:8943   */\n      add\n        /* \"#utility.yul\":8916:8922   */\n      dup5\n        /* \"#utility.yul\":8872:8944   */\n      tag_96\n      jump\t// in\n    tag_208:\n        /* \"#utility.yul\":8422:8951   */\n      swap3\n      swap2\n      pop\n      pop\n      jump\t// out\n        /* \"#utility.yul\":8957:9151   */\n    tag_76:\n        /* \"#utility.yul\":8997:9001   */\n      0x00\n        /* \"#utility.yul\":9017:9037   */\n      tag_210\n        /* \"#utility.yul\":9035:9036   */\n      dup3\n        /* \"#utility.yul\":9017:9037   */\n      tag_95\n      jump\t// in\n    tag_210:\n        /* \"#utility.yul\":9012:9037   */\n      swap2\n      pop\n        /* \"#utility.yul\":9051:9071   */\n      tag_211\n        /* \"#utility.yul\":9069:9070   */\n      dup4\n        /* \"#utility.yul\":9051:9071   */\n      tag_95\n      jump\t// in\n    tag_211:\n        /* \"#utility.yul\":9046:9071   */\n      swap3\n      pop\n        /* \"#utility.yul\":9095:9096   */\n      dup3\n        /* \"#utility.yul\":9092:9093   */\n      dup3\n        /* \"#utility.yul\":9088:9097   */\n      sub\n        /* \"#utility.yul\":9080:9097   */\n      swap1\n      pop\n        /* \"#utility.yul\":9119:9120   */\n      dup2\n        /* \"#utility.yul\":9113:9117   */\n      dup2\n        /* \"#utility.yul\":9110:9121   */\n      gt\n        /* \"#utility.yul\":9107:9144   */\n      iszero\n      tag_212\n      jumpi\n        /* \"#utility.yul\":9124:9142   */\n      tag_213\n      tag_118\n      jump\t// in\n    tag_213:\n        /* \"#utility.yul\":9107:9144   */\n    tag_212:\n        /* \"#utility.yul\":8957:9151   */\n      swap3\n      swap2\n      pop\n      pop\n      jump\t// out\n        /* \"#utility.yul\":9157:9326   */\n    tag_121:\n        /* \"#utility.yul\":9297:9318   */\n      0x5a65726f416d6f756e744e6f74416c6c77656400000000000000000000000000\n        /* \"#utility.yul\":9293:9294   */\n      0x00\n        /* \"#utility.yul\":9285:9291   */\n      dup3\n        /* \"#utility.yul\":9281:9295   */\n      add\n        /* \"#utility.yul\":9274:9319   */\n      mstore\n        /* \"#utility.yul\":9157:9326   */\n      pop\n      jump\t// out\n        /* \"#utility.yul\":9332:9698   */\n    tag_122:\n        /* \"#utility.yul\":9474:9477   */\n      0x00\n        /* \"#utility.yul\":9495:9562   */\n      tag_216\n        /* \"#utility.yul\":9559:9561   */\n      0x13\n        /* \"#utility.yul\":9554:9557   */\n      dup4\n        /* \"#utility.yul\":9495:9562   */\n      tag_106\n      jump\t// in\n    tag_216:\n        /* \"#utility.yul\":9488:9562   */\n      swap2\n      pop\n        /* \"#utility.yul\":9571:9664   */\n      tag_217\n        /* \"#utility.yul\":9660:9663   */\n      dup3\n        /* \"#utility.yul\":9571:9664   */\n      tag_121\n      jump\t// in\n    tag_217:\n        /* \"#utility.yul\":9689:9691   */\n      0x20\n        /* \"#utility.yul\":9684:9687   */\n      dup3\n        /* \"#utility.yul\":9680:9692   */\n      add\n        /* \"#utility.yul\":9673:9692   */\n      swap1\n      pop\n        /* \"#utility.yul\":9332:9698   */\n      swap2\n      swap1\n      pop\n      jump\t// out\n        /* \"#utility.yul\":9704:10249   */\n    tag_81:\n        /* \"#utility.yul\":9906:9910   */\n      0x00\n        /* \"#utility.yul\":9944:9946   */\n      0x40\n        /* \"#utility.yul\":9933:9942   */\n      dup3\n        /* \"#utility.yul\":9929:9947   */\n      add\n        /* \"#utility.yul\":9921:9947   */\n      swap1\n      pop\n        /* \"#utility.yul\":9993:10002   */\n      dup2\n        /* \"#utility.yul\":9987:9991   */\n      dup2\n        /* \"#utility.yul\":9983:10003   */\n      sub\n        /* \"#utility.yul\":9979:9980   */\n      0x00\n        /* \"#utility.yul\":9968:9977   */\n      dup4\n        /* \"#utility.yul\":9964:9981   */\n      add\n        /* \"#utility.yul\":9957:10004   */\n      mstore\n        /* \"#utility.yul\":10021:10152   */\n      tag_219\n        /* \"#utility.yul\":10147:10151   */\n      dup2\n        /* \"#utility.yul\":10021:10152   */\n      tag_122\n      jump\t// in\n    tag_219:\n        /* \"#utility.yul\":10013:10152   */\n      swap1\n      pop\n        /* \"#utility.yul\":10162:10242   */\n      tag_220\n        /* \"#utility.yul\":10238:10240   */\n      0x20\n        /* \"#utility.yul\":10227:10236   */\n      dup4\n        /* \"#utility.yul\":10223:10241   */\n      add\n        /* \"#utility.yul\":10214:10220   */\n      dup5\n        /* \"#utility.yul\":10162:10242   */\n      tag_112\n      jump\t// in\n    tag_220:\n        /* \"#utility.yul\":9704:10249   */\n      swap3\n      swap2\n      pop\n      pop\n      jump\t// out\n        /* \"#utility.yul\":10255:10488   */\n    tag_90:\n        /* \"#utility.yul\":10294:10297   */\n      0x00\n        /* \"#utility.yul\":10317:10341   */\n      tag_222\n        /* \"#utility.yul\":10335:10340   */\n      dup3\n        /* \"#utility.yul\":10317:10341   */\n      tag_95\n      jump\t// in\n    tag_222:\n        /* \"#utility.yul\":10308:10341   */\n      swap2\n      pop\n        /* \"#utility.yul\":10363:10429   */\n      0xffffffffffffffffffffffffffffffffffffffffffffffffffffffffffffffff\n        /* \"#utility.yul\":10356:10361   */\n      dup3\n        /* \"#utility.yul\":10353:10430   */\n      sub\n        /* \"#utility.yul\":10350:10453   */\n      tag_223\n      jumpi\n        /* \"#utility.yul\":10433:10451   */\n      tag_224\n      tag_118\n      jump\t// in\n    tag_224:\n        /* \"#utility.yul\":10350:10453   */\n    tag_223:\n        /* \"#utility.yul\":10480:10481   */\n      0x01\n        /* \"#utility.yul\":10473:10478   */\n      dup3\n        /* \"#utility.yul\":10469:10482   */\n      add\n        /* \"#utility.yul\":10462:10482   */\n      swap1\n      pop\n        /* \"#utility.yul\":10255:10488   */\n      swap2\n      swap1\n      pop\n      jump\t// out\n\n    auxdata: 0xa2646970667358221220951d0cc1088e5db19d83e2b75a202fdd13b80615cf93a01ff7a72a3606eb082c64736f6c634300081e0033\n}\n",
				"bytecode": {
					"linkReferences": {},
					"object": "60c060405234801561000f575f5ffd5b50604051610fb6380380610fb6833981810160405281019061003191906100fd565b5f82148061003e57505f81145b15610075576040517f0f43956a00000000000000000000000000000000000000000000000000000000815260040160405180910390fd5b808210156100af576040517faabd5a0900000000000000000000000000000000000000000000000000000000815260040160405180910390fd5b81608081815250508060a08181525050505061013b565b5f5ffd5b5f819050919050565b6100dc816100ca565b81146100e6575f5ffd5b50565b5f815190506100f7816100d3565b92915050565b5f5f60408385031215610113576101126100c6565b5b5f610120858286016100e9565b9250506020610131858286016100e9565b9150509250929050565b60805160a051610e3e6101785f395f81816102940152818161030b015261078f01525f8181610538015281816105bd01526107b30152610e3e5ff3fe608060405260043610610085575f3560e01c8063a622ee7c11610058578063a622ee7c1461012f578063d0e30db01461016b578063d3d7c00214610175578063e25d2e8e146101b1578063ecbea24d146101db57610085565b80632dfdf0b5146100895780632e1a7d4d146100b357806371706cbe146100db5780637d88209714610105575b5f5ffd5b348015610094575f5ffd5b5061009d610205565b6040516100aa91906108f7565b60405180910390f35b3480156100be575f5ffd5b506100d960048036038101906100d4919061093e565b61020b565b005b3480156100e6575f5ffd5b506100ef610515565b6040516100fc91906108f7565b60405180910390f35b348015610110575f5ffd5b5061011961051b565b60405161012691906108f7565b60405180910390f35b34801561013a575f5ffd5b50610155600480360381019061015091906109c3565b610520565b60405161016291906108f7565b60405180910390f35b610173610535565b005b348015610180575f5ffd5b5061019b600480360381019061019691906109c3565b610747565b6040516101a891906108f7565b60405180910390f35b3480156101bc575f5ffd5b506101c561078d565b6040516101d291906108f7565b60405180910390f35b3480156101e6575f5ffd5b506101ef6107b1565b6040516101fc91906108f7565b60405180910390f35b60015481565b5f8103610292573373ffffffffffffffffffffffffffffffffffffffff167ff541119c517482637f4067c28782ab86181c836aac97d5b2a8d752d1478338495f6040516102589190610a8a565b60405180910390a26040517f0f43956a00000000000000000000000000000000000000000000000000000000815260040160405180910390fd5b7f0000000000000000000000000000000000000000000000000000000000000000811115610367573373ffffffffffffffffffffffffffffffffffffffff167ff541119c517482637f4067c28782ab86181c836aac97d5b2a8d752d147833849826040516103009190610b00565b60405180910390a2807f00000000000000000000000000000000000000000000000000000000000000006040517f8e85bd5200000000000000000000000000000000000000000000000000000000815260040161035e929190610b2c565b60405180910390fd5b60035f3373ffffffffffffffffffffffffffffffffffffffff1673ffffffffffffffffffffffffffffffffffffffff1681526020019081526020015f2054811115610478573373ffffffffffffffffffffffffffffffffffffffff167ff541119c517482637f4067c28782ab86181c836aac97d5b2a8d752d147833849826040516103f29190610b9d565b60405180910390a2338160035f3373ffffffffffffffffffffffffffffffffffffffff1673ffffffffffffffffffffffffffffffffffffffff1681526020019081526020015f20546040517fa343d5e000000000000000000000000000000000000000000000000000000000815260040161046f93929190610bd8565b60405180910390fd5b61048233826107d5565b3373ffffffffffffffffffffffffffffffffffffffff167f9d13af23e9b71c27cef477f3213bb1a65c3d5bd1d262f06467d60b45ca285be98260035f3373ffffffffffffffffffffffffffffffffffffffff1673ffffffffffffffffffffffffffffffffffffffff1681526020019081526020015f20545f5460405161050a93929190610c0d565b60405180910390a250565b60025481565b5f5481565b6003602052805f5260405f205f915090505481565b347f0000000000000000000000000000000000000000000000000000000000000000815f546105649190610c6f565b1115610623573373ffffffffffffffffffffffffffffffffffffffff167f960c69db83012c2b65607b4050faea44e588af0eba0b5f3b610adb9669cca67b826040516105b09190610cec565b60405180910390a2805f547f00000000000000000000000000000000000000000000000000000000000000006105e69190610d18565b6040517f4274ef7700000000000000000000000000000000000000000000000000000000815260040161061a929190610b2c565b60405180910390fd5b5f34036106aa573373ffffffffffffffffffffffffffffffffffffffff167f960c69db83012c2b65607b4050faea44e588af0eba0b5f3b610adb9669cca67b5f6040516106709190610d95565b60405180910390a26040517f0f43956a00000000000000000000000000000000000000000000000000000000815260040160405180910390fd5b6106b4333461085a565b3373ffffffffffffffffffffffffffffffffffffffff167fbadf6a9cbb8d928fcfb4c613af1104439f4b4e9822469b18502ac2662f4e6c803460035f3373ffffffffffffffffffffffffffffffffffffffff1673ffffffffffffffffffffffffffffffffffffffff1681526020019081526020015f20545f5460405161073c93929190610c0d565b60405180910390a250565b5f60035f8373ffffffffffffffffffffffffffffffffffffffff1673ffffffffffffffffffffffffffffffffffffffff1681526020019081526020015f20549050919050565b7f000000000000000000000000000000000000000000000000000000000000000081565b7f000000000000000000000000000000000000000000000000000000000000000081565b8060035f8473ffffffffffffffffffffffffffffffffffffffff1673ffffffffffffffffffffffffffffffffffffffff1681526020019081526020015f205f8282546108219190610d18565b92505081905550805f5f8282546108389190610d18565b9250508190555060025f81548092919061085190610dc1565b91905055505050565b8060035f8473ffffffffffffffffffffffffffffffffffffffff1673ffffffffffffffffffffffffffffffffffffffff1681526020019081526020015f205f8282546108a69190610c6f565b92505081905550805f5f8282546108bd9190610c6f565b9250508190555060015f8154809291906108d690610dc1565b91905055505050565b5f819050919050565b6108f1816108df565b82525050565b5f60208201905061090a5f8301846108e8565b92915050565b5f5ffd5b61091d816108df565b8114610927575f5ffd5b50565b5f8135905061093881610914565b92915050565b5f6020828403121561095357610952610910565b5b5f6109608482850161092a565b91505092915050565b5f73ffffffffffffffffffffffffffffffffffffffff82169050919050565b5f61099282610969565b9050919050565b6109a281610988565b81146109ac575f5ffd5b50565b5f813590506109bd81610999565b92915050565b5f602082840312156109d8576109d7610910565b5b5f6109e5848285016109af565b91505092915050565b5f82825260208201905092915050565b7f5a65726f416d6f756e744e6f74416c6c000000000000000000000000000000005f82015250565b5f610a326010836109ee565b9150610a3d826109fe565b602082019050919050565b5f819050919050565b5f819050919050565b5f610a74610a6f610a6a84610a48565b610a51565b6108df565b9050919050565b610a8481610a5a565b82525050565b5f6040820190508181035f830152610aa181610a26565b9050610ab06020830184610a7b565b92915050565b7f457863656564735769746864726177616c5468726573686f6c640000000000005f82015250565b5f610aea601a836109ee565b9150610af582610ab6565b602082019050919050565b5f6040820190508181035f830152610b1781610ade565b9050610b2660208301846108e8565b92915050565b5f604082019050610b3f5f8301856108e8565b610b4c60208301846108e8565b9392505050565b7f496e73756666696369656e745661756c7442616c616e636500000000000000005f82015250565b5f610b876018836109ee565b9150610b9282610b53565b602082019050919050565b5f6040820190508181035f830152610bb481610b7b565b9050610bc360208301846108e8565b92915050565b610bd281610988565b82525050565b5f606082019050610beb5f830186610bc9565b610bf860208301856108e8565b610c0560408301846108e8565b949350505050565b5f606082019050610c205f8301866108e8565b610c2d60208301856108e8565b610c3a60408301846108e8565b949350505050565b7f4e487b71000000000000000000000000000000000000000000000000000000005f52601160045260245ffd5b5f610c79826108df565b9150610c84836108df565b9250828201905080821115610c9c57610c9b610c42565b5b92915050565b7f4578636565647342616e6b4361700000000000000000000000000000000000005f82015250565b5f610cd6600e836109ee565b9150610ce182610ca2565b602082019050919050565b5f6040820190508181035f830152610d0381610cca565b9050610d1260208301846108e8565b92915050565b5f610d22826108df565b9150610d2d836108df565b9250828203905081811115610d4557610d44610c42565b5b92915050565b7f5a65726f416d6f756e744e6f74416c6c776564000000000000000000000000005f82015250565b5f610d7f6013836109ee565b9150610d8a82610d4b565b602082019050919050565b5f6040820190508181035f830152610dac81610d73565b9050610dbb6020830184610a7b565b92915050565b5f610dcb826108df565b91507fffffffffffffffffffffffffffffffffffffffffffffffffffffffffffffffff8203610dfd57610dfc610c42565b5b60018201905091905056fea2646970667358221220951d0cc1088e5db19d83e2b75a202fdd13b80615cf93a01ff7a72a3606eb082c64736f6c634300081e0033",
					"opcodes": "PUSH1 0xC0 PUSH1 0x40 MSTORE CALLVALUE DUP1 ISZERO PUSH2 0xF JUMPI PUSH0 PUSH0 REVERT JUMPDEST POP PUSH1 0x40 MLOAD PUSH2 0xFB6 CODESIZE SUB DUP1 PUSH2 0xFB6 DUP4 CODECOPY DUP2 DUP2 ADD PUSH1 0x40 MSTORE DUP2 ADD SWAP1 PUSH2 0x31 SWAP2 SWAP1 PUSH2 0xFD JUMP JUMPDEST PUSH0 DUP3 EQ DUP1 PUSH2 0x3E JUMPI POP PUSH0 DUP2 EQ JUMPDEST ISZERO PUSH2 0x75 JUMPI PUSH1 0x40 MLOAD PUSH32 0xF43956A00000000000000000000000000000000000000000000000000000000 DUP2 MSTORE PUSH1 0x4 ADD PUSH1 0x40 MLOAD DUP1 SWAP2 SUB SWAP1 REVERT JUMPDEST DUP1 DUP3 LT ISZERO PUSH2 0xAF JUMPI PUSH1 0x40 MLOAD PUSH32 0xAABD5A0900000000000000000000000000000000000000000000000000000000 DUP2 MSTORE PUSH1 0x4 ADD PUSH1 0x40 MLOAD DUP1 SWAP2 SUB SWAP1 REVERT JUMPDEST DUP2 PUSH1 0x80 DUP2 DUP2 MSTORE POP POP DUP1 PUSH1 0xA0 DUP2 DUP2 MSTORE POP POP POP POP PUSH2 0x13B JUMP JUMPDEST PUSH0 PUSH0 REVERT JUMPDEST PUSH0 DUP2 SWAP1 POP SWAP2 SWAP1 POP JUMP JUMPDEST PUSH2 0xDC DUP2 PUSH2 0xCA JUMP JUMPDEST DUP2 EQ PUSH2 0xE6 JUMPI PUSH0 PUSH0 REVERT JUMPDEST POP JUMP JUMPDEST PUSH0 DUP2 MLOAD SWAP1 POP PUSH2 0xF7 DUP2 PUSH2 0xD3 JUMP JUMPDEST SWAP3 SWAP2 POP POP JUMP JUMPDEST PUSH0 PUSH0 PUSH1 0x40 DUP4 DUP6 SUB SLT ISZERO PUSH2 0x113 JUMPI PUSH2 0x112 PUSH2 0xC6 JUMP JUMPDEST JUMPDEST PUSH0 PUSH2 0x120 DUP6 DUP3 DUP7 ADD PUSH2 0xE9 JUMP JUMPDEST SWAP3 POP POP PUSH1 0x20 PUSH2 0x131 DUP6 DUP3 DUP7 ADD PUSH2 0xE9 JUMP JUMPDEST SWAP2 POP POP SWAP3 POP SWAP3 SWAP1 POP JUMP JUMPDEST PUSH1 0x80 MLOAD PUSH1 0xA0 MLOAD PUSH2 0xE3E PUSH2 0x178 PUSH0 CODECOPY PUSH0 DUP2 DUP2 PUSH2 0x294 ADD MSTORE DUP2 DUP2 PUSH2 0x30B ADD MSTORE PUSH2 0x78F ADD MSTORE PUSH0 DUP2 DUP2 PUSH2 0x538 ADD MSTORE DUP2 DUP2 PUSH2 0x5BD ADD MSTORE PUSH2 0x7B3 ADD MSTORE PUSH2 0xE3E PUSH0 RETURN INVALID PUSH1 0x80 PUSH1 0x40 MSTORE PUSH1 0x4 CALLDATASIZE LT PUSH2 0x85 JUMPI PUSH0 CALLDATALOAD PUSH1 0xE0 SHR DUP1 PUSH4 0xA622EE7C GT PUSH2 0x58 JUMPI DUP1 PUSH4 0xA622EE7C EQ PUSH2 0x12F JUMPI DUP1 PUSH4 0xD0E30DB0 EQ PUSH2 0x16B JUMPI DUP1 PUSH4 0xD3D7C002 EQ PUSH2 0x175 JUMPI DUP1 PUSH4 0xE25D2E8E EQ PUSH2 0x1B1 JUMPI DUP1 PUSH4 0xECBEA24D EQ PUSH2 0x1DB JUMPI PUSH2 0x85 JUMP JUMPDEST DUP1 PUSH4 0x2DFDF0B5 EQ PUSH2 0x89 JUMPI DUP1 PUSH4 0x2E1A7D4D EQ PUSH2 0xB3 JUMPI DUP1 PUSH4 0x71706CBE EQ PUSH2 0xDB JUMPI DUP1 PUSH4 0x7D882097 EQ PUSH2 0x105 JUMPI JUMPDEST PUSH0 PUSH0 REVERT JUMPDEST CALLVALUE DUP1 ISZERO PUSH2 0x94 JUMPI PUSH0 PUSH0 REVERT JUMPDEST POP PUSH2 0x9D PUSH2 0x205 JUMP JUMPDEST PUSH1 0x40 MLOAD PUSH2 0xAA SWAP2 SWAP1 PUSH2 0x8F7 JUMP JUMPDEST PUSH1 0x40 MLOAD DUP1 SWAP2 SUB SWAP1 RETURN JUMPDEST CALLVALUE DUP1 ISZERO PUSH2 0xBE JUMPI PUSH0 PUSH0 REVERT JUMPDEST POP PUSH2 0xD9 PUSH1 0x4 DUP1 CALLDATASIZE SUB DUP2 ADD SWAP1 PUSH2 0xD4 SWAP2 SWAP1 PUSH2 0x93E JUMP JUMPDEST PUSH2 0x20B JUMP JUMPDEST STOP JUMPDEST CALLVALUE DUP1 ISZERO PUSH2 0xE6 JUMPI PUSH0 PUSH0 REVERT JUMPDEST POP PUSH2 0xEF PUSH2 0x515 JUMP JUMPDEST PUSH1 0x40 MLOAD PUSH2 0xFC SWAP2 SWAP1 PUSH2 0x8F7 JUMP JUMPDEST PUSH1 0x40 MLOAD DUP1 SWAP2 SUB SWAP1 RETURN JUMPDEST CALLVALUE DUP1 ISZERO PUSH2 0x110 JUMPI PUSH0 PUSH0 REVERT JUMPDEST POP PUSH2 0x119 PUSH2 0x51B JUMP JUMPDEST PUSH1 0x40 MLOAD PUSH2 0x126 SWAP2 SWAP1 PUSH2 0x8F7 JUMP JUMPDEST PUSH1 0x40 MLOAD DUP1 SWAP2 SUB SWAP1 RETURN JUMPDEST CALLVALUE DUP1 ISZERO PUSH2 0x13A JUMPI PUSH0 PUSH0 REVERT JUMPDEST POP PUSH2 0x155 PUSH1 0x4 DUP1 CALLDATASIZE SUB DUP2 ADD SWAP1 PUSH2 0x150 SWAP2 SWAP1 PUSH2 0x9C3 JUMP JUMPDEST PUSH2 0x520 JUMP JUMPDEST PUSH1 0x40 MLOAD PUSH2 0x162 SWAP2 SWAP1 PUSH2 0x8F7 JUMP JUMPDEST PUSH1 0x40 MLOAD DUP1 SWAP2 SUB SWAP1 RETURN JUMPDEST PUSH2 0x173 PUSH2 0x535 JUMP JUMPDEST STOP JUMPDEST CALLVALUE DUP1 ISZERO PUSH2 0x180 JUMPI PUSH0 PUSH0 REVERT JUMPDEST POP PUSH2 0x19B PUSH1 0x4 DUP1 CALLDATASIZE SUB DUP2 ADD SWAP1 PUSH2 0x196 SWAP2 SWAP1 PUSH2 0x9C3 JUMP JUMPDEST PUSH2 0x747 JUMP JUMPDEST PUSH1 0x40 MLOAD PUSH2 0x1A8 SWAP2 SWAP1 PUSH2 0x8F7 JUMP JUMPDEST PUSH1 0x40 MLOAD DUP1 SWAP2 SUB SWAP1 RETURN JUMPDEST CALLVALUE DUP1 ISZERO PUSH2 0x1BC JUMPI PUSH0 PUSH0 REVERT JUMPDEST POP PUSH2 0x1C5 PUSH2 0x78D JUMP JUMPDEST PUSH1 0x40 MLOAD PUSH2 0x1D2 SWAP2 SWAP1 PUSH2 0x8F7 JUMP JUMPDEST PUSH1 0x40 MLOAD DUP1 SWAP2 SUB SWAP1 RETURN JUMPDEST CALLVALUE DUP1 ISZERO PUSH2 0x1E6 JUMPI PUSH0 PUSH0 REVERT JUMPDEST POP PUSH2 0x1EF PUSH2 0x7B1 JUMP JUMPDEST PUSH1 0x40 MLOAD PUSH2 0x1FC SWAP2 SWAP1 PUSH2 0x8F7 JUMP JUMPDEST PUSH1 0x40 MLOAD DUP1 SWAP2 SUB SWAP1 RETURN JUMPDEST PUSH1 0x1 SLOAD DUP2 JUMP JUMPDEST PUSH0 DUP2 SUB PUSH2 0x292 JUMPI CALLER PUSH20 0xFFFFFFFFFFFFFFFFFFFFFFFFFFFFFFFFFFFFFFFF AND PUSH32 0xF541119C517482637F4067C28782AB86181C836AAC97D5B2A8D752D147833849 PUSH0 PUSH1 0x40 MLOAD PUSH2 0x258 SWAP2 SWAP1 PUSH2 0xA8A JUMP JUMPDEST PUSH1 0x40 MLOAD DUP1 SWAP2 SUB SWAP1 LOG2 PUSH1 0x40 MLOAD PUSH32 0xF43956A00000000000000000000000000000000000000000000000000000000 DUP2 MSTORE PUSH1 0x4 ADD PUSH1 0x40 MLOAD DUP1 SWAP2 SUB SWAP1 REVERT JUMPDEST PUSH32 0x0 DUP2 GT ISZERO PUSH2 0x367 JUMPI CALLER PUSH20 0xFFFFFFFFFFFFFFFFFFFFFFFFFFFFFFFFFFFFFFFF AND PUSH32 0xF541119C517482637F4067C28782AB86181C836AAC97D5B2A8D752D147833849 DUP3 PUSH1 0x40 MLOAD PUSH2 0x300 SWAP2 SWAP1 PUSH2 0xB00 JUMP JUMPDEST PUSH1 0x40 MLOAD DUP1 SWAP2 SUB SWAP1 LOG2 DUP1 PUSH32 0x0 PUSH1 0x40 MLOAD PUSH32 0x8E85BD5200000000000000000000000000000000000000000000000000000000 DUP2 MSTORE PUSH1 0x4 ADD PUSH2 0x35E SWAP3 SWAP2 SWAP1 PUSH2 0xB2C JUMP JUMPDEST PUSH1 0x40 MLOAD DUP1 SWAP2 SUB SWAP1 REVERT JUMPDEST PUSH1 0x3 PUSH0 CALLER PUSH20 0xFFFFFFFFFFFFFFFFFFFFFFFFFFFFFFFFFFFFFFFF AND PUSH20 0xFFFFFFFFFFFFFFFFFFFFFFFFFFFFFFFFFFFFFFFF AND DUP2 MSTORE PUSH1 0x20 ADD SWAP1 DUP2 MSTORE PUSH1 0x20 ADD PUSH0 KECCAK256 SLOAD DUP2 GT ISZERO PUSH2 0x478 JUMPI CALLER PUSH20 0xFFFFFFFFFFFFFFFFFFFFFFFFFFFFFFFFFFFFFFFF AND PUSH32 0xF541119C517482637F4067C28782AB86181C836AAC97D5B2A8D752D147833849 DUP3 PUSH1 0x40 MLOAD PUSH2 0x3F2 SWAP2 SWAP1 PUSH2 0xB9D JUMP JUMPDEST PUSH1 0x40 MLOAD DUP1 SWAP2 SUB SWAP1 LOG2 CALLER DUP2 PUSH1 0x3 PUSH0 CALLER PUSH20 0xFFFFFFFFFFFFFFFFFFFFFFFFFFFFFFFFFFFFFFFF AND PUSH20 0xFFFFFFFFFFFFFFFFFFFFFFFFFFFFFFFFFFFFFFFF AND DUP2 MSTORE PUSH1 0x20 ADD SWAP1 DUP2 MSTORE PUSH1 0x20 ADD PUSH0 KECCAK256 SLOAD PUSH1 0x40 MLOAD PUSH32 0xA343D5E000000000000000000000000000000000000000000000000000000000 DUP2 MSTORE PUSH1 0x4 ADD PUSH2 0x46F SWAP4 SWAP3 SWAP2 SWAP1 PUSH2 0xBD8 JUMP JUMPDEST PUSH1 0x40 MLOAD DUP1 SWAP2 SUB SWAP1 REVERT JUMPDEST PUSH2 0x482 CALLER DUP3 PUSH2 0x7D5 JUMP JUMPDEST CALLER PUSH20 0xFFFFFFFFFFFFFFFFFFFFFFFFFFFFFFFFFFFFFFFF AND PUSH32 0x9D13AF23E9B71C27CEF477F3213BB1A65C3D5BD1D262F06467D60B45CA285BE9 DUP3 PUSH1 0x3 PUSH0 CALLER PUSH20 0xFFFFFFFFFFFFFFFFFFFFFFFFFFFFFFFFFFFFFFFF AND PUSH20 0xFFFFFFFFFFFFFFFFFFFFFFFFFFFFFFFFFFFFFFFF AND DUP2 MSTORE PUSH1 0x20 ADD SWAP1 DUP2 MSTORE PUSH1 0x20 ADD PUSH0 KECCAK256 SLOAD PUSH0 SLOAD PUSH1 0x40 MLOAD PUSH2 0x50A SWAP4 SWAP3 SWAP2 SWAP1 PUSH2 0xC0D JUMP JUMPDEST PUSH1 0x40 MLOAD DUP1 SWAP2 SUB SWAP1 LOG2 POP JUMP JUMPDEST PUSH1 0x2 SLOAD DUP2 JUMP JUMPDEST PUSH0 SLOAD DUP2 JUMP JUMPDEST PUSH1 0x3 PUSH1 0x20 MSTORE DUP1 PUSH0 MSTORE PUSH1 0x40 PUSH0 KECCAK256 PUSH0 SWAP2 POP SWAP1 POP SLOAD DUP2 JUMP JUMPDEST CALLVALUE PUSH32 0x0 DUP2 PUSH0 SLOAD PUSH2 0x564 SWAP2 SWAP1 PUSH2 0xC6F JUMP JUMPDEST GT ISZERO PUSH2 0x623 JUMPI CALLER PUSH20 0xFFFFFFFFFFFFFFFFFFFFFFFFFFFFFFFFFFFFFFFF AND PUSH32 0x960C69DB83012C2B65607B4050FAEA44E588AF0EBA0B5F3B610ADB9669CCA67B DUP3 PUSH1 0x40 MLOAD PUSH2 0x5B0 SWAP2 SWAP1 PUSH2 0xCEC JUMP JUMPDEST PUSH1 0x40 MLOAD DUP1 SWAP2 SUB SWAP1 LOG2 DUP1 PUSH0 SLOAD PUSH32 0x0 PUSH2 0x5E6 SWAP2 SWAP1 PUSH2 0xD18 JUMP JUMPDEST PUSH1 0x40 MLOAD PUSH32 0x4274EF7700000000000000000000000000000000000000000000000000000000 DUP2 MSTORE PUSH1 0x4 ADD PUSH2 0x61A SWAP3 SWAP2 SWAP1 PUSH2 0xB2C JUMP JUMPDEST PUSH1 0x40 MLOAD DUP1 SWAP2 SUB SWAP1 REVERT JUMPDEST PUSH0 CALLVALUE SUB PUSH2 0x6AA JUMPI CALLER PUSH20 0xFFFFFFFFFFFFFFFFFFFFFFFFFFFFFFFFFFFFFFFF AND PUSH32 0x960C69DB83012C2B65607B4050FAEA44E588AF0EBA0B5F3B610ADB9669CCA67B PUSH0 PUSH1 0x40 MLOAD PUSH2 0x670 SWAP2 SWAP1 PUSH2 0xD95 JUMP JUMPDEST PUSH1 0x40 MLOAD DUP1 SWAP2 SUB SWAP1 LOG2 PUSH1 0x40 MLOAD PUSH32 0xF43956A00000000000000000000000000000000000000000000000000000000 DUP2 MSTORE PUSH1 0x4 ADD PUSH1 0x40 MLOAD DUP1 SWAP2 SUB SWAP1 REVERT JUMPDEST PUSH2 0x6B4 CALLER CALLVALUE PUSH2 0x85A JUMP JUMPDEST CALLER PUSH20 0xFFFFFFFFFFFFFFFFFFFFFFFFFFFFFFFFFFFFFFFF AND PUSH32 0xBADF6A9CBB8D928FCFB4C613AF1104439F4B4E9822469B18502AC2662F4E6C80 CALLVALUE PUSH1 0x3 PUSH0 CALLER PUSH20 0xFFFFFFFFFFFFFFFFFFFFFFFFFFFFFFFFFFFFFFFF AND PUSH20 0xFFFFFFFFFFFFFFFFFFFFFFFFFFFFFFFFFFFFFFFF AND DUP2 MSTORE PUSH1 0x20 ADD SWAP1 DUP2 MSTORE PUSH1 0x20 ADD PUSH0 KECCAK256 SLOAD PUSH0 SLOAD PUSH1 0x40 MLOAD PUSH2 0x73C SWAP4 SWAP3 SWAP2 SWAP1 PUSH2 0xC0D JUMP JUMPDEST PUSH1 0x40 MLOAD DUP1 SWAP2 SUB SWAP1 LOG2 POP JUMP JUMPDEST PUSH0 PUSH1 0x3 PUSH0 DUP4 PUSH20 0xFFFFFFFFFFFFFFFFFFFFFFFFFFFFFFFFFFFFFFFF AND PUSH20 0xFFFFFFFFFFFFFFFFFFFFFFFFFFFFFFFFFFFFFFFF AND DUP2 MSTORE PUSH1 0x20 ADD SWAP1 DUP2 MSTORE PUSH1 0x20 ADD PUSH0 KECCAK256 SLOAD SWAP1 POP SWAP2 SWAP1 POP JUMP JUMPDEST PUSH32 0x0 DUP2 JUMP JUMPDEST PUSH32 0x0 DUP2 JUMP JUMPDEST DUP1 PUSH1 0x3 PUSH0 DUP5 PUSH20 0xFFFFFFFFFFFFFFFFFFFFFFFFFFFFFFFFFFFFFFFF AND PUSH20 0xFFFFFFFFFFFFFFFFFFFFFFFFFFFFFFFFFFFFFFFF AND DUP2 MSTORE PUSH1 0x20 ADD SWAP1 DUP2 MSTORE PUSH1 0x20 ADD PUSH0 KECCAK256 PUSH0 DUP3 DUP3 SLOAD PUSH2 0x821 SWAP2 SWAP1 PUSH2 0xD18 JUMP JUMPDEST SWAP3 POP POP DUP2 SWAP1 SSTORE POP DUP1 PUSH0 PUSH0 DUP3 DUP3 SLOAD PUSH2 0x838 SWAP2 SWAP1 PUSH2 0xD18 JUMP JUMPDEST SWAP3 POP POP DUP2 SWAP1 SSTORE POP PUSH1 0x2 PUSH0 DUP2 SLOAD DUP1 SWAP3 SWAP2 SWAP1 PUSH2 0x851 SWAP1 PUSH2 0xDC1 JUMP JUMPDEST SWAP2 SWAP1 POP SSTORE POP POP POP JUMP JUMPDEST DUP1 PUSH1 0x3 PUSH0 DUP5 PUSH20 0xFFFFFFFFFFFFFFFFFFFFFFFFFFFFFFFFFFFFFFFF AND PUSH20 0xFFFFFFFFFFFFFFFFFFFFFFFFFFFFFFFFFFFFFFFF AND DUP2 MSTORE PUSH1 0x20 ADD SWAP1 DUP2 MSTORE PUSH1 0x20 ADD PUSH0 KECCAK256 PUSH0 DUP3 DUP3 SLOAD PUSH2 0x8A6 SWAP2 SWAP1 PUSH2 0xC6F JUMP JUMPDEST SWAP3 POP POP DUP2 SWAP1 SSTORE POP DUP1 PUSH0 PUSH0 DUP3 DUP3 SLOAD PUSH2 0x8BD SWAP2 SWAP1 PUSH2 0xC6F JUMP JUMPDEST SWAP3 POP POP DUP2 SWAP1 SSTORE POP PUSH1 0x1 PUSH0 DUP2 SLOAD DUP1 SWAP3 SWAP2 SWAP1 PUSH2 0x8D6 SWAP1 PUSH2 0xDC1 JUMP JUMPDEST SWAP2 SWAP1 POP SSTORE POP POP POP JUMP JUMPDEST PUSH0 DUP2 SWAP1 POP SWAP2 SWAP1 POP JUMP JUMPDEST PUSH2 0x8F1 DUP2 PUSH2 0x8DF JUMP JUMPDEST DUP3 MSTORE POP POP JUMP JUMPDEST PUSH0 PUSH1 0x20 DUP3 ADD SWAP1 POP PUSH2 0x90A PUSH0 DUP4 ADD DUP5 PUSH2 0x8E8 JUMP JUMPDEST SWAP3 SWAP2 POP POP JUMP JUMPDEST PUSH0 PUSH0 REVERT JUMPDEST PUSH2 0x91D DUP2 PUSH2 0x8DF JUMP JUMPDEST DUP2 EQ PUSH2 0x927 JUMPI PUSH0 PUSH0 REVERT JUMPDEST POP JUMP JUMPDEST PUSH0 DUP2 CALLDATALOAD SWAP1 POP PUSH2 0x938 DUP2 PUSH2 0x914 JUMP JUMPDEST SWAP3 SWAP2 POP POP JUMP JUMPDEST PUSH0 PUSH1 0x20 DUP3 DUP5 SUB SLT ISZERO PUSH2 0x953 JUMPI PUSH2 0x952 PUSH2 0x910 JUMP JUMPDEST JUMPDEST PUSH0 PUSH2 0x960 DUP5 DUP3 DUP6 ADD PUSH2 0x92A JUMP JUMPDEST SWAP2 POP POP SWAP3 SWAP2 POP POP JUMP JUMPDEST PUSH0 PUSH20 0xFFFFFFFFFFFFFFFFFFFFFFFFFFFFFFFFFFFFFFFF DUP3 AND SWAP1 POP SWAP2 SWAP1 POP JUMP JUMPDEST PUSH0 PUSH2 0x992 DUP3 PUSH2 0x969 JUMP JUMPDEST SWAP1 POP SWAP2 SWAP1 POP JUMP JUMPDEST PUSH2 0x9A2 DUP2 PUSH2 0x988 JUMP JUMPDEST DUP2 EQ PUSH2 0x9AC JUMPI PUSH0 PUSH0 REVERT JUMPDEST POP JUMP JUMPDEST PUSH0 DUP2 CALLDATALOAD SWAP1 POP PUSH2 0x9BD DUP2 PUSH2 0x999 JUMP JUMPDEST SWAP3 SWAP2 POP POP JUMP JUMPDEST PUSH0 PUSH1 0x20 DUP3 DUP5 SUB SLT ISZERO PUSH2 0x9D8 JUMPI PUSH2 0x9D7 PUSH2 0x910 JUMP JUMPDEST JUMPDEST PUSH0 PUSH2 0x9E5 DUP5 DUP3 DUP6 ADD PUSH2 0x9AF JUMP JUMPDEST SWAP2 POP POP SWAP3 SWAP2 POP POP JUMP JUMPDEST PUSH0 DUP3 DUP3 MSTORE PUSH1 0x20 DUP3 ADD SWAP1 POP SWAP3 SWAP2 POP POP JUMP JUMPDEST PUSH32 0x5A65726F416D6F756E744E6F74416C6C00000000000000000000000000000000 PUSH0 DUP3 ADD MSTORE POP JUMP JUMPDEST PUSH0 PUSH2 0xA32 PUSH1 0x10 DUP4 PUSH2 0x9EE JUMP JUMPDEST SWAP2 POP PUSH2 0xA3D DUP3 PUSH2 0x9FE JUMP JUMPDEST PUSH1 0x20 DUP3 ADD SWAP1 POP SWAP2 SWAP1 POP JUMP JUMPDEST PUSH0 DUP2 SWAP1 POP SWAP2 SWAP1 POP JUMP JUMPDEST PUSH0 DUP2 SWAP1 POP SWAP2 SWAP1 POP JUMP JUMPDEST PUSH0 PUSH2 0xA74 PUSH2 0xA6F PUSH2 0xA6A DUP5 PUSH2 0xA48 JUMP JUMPDEST PUSH2 0xA51 JUMP JUMPDEST PUSH2 0x8DF JUMP JUMPDEST SWAP1 POP SWAP2 SWAP1 POP JUMP JUMPDEST PUSH2 0xA84 DUP2 PUSH2 0xA5A JUMP JUMPDEST DUP3 MSTORE POP POP JUMP JUMPDEST PUSH0 PUSH1 0x40 DUP3 ADD SWAP1 POP DUP2 DUP2 SUB PUSH0 DUP4 ADD MSTORE PUSH2 0xAA1 DUP2 PUSH2 0xA26 JUMP JUMPDEST SWAP1 POP PUSH2 0xAB0 PUSH1 0x20 DUP4 ADD DUP5 PUSH2 0xA7B JUMP JUMPDEST SWAP3 SWAP2 POP POP JUMP JUMPDEST PUSH32 0x457863656564735769746864726177616C5468726573686F6C64000000000000 PUSH0 DUP3 ADD MSTORE POP JUMP JUMPDEST PUSH0 PUSH2 0xAEA PUSH1 0x1A DUP4 PUSH2 0x9EE JUMP JUMPDEST SWAP2 POP PUSH2 0xAF5 DUP3 PUSH2 0xAB6 JUMP JUMPDEST PUSH1 0x20 DUP3 ADD SWAP1 POP SWAP2 SWAP1 POP JUMP JUMPDEST PUSH0 PUSH1 0x40 DUP3 ADD SWAP1 POP DUP2 DUP2 SUB PUSH0 DUP4 ADD MSTORE PUSH2 0xB17 DUP2 PUSH2 0xADE JUMP JUMPDEST SWAP1 POP PUSH2 0xB26 PUSH1 0x20 DUP4 ADD DUP5 PUSH2 0x8E8 JUMP JUMPDEST SWAP3 SWAP2 POP POP JUMP JUMPDEST PUSH0 PUSH1 0x40 DUP3 ADD SWAP1 POP PUSH2 0xB3F PUSH0 DUP4 ADD DUP6 PUSH2 0x8E8 JUMP JUMPDEST PUSH2 0xB4C PUSH1 0x20 DUP4 ADD DUP5 PUSH2 0x8E8 JUMP JUMPDEST SWAP4 SWAP3 POP POP POP JUMP JUMPDEST PUSH32 0x496E73756666696369656E745661756C7442616C616E63650000000000000000 PUSH0 DUP3 ADD MSTORE POP JUMP JUMPDEST PUSH0 PUSH2 0xB87 PUSH1 0x18 DUP4 PUSH2 0x9EE JUMP JUMPDEST SWAP2 POP PUSH2 0xB92 DUP3 PUSH2 0xB53 JUMP JUMPDEST PUSH1 0x20 DUP3 ADD SWAP1 POP SWAP2 SWAP1 POP JUMP JUMPDEST PUSH0 PUSH1 0x40 DUP3 ADD SWAP1 POP DUP2 DUP2 SUB PUSH0 DUP4 ADD MSTORE PUSH2 0xBB4 DUP2 PUSH2 0xB7B JUMP JUMPDEST SWAP1 POP PUSH2 0xBC3 PUSH1 0x20 DUP4 ADD DUP5 PUSH2 0x8E8 JUMP JUMPDEST SWAP3 SWAP2 POP POP JUMP JUMPDEST PUSH2 0xBD2 DUP2 PUSH2 0x988 JUMP JUMPDEST DUP3 MSTORE POP POP JUMP JUMPDEST PUSH0 PUSH1 0x60 DUP3 ADD SWAP1 POP PUSH2 0xBEB PUSH0 DUP4 ADD DUP7 PUSH2 0xBC9 JUMP JUMPDEST PUSH2 0xBF8 PUSH1 0x20 DUP4 ADD DUP6 PUSH2 0x8E8 JUMP JUMPDEST PUSH2 0xC05 PUSH1 0x40 DUP4 ADD DUP5 PUSH2 0x8E8 JUMP JUMPDEST SWAP5 SWAP4 POP POP POP POP JUMP JUMPDEST PUSH0 PUSH1 0x60 DUP3 ADD SWAP1 POP PUSH2 0xC20 PUSH0 DUP4 ADD DUP7 PUSH2 0x8E8 JUMP JUMPDEST PUSH2 0xC2D PUSH1 0x20 DUP4 ADD DUP6 PUSH2 0x8E8 JUMP JUMPDEST PUSH2 0xC3A PUSH1 0x40 DUP4 ADD DUP5 PUSH2 0x8E8 JUMP JUMPDEST SWAP5 SWAP4 POP POP POP POP JUMP JUMPDEST PUSH32 0x4E487B7100000000000000000000000000000000000000000000000000000000 PUSH0 MSTORE PUSH1 0x11 PUSH1 0x4 MSTORE PUSH1 0x24 PUSH0 REVERT JUMPDEST PUSH0 PUSH2 0xC79 DUP3 PUSH2 0x8DF JUMP JUMPDEST SWAP2 POP PUSH2 0xC84 DUP4 PUSH2 0x8DF JUMP JUMPDEST SWAP3 POP DUP3 DUP3 ADD SWAP1 POP DUP1 DUP3 GT ISZERO PUSH2 0xC9C JUMPI PUSH2 0xC9B PUSH2 0xC42 JUMP JUMPDEST JUMPDEST SWAP3 SWAP2 POP POP JUMP JUMPDEST PUSH32 0x4578636565647342616E6B436170000000000000000000000000000000000000 PUSH0 DUP3 ADD MSTORE POP JUMP JUMPDEST PUSH0 PUSH2 0xCD6 PUSH1 0xE DUP4 PUSH2 0x9EE JUMP JUMPDEST SWAP2 POP PUSH2 0xCE1 DUP3 PUSH2 0xCA2 JUMP JUMPDEST PUSH1 0x20 DUP3 ADD SWAP1 POP SWAP2 SWAP1 POP JUMP JUMPDEST PUSH0 PUSH1 0x40 DUP3 ADD SWAP1 POP DUP2 DUP2 SUB PUSH0 DUP4 ADD MSTORE PUSH2 0xD03 DUP2 PUSH2 0xCCA JUMP JUMPDEST SWAP1 POP PUSH2 0xD12 PUSH1 0x20 DUP4 ADD DUP5 PUSH2 0x8E8 JUMP JUMPDEST SWAP3 SWAP2 POP POP JUMP JUMPDEST PUSH0 PUSH2 0xD22 DUP3 PUSH2 0x8DF JUMP JUMPDEST SWAP2 POP PUSH2 0xD2D DUP4 PUSH2 0x8DF JUMP JUMPDEST SWAP3 POP DUP3 DUP3 SUB SWAP1 POP DUP2 DUP2 GT ISZERO PUSH2 0xD45 JUMPI PUSH2 0xD44 PUSH2 0xC42 JUMP JUMPDEST JUMPDEST SWAP3 SWAP2 POP POP JUMP JUMPDEST PUSH32 0x5A65726F416D6F756E744E6F74416C6C77656400000000000000000000000000 PUSH0 DUP3 ADD MSTORE POP JUMP JUMPDEST PUSH0 PUSH2 0xD7F PUSH1 0x13 DUP4 PUSH2 0x9EE JUMP JUMPDEST SWAP2 POP PUSH2 0xD8A DUP3 PUSH2 0xD4B JUMP JUMPDEST PUSH1 0x20 DUP3 ADD SWAP1 POP SWAP2 SWAP1 POP JUMP JUMPDEST PUSH0 PUSH1 0x40 DUP3 ADD SWAP1 POP DUP2 DUP2 SUB PUSH0 DUP4 ADD MSTORE PUSH2 0xDAC DUP2 PUSH2 0xD73 JUMP JUMPDEST SWAP1 POP PUSH2 0xDBB PUSH1 0x20 DUP4 ADD DUP5 PUSH2 0xA7B JUMP JUMPDEST SWAP3 SWAP2 POP POP JUMP JUMPDEST PUSH0 PUSH2 0xDCB DUP3 PUSH2 0x8DF JUMP JUMPDEST SWAP2 POP PUSH32 0xFFFFFFFFFFFFFFFFFFFFFFFFFFFFFFFFFFFFFFFFFFFFFFFFFFFFFFFFFFFFFFFF DUP3 SUB PUSH2 0xDFD JUMPI PUSH2 0xDFC PUSH2 0xC42 JUMP JUMPDEST JUMPDEST PUSH1 0x1 DUP3 ADD SWAP1 POP SWAP2 SWAP1 POP JUMP INVALID LOG2 PUSH5 0x6970667358 0x22 SLT KECCAK256 SWAP6 SAR 0xC 0xC1 ADDMOD DUP15 TSTORE 0xB1 SWAP14 DUP4 0xE2 0xB7 GAS KECCAK256 0x2F 0xDD SGT 0xB8 MOD ISZERO 0xCF SWAP4 LOG0 0x1F 0xF7 0xA7 0x2A CALLDATASIZE MOD 0xEB ADDMOD 0x2C PUSH5 0x736F6C6343 STOP ADDMOD 0x1E STOP CALLER "
				},
				"gasEstimates": {
					"creation": {
						"codeDepositCost": "729200",
						"executionCost": "infinite",
						"totalCost": "infinite"
					},
					"external": {
						"bankCap()": "infinite",
						"deposit()": "infinite",
						"depositCount()": "2426",
						"getVaultBalance(address)": "2873",
						"thresholdWithdrawal()": "infinite",
						"totalDeposits()": "2491",
						"vaults(address)": "2802",
						"withdraw(uint256)": "infinite",
						"withdrawalCount()": "2470"
					},
					"internal": {
						"_processDeposit(address,uint256)": "infinite",
						"_processWithdraw(address,uint256)": "infinite"
					}
				},
				"methodIdentifiers": {
					"bankCap()": "ecbea24d",
					"deposit()": "d0e30db0",
					"depositCount()": "2dfdf0b5",
					"getVaultBalance(address)": "d3d7c002",
					"thresholdWithdrawal()": "e25d2e8e",
					"totalDeposits()": "7d882097",
					"vaults(address)": "a622ee7c",
					"withdraw(uint256)": "2e1a7d4d",
					"withdrawalCount()": "71706cbe"
				}
			},
			"storageLayout": {
				"storage": [
					{
						"astId": 11,
						"contract": "Contracts/KipuBank.sol:KipuBank",
						"label": "totalDeposits",
						"offset": 0,
						"slot": "0",
						"type": "t_uint256"
					},
					{
						"astId": 14,
						"contract": "Contracts/KipuBank.sol:KipuBank",
						"label": "depositCount",
						"offset": 0,
						"slot": "1",
						"type": "t_uint256"
					},
					{
						"astId": 17,
						"contract": "Contracts/KipuBank.sol:KipuBank",
						"label": "withdrawalCount",
						"offset": 0,
						"slot": "2",
						"type": "t_uint256"
					},
					{
						"astId": 22,
						"contract": "Contracts/KipuBank.sol:KipuBank",
						"label": "vaults",
						"offset": 0,
						"slot": "3",
						"type": "t_mapping(t_address,t_uint256)"
					}
				],
				"types": {
					"t_address": {
						"encoding": "inplace",
						"label": "address",
						"numberOfBytes": "20"
					},
					"t_mapping(t_address,t_uint256)": {
						"encoding": "mapping",
						"key": "t_address",
						"label": "mapping(address => uint256)",
						"numberOfBytes": "32",
						"value": "t_uint256"
					},
					"t_uint256": {
						"encoding": "inplace",
						"label": "uint256",
						"numberOfBytes": "32"
					}
				}
			},
			"userdoc": {
				"errors": {
					"ExceedsBankCap(uint256,uint256)": [
						{
							"notice": "Error reverts transacction when deposit amount exceeds global bank cap.  "
						}
					],
					"ExceedsWithdrawlThreshold(uint256,uint256)": [
						{
							"notice": "Error reverts transacction when amount to withdraw exceeds  `thresholdWithdrawal` state var.  "
						}
					],
					"InsufficientVaultBalance(address,uint256,uint256)": [
						{
							"notice": "Error reverts transacction when withdrawal amount exceeds user vault balance.  "
						}
					],
					"InvalidThreshold()": [
						{
							"notice": "Error reverts deploy when `thresholdWithdrawal` > `bankCap`."
						}
					],
					"ZeroAmountNotAllowed()": [
						{
							"notice": "Error reverts when amount is cero."
						}
					]
				},
				"events": {
					"FailedDeposit(address,string,uint256)": {
						"notice": "Emit on a failed deposit"
					},
					"FailedWithdrawl(address,string,uint256)": {
						"notice": "Emit on a failed withdraw"
					},
					"SuccessDeposit(address,uint256,uint256,uint256)": {
						"notice": "Emit on a successful deposits.  "
					},
					"SuccessWithdraw(address,uint256,uint256,uint256)": {
						"notice": "Emit on a successful withdraw.  "
					}
				},
				"kind": "user",
				"methods": {
					"bankCap()": {
						"notice": "Max limit in wei that the contract accept."
					},
					"constructor": {
						"notice": "Initialize contract with bank cap and threshold withdrawl. "
					},
					"deposit()": {
						"notice": "Deposit ETH in the user vault. "
					},
					"depositCount()": {
						"notice": "Deposits operations counter.  "
					},
					"getVaultBalance(address)": {
						"notice": "View vault balance from user."
					},
					"thresholdWithdrawal()": {
						"notice": "Max limit in wei that can be withdraw by one user in each transacction."
					},
					"totalDeposits()": {
						"notice": "Total balance deposit from all user in wei.  "
					},
					"vaults(address)": {
						"notice": "User mapping to balance in vaults.  "
					},
					"withdraw(uint256)": {
						"notice": "Withdraw ETH from the user's vault."
					},
					"withdrawalCount()": {
						"notice": "Withdrawals operations counter.  "
					}
				},
				"version": 1
			}
		}
	}
}