{
	"data": {
		"bytecode": {
			"linkReferences": {},
			"object": "60c060405234801561000f575f5ffd5b50604051610fb6380380610fb6833981810160405281019061003191906100fd565b5f82148061003e57505f81145b15610075576040517f0f43956a00000000000000000000000000000000000000000000000000000000815260040160405180910390fd5b808210156100af576040517faabd5a0900000000000000000000000000000000000000000000000000000000815260040160405180910390fd5b81608081815250508060a08181525050505061013b565b5f5ffd5b5f819050919050565b6100dc816100ca565b81146100e6575f5ffd5b50565b5f815190506100f7816100d3565b92915050565b5f5f60408385031215610113576101126100c6565b5b5f610120858286016100e9565b9250506020610131858286016100e9565b9150509250929050565b60805160a051610e3e6101785f395f81816102940152818161030b015261078f01525f8181610538015281816105bd01526107b30152610e3e5ff3fe608060405260043610610085575f3560e01c8063a622ee7c11610058578063a622ee7c1461012f578063d0e30db01461016b578063d3d7c00214610175578063e25d2e8e146101b1578063ecbea24d146101db57610085565b80632dfdf0b5146100895780632e1a7d4d146100b357806371706cbe146100db5780637d88209714610105575b5f5ffd5b348015610094575f5ffd5b5061009d610205565b6040516100aa91906108f7565b60405180910390f35b3480156100be575f5ffd5b506100d960048036038101906100d4919061093e565b61020b565b005b3480156100e6575f5ffd5b506100ef610515565b6040516100fc91906108f7565b60405180910390f35b348015610110575f5ffd5b5061011961051b565b60405161012691906108f7565b60405180910390f35b34801561013a575f5ffd5b50610155600480360381019061015091906109c3565b610520565b60405161016291906108f7565b60405180910390f35b610173610535565b005b348015610180575f5ffd5b5061019b600480360381019061019691906109c3565b610747565b6040516101a891906108f7565b60405180910390f35b3480156101bc575f5ffd5b506101c561078d565b6040516101d291906108f7565b60405180910390f35b3480156101e6575f5ffd5b506101ef6107b1565b6040516101fc91906108f7565b60405180910390f35b60015481565b5f8103610292573373ffffffffffffffffffffffffffffffffffffffff167ff541119c517482637f4067c28782ab86181c836aac97d5b2a8d752d1478338495f6040516102589190610a8a565b60405180910390a26040517f0f43956a00000000000000000000000000000000000000000000000000000000815260040160405180910390fd5b7f0000000000000000000000000000000000000000000000000000000000000000811115610367573373ffffffffffffffffffffffffffffffffffffffff167ff541119c517482637f4067c28782ab86181c836aac97d5b2a8d752d147833849826040516103009190610b00565b60405180910390a2807f00000000000000000000000000000000000000000000000000000000000000006040517f8e85bd5200000000000000000000000000000000000000000000000000000000815260040161035e929190610b2c565b60405180910390fd5b60035f3373ffffffffffffffffffffffffffffffffffffffff1673ffffffffffffffffffffffffffffffffffffffff1681526020019081526020015f2054811115610478573373ffffffffffffffffffffffffffffffffffffffff167ff541119c517482637f4067c28782ab86181c836aac97d5b2a8d752d147833849826040516103f29190610b9d565b60405180910390a2338160035f3373ffffffffffffffffffffffffffffffffffffffff1673ffffffffffffffffffffffffffffffffffffffff1681526020019081526020015f20546040517fa343d5e000000000000000000000000000000000000000000000000000000000815260040161046f93929190610bd8565b60405180910390fd5b61048233826107d5565b3373ffffffffffffffffffffffffffffffffffffffff167f9d13af23e9b71c27cef477f3213bb1a65c3d5bd1d262f06467d60b45ca285be98260035f3373ffffffffffffffffffffffffffffffffffffffff1673ffffffffffffffffffffffffffffffffffffffff1681526020019081526020015f20545f5460405161050a93929190610c0d565b60405180910390a250565b60025481565b5f5481565b6003602052805f5260405f205f915090505481565b347f0000000000000000000000000000000000000000000000000000000000000000815f546105649190610c6f565b1115610623573373ffffffffffffffffffffffffffffffffffffffff167f960c69db83012c2b65607b4050faea44e588af0eba0b5f3b610adb9669cca67b826040516105b09190610cec565b60405180910390a2805f547f00000000000000000000000000000000000000000000000000000000000000006105e69190610d18565b6040517f4274ef7700000000000000000000000000000000000000000000000000000000815260040161061a929190610b2c565b60405180910390fd5b5f34036106aa573373ffffffffffffffffffffffffffffffffffffffff167f960c69db83012c2b65607b4050faea44e588af0eba0b5f3b610adb9669cca67b5f6040516106709190610d95565b60405180910390a26040517f0f43956a00000000000000000000000000000000000000000000000000000000815260040160405180910390fd5b6106b4333461085a565b3373ffffffffffffffffffffffffffffffffffffffff167fbadf6a9cbb8d928fcfb4c613af1104439f4b4e9822469b18502ac2662f4e6c803460035f3373ffffffffffffffffffffffffffffffffffffffff1673ffffffffffffffffffffffffffffffffffffffff1681526020019081526020015f20545f5460405161073c93929190610c0d565b60405180910390a250565b5f60035f8373ffffffffffffffffffffffffffffffffffffffff1673ffffffffffffffffffffffffffffffffffffffff1681526020019081526020015f20549050919050565b7f000000000000000000000000000000000000000000000000000000000000000081565b7f000000000000000000000000000000000000000000000000000000000000000081565b8060035f8473ffffffffffffffffffffffffffffffffffffffff1673ffffffffffffffffffffffffffffffffffffffff1681526020019081526020015f205f8282546108219190610d18565b92505081905550805f5f8282546108389190610d18565b9250508190555060025f81548092919061085190610dc1565b91905055505050565b8060035f8473ffffffffffffffffffffffffffffffffffffffff1673ffffffffffffffffffffffffffffffffffffffff1681526020019081526020015f205f8282546108a69190610c6f565b92505081905550805f5f8282546108bd9190610c6f565b9250508190555060015f8154809291906108d690610dc1565b91905055505050565b5f819050919050565b6108f1816108df565b82525050565b5f60208201905061090a5f8301846108e8565b92915050565b5f5ffd5b61091d816108df565b8114610927575f5ffd5b50565b5f8135905061093881610914565b92915050565b5f6020828403121561095357610952610910565b5b5f6109608482850161092a565b91505092915050565b5f73ffffffffffffffffffffffffffffffffffffffff82169050919050565b5f61099282610969565b9050919050565b6109a281610988565b81146109ac575f5ffd5b50565b5f813590506109bd81610999565b92915050565b5f602082840312156109d8576109d7610910565b5b5f6109e5848285016109af565b91505092915050565b5f82825260208201905092915050565b7f5a65726f416d6f756e744e6f74416c6c000000000000000000000000000000005f82015250565b5f610a326010836109ee565b9150610a3d826109fe565b602082019050919050565b5f819050919050565b5f819050919050565b5f610a74610a6f610a6a84610a48565b610a51565b6108df565b9050919050565b610a8481610a5a565b82525050565b5f6040820190508181035f830152610aa181610a26565b9050610ab06020830184610a7b565b92915050565b7f457863656564735769746864726177616c5468726573686f6c640000000000005f82015250565b5f610aea601a836109ee565b9150610af582610ab6565b602082019050919050565b5f6040820190508181035f830152610b1781610ade565b9050610b2660208301846108e8565b92915050565b5f604082019050610b3f5f8301856108e8565b610b4c60208301846108e8565b9392505050565b7f496e73756666696369656e745661756c7442616c616e636500000000000000005f82015250565b5f610b876018836109ee565b9150610b9282610b53565b602082019050919050565b5f6040820190508181035f830152610bb481610b7b565b9050610bc360208301846108e8565b92915050565b610bd281610988565b82525050565b5f606082019050610beb5f830186610bc9565b610bf860208301856108e8565b610c0560408301846108e8565b949350505050565b5f606082019050610c205f8301866108e8565b610c2d60208301856108e8565b610c3a60408301846108e8565b949350505050565b7f4e487b71000000000000000000000000000000000000000000000000000000005f52601160045260245ffd5b5f610c79826108df565b9150610c84836108df565b9250828201905080821115610c9c57610c9b610c42565b5b92915050565b7f4578636565647342616e6b4361700000000000000000000000000000000000005f82015250565b5f610cd6600e836109ee565b9150610ce182610ca2565b602082019050919050565b5f6040820190508181035f830152610d0381610cca565b9050610d1260208301846108e8565b92915050565b5f610d22826108df565b9150610d2d836108df565b9250828203905081811115610d4557610d44610c42565b5b92915050565b7f5a65726f416d6f756e744e6f74416c6c776564000000000000000000000000005f82015250565b5f610d7f6013836109ee565b9150610d8a82610d4b565b602082019050919050565b5f6040820190508181035f830152610dac81610d73565b9050610dbb6020830184610a7b565b92915050565b5f610dcb826108df565b91507fffffffffffffffffffffffffffffffffffffffffffffffffffffffffffffffff8203610dfd57610dfc610c42565b5b60018201905091905056fea2646970667358221220951d0cc1088e5db19d83e2b75a202fdd13b80615cf93a01ff7a72a3606eb082c64736f6c634300081e0033",
			"opcodes": "PUSH1 0xC0 PUSH1 0x40 MSTORE CALLVALUE DUP1 ISZERO PUSH2 0xF JUMPI PUSH0 PUSH0 REVERT JUMPDEST POP PUSH1 0x40 MLOAD PUSH2 0xFB6 CODESIZE SUB DUP1 PUSH2 0xFB6 DUP4 CODECOPY DUP2 DUP2 ADD PUSH1 0x40 MSTORE DUP2 ADD SWAP1 PUSH2 0x31 SWAP2 SWAP1 PUSH2 0xFD JUMP JUMPDEST PUSH0 DUP3 EQ DUP1 PUSH2 0x3E JUMPI POP PUSH0 DUP2 EQ JUMPDEST ISZERO PUSH2 0x75 JUMPI PUSH1 0x40 MLOAD PUSH32 0xF43956A00000000000000000000000000000000000000000000000000000000 DUP2 MSTORE PUSH1 0x4 ADD PUSH1 0x40 MLOAD DUP1 SWAP2 SUB SWAP1 REVERT JUMPDEST DUP1 DUP3 LT ISZERO PUSH2 0xAF JUMPI PUSH1 0x40 MLOAD PUSH32 0xAABD5A0900000000000000000000000000000000000000000000000000000000 DUP2 MSTORE PUSH1 0x4 ADD PUSH1 0x40 MLOAD DUP1 SWAP2 SUB SWAP1 REVERT JUMPDEST DUP2 PUSH1 0x80 DUP2 DUP2 MSTORE POP POP DUP1 PUSH1 0xA0 DUP2 DUP2 MSTORE POP POP POP POP PUSH2 0x13B JUMP JUMPDEST PUSH0 PUSH0 REVERT JUMPDEST PUSH0 DUP2 SWAP1 POP SWAP2 SWAP1 POP JUMP JUMPDEST PUSH2 0xDC DUP2 PUSH2 0xCA JUMP JUMPDEST DUP2 EQ PUSH2 0xE6 JUMPI PUSH0 PUSH0 REVERT JUMPDEST POP JUMP JUMPDEST PUSH0 DUP2 MLOAD SWAP1 POP PUSH2 0xF7 DUP2 PUSH2 0xD3 JUMP JUMPDEST SWAP3 SWAP2 POP POP JUMP JUMPDEST PUSH0 PUSH0 PUSH1 0x40 DUP4 DUP6 SUB SLT ISZERO PUSH2 0x113 JUMPI PUSH2 0x112 PUSH2 0xC6 JUMP JUMPDEST JUMPDEST PUSH0 PUSH2 0x120 DUP6 DUP3 DUP7 ADD PUSH2 0xE9 JUMP JUMPDEST SWAP3 POP POP PUSH1 0x20 PUSH2 0x131 DUP6 DUP3 DUP7 ADD PUSH2 0xE9 JUMP JUMPDEST SWAP2 POP POP SWAP3 POP SWAP3 SWAP1 POP JUMP JUMPDEST PUSH1 0x80 MLOAD PUSH1 0xA0 MLOAD PUSH2 0xE3E PUSH2 0x178 PUSH0 CODECOPY PUSH0 DUP2 DUP2 PUSH2 0x294 ADD MSTORE DUP2 DUP2 PUSH2 0x30B ADD MSTORE PUSH2 0x78F ADD MSTORE PUSH0 DUP2 DUP2 PUSH2 0x538 ADD MSTORE DUP2 DUP2 PUSH2 0x5BD ADD MSTORE PUSH2 0x7B3 ADD MSTORE PUSH2 0xE3E PUSH0 RETURN INVALID PUSH1 0x80 PUSH1 0x40 MSTORE PUSH1 0x4 CALLDATASIZE LT PUSH2 0x85 JUMPI PUSH0 CALLDATALOAD PUSH1 0xE0 SHR DUP1 PUSH4 0xA622EE7C GT PUSH2 0x58 JUMPI DUP1 PUSH4 0xA622EE7C EQ PUSH2 0x12F JUMPI DUP1 PUSH4 0xD0E30DB0 EQ PUSH2 0x16B JUMPI DUP1 PUSH4 0xD3D7C002 EQ PUSH2 0x175 JUMPI DUP1 PUSH4 0xE25D2E8E EQ PUSH2 0x1B1 JUMPI DUP1 PUSH4 0xECBEA24D EQ PUSH2 0x1DB JUMPI PUSH2 0x85 JUMP JUMPDEST DUP1 PUSH4 0x2DFDF0B5 EQ PUSH2 0x89 JUMPI DUP1 PUSH4 0x2E1A7D4D EQ PUSH2 0xB3 JUMPI DUP1 PUSH4 0x71706CBE EQ PUSH2 0xDB JUMPI DUP1 PUSH4 0x7D882097 EQ PUSH2 0x105 JUMPI JUMPDEST PUSH0 PUSH0 REVERT JUMPDEST CALLVALUE DUP1 ISZERO PUSH2 0x94 JUMPI PUSH0 PUSH0 REVERT JUMPDEST POP PUSH2 0x9D PUSH2 0x205 JUMP JUMPDEST PUSH1 0x40 MLOAD PUSH2 0xAA SWAP2 SWAP1 PUSH2 0x8F7 JUMP JUMPDEST PUSH1 0x40 MLOAD DUP1 SWAP2 SUB SWAP1 RETURN JUMPDEST CALLVALUE DUP1 ISZERO PUSH2 0xBE JUMPI PUSH0 PUSH0 REVERT JUMPDEST POP PUSH2 0xD9 PUSH1 0x4 DUP1 CALLDATASIZE SUB DUP2 ADD SWAP1 PUSH2 0xD4 SWAP2 SWAP1 PUSH2 0x93E JUMP JUMPDEST PUSH2 0x20B JUMP JUMPDEST STOP JUMPDEST CALLVALUE DUP1 ISZERO PUSH2 0xE6 JUMPI PUSH0 PUSH0 REVERT JUMPDEST POP PUSH2 0xEF PUSH2 0x515 JUMP JUMPDEST PUSH1 0x40 MLOAD PUSH2 0xFC SWAP2 SWAP1 PUSH2 0x8F7 JUMP JUMPDEST PUSH1 0x40 MLOAD DUP1 SWAP2 SUB SWAP1 RETURN JUMPDEST CALLVALUE DUP1 ISZERO PUSH2 0x110 JUMPI PUSH0 PUSH0 REVERT JUMPDEST POP PUSH2 0x119 PUSH2 0x51B JUMP JUMPDEST PUSH1 0x40 MLOAD PUSH2 0x126 SWAP2 SWAP1 PUSH2 0x8F7 JUMP JUMPDEST PUSH1 0x40 MLOAD DUP1 SWAP2 SUB SWAP1 RETURN JUMPDEST CALLVALUE DUP1 ISZERO PUSH2 0x13A JUMPI PUSH0 PUSH0 REVERT JUMPDEST POP PUSH2 0x155 PUSH1 0x4 DUP1 CALLDATASIZE SUB DUP2 ADD SWAP1 PUSH2 0x150 SWAP2 SWAP1 PUSH2 0x9C3 JUMP JUMPDEST PUSH2 0x520 JUMP JUMPDEST PUSH1 0x40 MLOAD PUSH2 0x162 SWAP2 SWAP1 PUSH2 0x8F7 JUMP JUMPDEST PUSH1 0x40 MLOAD DUP1 SWAP2 SUB SWAP1 RETURN JUMPDEST PUSH2 0x173 PUSH2 0x535 JUMP JUMPDEST STOP JUMPDEST CALLVALUE DUP1 ISZERO PUSH2 0x180 JUMPI PUSH0 PUSH0 REVERT JUMPDEST POP PUSH2 0x19B PUSH1 0x4 DUP1 CALLDATASIZE SUB DUP2 ADD SWAP1 PUSH2 0x196 SWAP2 SWAP1 PUSH2 0x9C3 JUMP JUMPDEST PUSH2 0x747 JUMP JUMPDEST PUSH1 0x40 MLOAD PUSH2 0x1A8 SWAP2 SWAP1 PUSH2 0x8F7 JUMP JUMPDEST PUSH1 0x40 MLOAD DUP1 SWAP2 SUB SWAP1 RETURN JUMPDEST CALLVALUE DUP1 ISZERO PUSH2 0x1BC JUMPI PUSH0 PUSH0 REVERT JUMPDEST POP PUSH2 0x1C5 PUSH2 0x78D JUMP JUMPDEST PUSH1 0x40 MLOAD PUSH2 0x1D2 SWAP2 SWAP1 PUSH2 0x8F7 JUMP JUMPDEST PUSH1 0x40 MLOAD DUP1 SWAP2 SUB SWAP1 RETURN JUMPDEST CALLVALUE DUP1 ISZERO PUSH2 0x1E6 JUMPI PUSH0 PUSH0 REVERT JUMPDEST POP PUSH2 0x1EF PUSH2 0x7B1 JUMP JUMPDEST PUSH1 0x40 MLOAD PUSH2 0x1FC SWAP2 SWAP1 PUSH2 0x8F7 JUMP JUMPDEST PUSH1 0x40 MLOAD DUP1 SWAP2 SUB SWAP1 RETURN JUMPDEST PUSH1 0x1 SLOAD DUP2 JUMP JUMPDEST PUSH0 DUP2 SUB PUSH2 0x292 JUMPI CALLER PUSH20 0xFFFFFFFFFFFFFFFFFFFFFFFFFFFFFFFFFFFFFFFF AND PUSH32 0xF541119C517482637F4067C28782AB86181C836AAC97D5B2A8D752D147833849 PUSH0 PUSH1 0x40 MLOAD PUSH2 0x258 SWAP2 SWAP1 PUSH2 0xA8A JUMP JUMPDEST PUSH1 0x40 MLOAD DUP1 SWAP2 SUB SWAP1 LOG2 PUSH1 0x40 MLOAD PUSH32 0xF43956A00000000000000000000000000000000000000000000000000000000 DUP2 MSTORE PUSH1 0x4 ADD PUSH1 0x40 MLOAD DUP1 SWAP2 SUB SWAP1 REVERT JUMPDEST PUSH32 0x0 DUP2 GT ISZERO PUSH2 0x367 JUMPI CALLER PUSH20 0xFFFFFFFFFFFFFFFFFFFFFFFFFFFFFFFFFFFFFFFF AND PUSH32 0xF541119C517482637F4067C28782AB86181C836AAC97D5B2A8D752D147833849 DUP3 PUSH1 0x40 MLOAD PUSH2 0x300 SWAP2 SWAP1 PUSH2 0xB00 JUMP JUMPDEST PUSH1 0x40 MLOAD DUP1 SWAP2 SUB SWAP1 LOG2 DUP1 PUSH32 0x0 PUSH1 0x40 MLOAD PUSH32 0x8E85BD5200000000000000000000000000000000000000000000000000000000 DUP2 MSTORE PUSH1 0x4 ADD PUSH2 0x35E SWAP3 SWAP2 SWAP1 PUSH2 0xB2C JUMP JUMPDEST PUSH1 0x40 MLOAD DUP1 SWAP2 SUB SWAP1 REVERT JUMPDEST PUSH1 0x3 PUSH0 CALLER PUSH20 0xFFFFFFFFFFFFFFFFFFFFFFFFFFFFFFFFFFFFFFFF AND PUSH20 0xFFFFFFFFFFFFFFFFFFFFFFFFFFFFFFFFFFFFFFFF AND DUP2 MSTORE PUSH1 0x20 ADD SWAP1 DUP2 MSTORE PUSH1 0x20 ADD PUSH0 KECCAK256 SLOAD DUP2 GT ISZERO PUSH2 0x478 JUMPI CALLER PUSH20 0xFFFFFFFFFFFFFFFFFFFFFFFFFFFFFFFFFFFFFFFF AND PUSH32 0xF541119C517482637F4067C28782AB86181C836AAC97D5B2A8D752D147833849 DUP3 PUSH1 0x40 MLOAD PUSH2 0x3F2 SWAP2 SWAP1 PUSH2 0xB9D JUMP JUMPDEST PUSH1 0x40 MLOAD DUP1 SWAP2 SUB SWAP1 LOG2 CALLER DUP2 PUSH1 0x3 PUSH0 CALLER PUSH20 0xFFFFFFFFFFFFFFFFFFFFFFFFFFFFFFFFFFFFFFFF AND PUSH20 0xFFFFFFFFFFFFFFFFFFFFFFFFFFFFFFFFFFFFFFFF AND DUP2 MSTORE PUSH1 0x20 ADD SWAP1 DUP2 MSTORE PUSH1 0x20 ADD PUSH0 KECCAK256 SLOAD PUSH1 0x40 MLOAD PUSH32 0xA343D5E000000000000000000000000000000000000000000000000000000000 DUP2 MSTORE PUSH1 0x4 ADD PUSH2 0x46F SWAP4 SWAP3 SWAP2 SWAP1 PUSH2 0xBD8 JUMP JUMPDEST PUSH1 0x40 MLOAD DUP1 SWAP2 SUB SWAP1 REVERT JUMPDEST PUSH2 0x482 CALLER DUP3 PUSH2 0x7D5 JUMP JUMPDEST CALLER PUSH20 0xFFFFFFFFFFFFFFFFFFFFFFFFFFFFFFFFFFFFFFFF AND PUSH32 0x9D13AF23E9B71C27CEF477F3213BB1A65C3D5BD1D262F06467D60B45CA285BE9 DUP3 PUSH1 0x3 PUSH0 CALLER PUSH20 0xFFFFFFFFFFFFFFFFFFFFFFFFFFFFFFFFFFFFFFFF AND PUSH20 0xFFFFFFFFFFFFFFFFFFFFFFFFFFFFFFFFFFFFFFFF AND DUP2 MSTORE PUSH1 0x20 ADD SWAP1 DUP2 MSTORE PUSH1 0x20 ADD PUSH0 KECCAK256 SLOAD PUSH0 SLOAD PUSH1 0x40 MLOAD PUSH2 0x50A SWAP4 SWAP3 SWAP2 SWAP1 PUSH2 0xC0D JUMP JUMPDEST PUSH1 0x40 MLOAD DUP1 SWAP2 SUB SWAP1 LOG2 POP JUMP JUMPDEST PUSH1 0x2 SLOAD DUP2 JUMP JUMPDEST PUSH0 SLOAD DUP2 JUMP JUMPDEST PUSH1 0x3 PUSH1 0x20 MSTORE DUP1 PUSH0 MSTORE PUSH1 0x40 PUSH0 KECCAK256 PUSH0 SWAP2 POP SWAP1 POP SLOAD DUP2 JUMP JUMPDEST CALLVALUE PUSH32 0x0 DUP2 PUSH0 SLOAD PUSH2 0x564 SWAP2 SWAP1 PUSH2 0xC6F JUMP JUMPDEST GT ISZERO PUSH2 0x623 JUMPI CALLER PUSH20 0xFFFFFFFFFFFFFFFFFFFFFFFFFFFFFFFFFFFFFFFF AND PUSH32 0x960C69DB83012C2B65607B4050FAEA44E588AF0EBA0B5F3B610ADB9669CCA67B DUP3 PUSH1 0x40 MLOAD PUSH2 0x5B0 SWAP2 SWAP1 PUSH2 0xCEC JUMP JUMPDEST PUSH1 0x40 MLOAD DUP1 SWAP2 SUB SWAP1 LOG2 DUP1 PUSH0 SLOAD PUSH32 0x0 PUSH2 0x5E6 SWAP2 SWAP1 PUSH2 0xD18 JUMP JUMPDEST PUSH1 0x40 MLOAD PUSH32 0x4274EF7700000000000000000000000000000000000000000000000000000000 DUP2 MSTORE PUSH1 0x4 ADD PUSH2 0x61A SWAP3 SWAP2 SWAP1 PUSH2 0xB2C JUMP JUMPDEST PUSH1 0x40 MLOAD DUP1 SWAP2 SUB SWAP1 REVERT JUMPDEST PUSH0 CALLVALUE SUB PUSH2 0x6AA JUMPI CALLER PUSH20 0xFFFFFFFFFFFFFFFFFFFFFFFFFFFFFFFFFFFFFFFF AND PUSH32 0x960C69DB83012C2B65607B4050FAEA44E588AF0EBA0B5F3B610ADB9669CCA67B PUSH0 PUSH1 0x40 MLOAD PUSH2 0x670 SWAP2 SWAP1 PUSH2 0xD95 JUMP JUMPDEST PUSH1 0x40 MLOAD DUP1 SWAP2 SUB SWAP1 LOG2 PUSH1 0x40 MLOAD PUSH32 0xF43956A00000000000000000000000000000000000000000000000000000000 DUP2 MSTORE PUSH1 0x4 ADD PUSH1 0x40 MLOAD DUP1 SWAP2 SUB SWAP1 REVERT JUMPDEST PUSH2 0x6B4 CALLER CALLVALUE PUSH2 0x85A JUMP JUMPDEST CALLER PUSH20 0xFFFFFFFFFFFFFFFFFFFFFFFFFFFFFFFFFFFFFFFF AND PUSH32 0xBADF6A9CBB8D928FCFB4C613AF1104439F4B4E9822469B18502AC2662F4E6C80 CALLVALUE PUSH1 0x3 PUSH0 CALLER PUSH20 0xFFFFFFFFFFFFFFFFFFFFFFFFFFFFFFFFFFFFFFFF AND PUSH20 0xFFFFFFFFFFFFFFFFFFFFFFFFFFFFFFFFFFFFFFFF AND DUP2 MSTORE PUSH1 0x20 ADD SWAP1 DUP2 MSTORE PUSH1 0x20 ADD PUSH0 KECCAK256 SLOAD PUSH0 SLOAD PUSH1 0x40 MLOAD PUSH2 0x73C SWAP4 SWAP3 SWAP2 SWAP1 PUSH2 0xC0D JUMP JUMPDEST PUSH1 0x40 MLOAD DUP1 SWAP2 SUB SWAP1 LOG2 POP JUMP JUMPDEST PUSH0 PUSH1 0x3 PUSH0 DUP4 PUSH20 0xFFFFFFFFFFFFFFFFFFFFFFFFFFFFFFFFFFFFFFFF AND PUSH20 0xFFFFFFFFFFFFFFFFFFFFFFFFFFFFFFFFFFFFFFFF AND DUP2 MSTORE PUSH1 0x20 ADD SWAP1 DUP2 MSTORE PUSH1 0x20 ADD PUSH0 KECCAK256 SLOAD SWAP1 POP SWAP2 SWAP1 POP JUMP JUMPDEST PUSH32 0x0 DUP2 JUMP JUMPDEST PUSH32 0x0 DUP2 JUMP JUMPDEST DUP1 PUSH1 0x3 PUSH0 DUP5 PUSH20 0xFFFFFFFFFFFFFFFFFFFFFFFFFFFFFFFFFFFFFFFF AND PUSH20 0xFFFFFFFFFFFFFFFFFFFFFFFFFFFFFFFFFFFFFFFF AND DUP2 MSTORE PUSH1 0x20 ADD SWAP1 DUP2 MSTORE PUSH1 0x20 ADD PUSH0 KECCAK256 PUSH0 DUP3 DUP3 SLOAD PUSH2 0x821 SWAP2 SWAP1 PUSH2 0xD18 JUMP JUMPDEST SWAP3 POP POP DUP2 SWAP1 SSTORE POP DUP1 PUSH0 PUSH0 DUP3 DUP3 SLOAD PUSH2 0x838 SWAP2 SWAP1 PUSH2 0xD18 JUMP JUMPDEST SWAP3 POP POP DUP2 SWAP1 SSTORE POP PUSH1 0x2 PUSH0 DUP2 SLOAD DUP1 SWAP3 SWAP2 SWAP1 PUSH2 0x851 SWAP1 PUSH2 0xDC1 JUMP JUMPDEST SWAP2 SWAP1 POP SSTORE POP POP POP JUMP JUMPDEST DUP1 PUSH1 0x3 PUSH0 DUP5 PUSH20 0xFFFFFFFFFFFFFFFFFFFFFFFFFFFFFFFFFFFFFFFF AND PUSH20 0xFFFFFFFFFFFFFFFFFFFFFFFFFFFFFFFFFFFFFFFF AND DUP2 MSTORE PUSH1 0x20 ADD SWAP1 DUP2 MSTORE PUSH1 0x20 ADD PUSH0 KECCAK256 PUSH0 DUP3 DUP3 SLOAD PUSH2 0x8A6 SWAP2 SWAP1 PUSH2 0xC6F JUMP JUMPDEST SWAP3 POP POP DUP2 SWAP1 SSTORE POP DUP1 PUSH0 PUSH0 DUP3 DUP3 SLOAD PUSH2 0x8BD SWAP2 SWAP1 PUSH2 0xC6F JUMP JUMPDEST SWAP3 POP POP DUP2 SWAP1 SSTORE POP PUSH1 0x1 PUSH0 DUP2 SLOAD DUP1 SWAP3 SWAP2 SWAP1 PUSH2 0x8D6 SWAP1 PUSH2 0xDC1 JUMP JUMPDEST SWAP2 SWAP1 POP SSTORE POP POP POP JUMP JUMPDEST PUSH0 DUP2 SWAP1 POP SWAP2 SWAP1 POP JUMP JUMPDEST PUSH2 0x8F1 DUP2 PUSH2 0x8DF JUMP JUMPDEST DUP3 MSTORE POP POP JUMP JUMPDEST PUSH0 PUSH1 0x20 DUP3 ADD SWAP1 POP PUSH2 0x90A PUSH0 DUP4 ADD DUP5 PUSH2 0x8E8 JUMP JUMPDEST SWAP3 SWAP2 POP POP JUMP JUMPDEST PUSH0 PUSH0 REVERT JUMPDEST PUSH2 0x91D DUP2 PUSH2 0x8DF JUMP JUMPDEST DUP2 EQ PUSH2 0x927 JUMPI PUSH0 PUSH0 REVERT JUMPDEST POP JUMP JUMPDEST PUSH0 DUP2 CALLDATALOAD SWAP1 POP PUSH2 0x938 DUP2 PUSH2 0x914 JUMP JUMPDEST SWAP3 SWAP2 POP POP JUMP JUMPDEST PUSH0 PUSH1 0x20 DUP3 DUP5 SUB SLT ISZERO PUSH2 0x953 JUMPI PUSH2 0x952 PUSH2 0x910 JUMP JUMPDEST JUMPDEST PUSH0 PUSH2 0x960 DUP5 DUP3 DUP6 ADD PUSH2 0x92A JUMP JUMPDEST SWAP2 POP POP SWAP3 SWAP2 POP POP JUMP JUMPDEST PUSH0 PUSH20 0xFFFFFFFFFFFFFFFFFFFFFFFFFFFFFFFFFFFFFFFF DUP3 AND SWAP1 POP SWAP2 SWAP1 POP JUMP JUMPDEST PUSH0 PUSH2 0x992 DUP3 PUSH2 0x969 JUMP JUMPDEST SWAP1 POP SWAP2 SWAP1 POP JUMP JUMPDEST PUSH2 0x9A2 DUP2 PUSH2 0x988 JUMP JUMPDEST DUP2 EQ PUSH2 0x9AC JUMPI PUSH0 PUSH0 REVERT JUMPDEST POP JUMP JUMPDEST PUSH0 DUP2 CALLDATALOAD SWAP1 POP PUSH2 0x9BD DUP2 PUSH2 0x999 JUMP JUMPDEST SWAP3 SWAP2 POP POP JUMP JUMPDEST PUSH0 PUSH1 0x20 DUP3 DUP5 SUB SLT ISZERO PUSH2 0x9D8 JUMPI PUSH2 0x9D7 PUSH2 0x910 JUMP JUMPDEST JUMPDEST PUSH0 PUSH2 0x9E5 DUP5 DUP3 DUP6 ADD PUSH2 0x9AF JUMP JUMPDEST SWAP2 POP POP SWAP3 SWAP2 POP POP JUMP JUMPDEST PUSH0 DUP3 DUP3 MSTORE PUSH1 0x20 DUP3 ADD SWAP1 POP SWAP3 SWAP2 POP POP JUMP JUMPDEST PUSH32 0x5A65726F416D6F756E744E6F74416C6C00000000000000000000000000000000 PUSH0 DUP3 ADD MSTORE POP JUMP JUMPDEST PUSH0 PUSH2 0xA32 PUSH1 0x10 DUP4 PUSH2 0x9EE JUMP JUMPDEST SWAP2 POP PUSH2 0xA3D DUP3 PUSH2 0x9FE JUMP JUMPDEST PUSH1 0x20 DUP3 ADD SWAP1 POP SWAP2 SWAP1 POP JUMP JUMPDEST PUSH0 DUP2 SWAP1 POP SWAP2 SWAP1 POP JUMP JUMPDEST PUSH0 DUP2 SWAP1 POP SWAP2 SWAP1 POP JUMP JUMPDEST PUSH0 PUSH2 0xA74 PUSH2 0xA6F PUSH2 0xA6A DUP5 PUSH2 0xA48 JUMP JUMPDEST PUSH2 0xA51 JUMP JUMPDEST PUSH2 0x8DF JUMP JUMPDEST SWAP1 POP SWAP2 SWAP1 POP JUMP JUMPDEST PUSH2 0xA84 DUP2 PUSH2 0xA5A JUMP JUMPDEST DUP3 MSTORE POP POP JUMP JUMPDEST PUSH0 PUSH1 0x40 DUP3 ADD SWAP1 POP DUP2 DUP2 SUB PUSH0 DUP4 ADD MSTORE PUSH2 0xAA1 DUP2 PUSH2 0xA26 JUMP JUMPDEST SWAP1 POP PUSH2 0xAB0 PUSH1 0x20 DUP4 ADD DUP5 PUSH2 0xA7B JUMP JUMPDEST SWAP3 SWAP2 POP POP JUMP JUMPDEST PUSH32 0x457863656564735769746864726177616C5468726573686F6C64000000000000 PUSH0 DUP3 ADD MSTORE POP JUMP JUMPDEST PUSH0 PUSH2 0xAEA PUSH1 0x1A DUP4 PUSH2 0x9EE JUMP JUMPDEST SWAP2 POP PUSH2 0xAF5 DUP3 PUSH2 0xAB6 JUMP JUMPDEST PUSH1 0x20 DUP3 ADD SWAP1 POP SWAP2 SWAP1 POP JUMP JUMPDEST PUSH0 PUSH1 0x40 DUP3 ADD SWAP1 POP DUP2 DUP2 SUB PUSH0 DUP4 ADD MSTORE PUSH2 0xB17 DUP2 PUSH2 0xADE JUMP JUMPDEST SWAP1 POP PUSH2 0xB26 PUSH1 0x20 DUP4 ADD DUP5 PUSH2 0x8E8 JUMP JUMPDEST SWAP3 SWAP2 POP POP JUMP JUMPDEST PUSH0 PUSH1 0x40 DUP3 ADD SWAP1 POP PUSH2 0xB3F PUSH0 DUP4 ADD DUP6 PUSH2 0x8E8 JUMP JUMPDEST PUSH2 0xB4C PUSH1 0x20 DUP4 ADD DUP5 PUSH2 0x8E8 JUMP JUMPDEST SWAP4 SWAP3 POP POP POP JUMP JUMPDEST PUSH32 0x496E73756666696369656E745661756C7442616C616E63650000000000000000 PUSH0 DUP3 ADD MSTORE POP JUMP JUMPDEST PUSH0 PUSH2 0xB87 PUSH1 0x18 DUP4 PUSH2 0x9EE JUMP JUMPDEST SWAP2 POP PUSH2 0xB92 DUP3 PUSH2 0xB53 JUMP JUMPDEST PUSH1 0x20 DUP3 ADD SWAP1 POP SWAP2 SWAP1 POP JUMP JUMPDEST PUSH0 PUSH1 0x40 DUP3 ADD SWAP1 POP DUP2 DUP2 SUB PUSH0 DUP4 ADD MSTORE PUSH2 0xBB4 DUP2 PUSH2 0xB7B JUMP JUMPDEST SWAP1 POP PUSH2 0xBC3 PUSH1 0x20 DUP4 ADD DUP5 PUSH2 0x8E8 JUMP JUMPDEST SWAP3 SWAP2 POP POP JUMP JUMPDEST PUSH2 0xBD2 DUP2 PUSH2 0x988 JUMP JUMPDEST DUP3 MSTORE POP POP JUMP JUMPDEST PUSH0 PUSH1 0x60 DUP3 ADD SWAP1 POP PUSH2 0xBEB PUSH0 DUP4 ADD DUP7 PUSH2 0xBC9 JUMP JUMPDEST PUSH2 0xBF8 PUSH1 0x20 DUP4 ADD DUP6 PUSH2 0x8E8 JUMP JUMPDEST PUSH2 0xC05 PUSH1 0x40 DUP4 ADD DUP5 PUSH2 0x8E8 JUMP JUMPDEST SWAP5 SWAP4 POP POP POP POP JUMP JUMPDEST PUSH0 PUSH1 0x60 DUP3 ADD SWAP1 POP PUSH2 0xC20 PUSH0 DUP4 ADD DUP7 PUSH2 0x8E8 JUMP JUMPDEST PUSH2 0xC2D PUSH1 0x20 DUP4 ADD DUP6 PUSH2 0x8E8 JUMP JUMPDEST PUSH2 0xC3A PUSH1 0x40 DUP4 ADD DUP5 PUSH2 0x8E8 JUMP JUMPDEST SWAP5 SWAP4 POP POP POP POP JUMP JUMPDEST PUSH32 0x4E487B7100000000000000000000000000000000000000000000000000000000 PUSH0 MSTORE PUSH1 0x11 PUSH1 0x4 MSTORE PUSH1 0x24 PUSH0 REVERT JUMPDEST PUSH0 PUSH2 0xC79 DUP3 PUSH2 0x8DF JUMP JUMPDEST SWAP2 POP PUSH2 0xC84 DUP4 PUSH2 0x8DF JUMP JUMPDEST SWAP3 POP DUP3 DUP3 ADD SWAP1 POP DUP1 DUP3 GT ISZERO PUSH2 0xC9C JUMPI PUSH2 0xC9B PUSH2 0xC42 JUMP JUMPDEST JUMPDEST SWAP3 SWAP2 POP POP JUMP JUMPDEST PUSH32 0x4578636565647342616E6B436170000000000000000000000000000000000000 PUSH0 DUP3 ADD MSTORE POP JUMP JUMPDEST PUSH0 PUSH2 0xCD6 PUSH1 0xE DUP4 PUSH2 0x9EE JUMP JUMPDEST SWAP2 POP PUSH2 0xCE1 DUP3 PUSH2 0xCA2 JUMP JUMPDEST PUSH1 0x20 DUP3 ADD SWAP1 POP SWAP2 SWAP1 POP JUMP JUMPDEST PUSH0 PUSH1 0x40 DUP3 ADD SWAP1 POP DUP2 DUP2 SUB PUSH0 DUP4 ADD MSTORE PUSH2 0xD03 DUP2 PUSH2 0xCCA JUMP JUMPDEST SWAP1 POP PUSH2 0xD12 PUSH1 0x20 DUP4 ADD DUP5 PUSH2 0x8E8 JUMP JUMPDEST SWAP3 SWAP2 POP POP JUMP JUMPDEST PUSH0 PUSH2 0xD22 DUP3 PUSH2 0x8DF JUMP JUMPDEST SWAP2 POP PUSH2 0xD2D DUP4 PUSH2 0x8DF JUMP JUMPDEST SWAP3 POP DUP3 DUP3 SUB SWAP1 POP DUP2 DUP2 GT ISZERO PUSH2 0xD45 JUMPI PUSH2 0xD44 PUSH2 0xC42 JUMP JUMPDEST JUMPDEST SWAP3 SWAP2 POP POP JUMP JUMPDEST PUSH32 0x5A65726F416D6F756E744E6F74416C6C77656400000000000000000000000000 PUSH0 DUP3 ADD MSTORE POP JUMP JUMPDEST PUSH0 PUSH2 0xD7F PUSH1 0x13 DUP4 PUSH2 0x9EE JUMP JUMPDEST SWAP2 POP PUSH2 0xD8A DUP3 PUSH2 0xD4B JUMP JUMPDEST PUSH1 0x20 DUP3 ADD SWAP1 POP SWAP2 SWAP1 POP JUMP JUMPDEST PUSH0 PUSH1 0x40 DUP3 ADD SWAP1 POP DUP2 DUP2 SUB PUSH0 DUP4 ADD MSTORE PUSH2 0xDAC DUP2 PUSH2 0xD73 JUMP JUMPDEST SWAP1 POP PUSH2 0xDBB PUSH1 0x20 DUP4 ADD DUP5 PUSH2 0xA7B JUMP JUMPDEST SWAP3 SWAP2 POP POP JUMP JUMPDEST PUSH0 PUSH2 0xDCB DUP3 PUSH2 0x8DF JUMP JUMPDEST SWAP2 POP PUSH32 0xFFFFFFFFFFFFFFFFFFFFFFFFFFFFFFFFFFFFFFFFFFFFFFFFFFFFFFFFFFFFFFFF DUP3 SUB PUSH2 0xDFD JUMPI PUSH2 0xDFC PUSH2 0xC42 JUMP JUMPDEST JUMPDEST PUSH1 0x1 DUP3 ADD SWAP1 POP SWAP2 SWAP1 POP JUMP INVALID LOG2 PUSH5 0x6970667358 0x22 SLT KECCAK256 SWAP6 SAR 0xC 0xC1 ADDMOD DUP15 TSTORE 0xB1 SWAP14 DUP4 0xE2 0xB7 GAS KECCAK256 0x2F 0xDD SGT 0xB8 MOD ISZERO 0xCF SWAP4 LOG0 0x1F 0xF7 0xA7 0x2A CALLDATASIZE MOD 0xEB ADDMOD 0x2C PUSH5 0x736F6C6343 STOP ADDMOD 0x1E STOP CALLER "
		},
		"gasEstimates": {
			"creation": {
				"codeDepositCost": "729200",
				"executionCost": "infinite",
				"totalCost": "infinite"
			},
			"external": {
				"bankCap()": "infinite",
				"deposit()": "infinite",
				"depositCount()": "2426",
				"getVaultBalance(address)": "2873",
				"thresholdWithdrawal()": "infinite",
				"totalDeposits()": "2491",
				"vaults(address)": "2802",
				"withdraw(uint256)": "infinite",
				"withdrawalCount()": "2470"
			},
			"internal": {
				"_processDeposit(address,uint256)": "infinite",
				"_processWithdraw(address,uint256)": "infinite"
			}
		},
		"methodIdentifiers": {
			"bankCap()": "ecbea24d",
			"deposit()": "d0e30db0",
			"depositCount()": "2dfdf0b5",
			"getVaultBalance(address)": "d3d7c002",
			"thresholdWithdrawal()": "e25d2e8e",
			"totalDeposits()": "7d882097",
			"vaults(address)": "a622ee7c",
			"withdraw(uint256)": "2e1a7d4d",
			"withdrawalCount()": "71706cbe"
		}
	},
	"abi": [
		{
			"inputs": [
				{
					"internalType": "uint256",
					"name": "_bankCap",
					"type": "uint256"
				},
				{
					"internalType": "uint256",
					"name": "_thresholdWithdrawal",
					"type": "uint256"
				}
			],
			"stateMutability": "nonpayable",
			"type": "constructor"
		},
		{
			"inputs": [
				{
					"internalType": "uint256",
					"name": "amount",
					"type": "uint256"
				},
				{
					"internalType": "uint256",
					"name": "remainBankCap",
					"type": "uint256"
				}
			],
			"name": "ExceedsBankCap",
			"type": "error"
		},
		{
			"inputs": [
				{
					"internalType": "uint256",
					"name": "amount",
					"type": "uint256"
				},
				{
					"internalType": "uint256",
					"name": "thresholdWithdrawal",
					"type": "uint256"
				}
			],
			"name": "ExceedsWithdrawlThreshold",
			"type": "error"
		},
		{
			"inputs": [
				{
					"internalType": "address",
					"name": "user",
					"type": "address"
				},
				{
					"internalType": "uint256",
					"name": "amount",
					"type": "uint256"
				},
				{
					"internalType": "uint256",
					"name": "vaultBalance",
					"type": "uint256"
				}
			],
			"name": "InsufficientVaultBalance",
			"type": "error"
		},
		{
			"inputs": [],
			"name": "InvalidThreshold",
			"type": "error"
		},
		{
			"inputs": [],
			"name": "ZeroAmountNotAllowed",
			"type": "error"
		},
		{
			"anonymous": false,
			"inputs": [
				{
					"indexed": true,
					"internalType": "address",
					"name": "user",
					"type": "address"
				},
				{
					"indexed": false,
					"internalType": "string",
					"name": "reason",
					"type": "string"
				},
				{
					"indexed": false,
					"internalType": "uint256",
					"name": "amount",
					"type": "uint256"
				}
			],
			"name": "FailedDeposit",
			"type": "event"
		},
		{
			"anonymous": false,
			"inputs": [
				{
					"indexed": true,
					"internalType": "address",
					"name": "user",
					"type": "address"
				},
				{
					"indexed": false,
					"internalType": "string",
					"name": "reason",
					"type": "string"
				},
				{
					"indexed": false,
					"internalType": "uint256",
					"name": "amount",
					"type": "uint256"
				}
			],
			"name": "FailedWithdrawl",
			"type": "event"
		},
		{
			"anonymous": false,
			"inputs": [
				{
					"indexed": true,
					"internalType": "address",
					"name": "user",
					"type": "address"
				},
				{
					"indexed": false,
					"internalType": "uint256",
					"name": "depositAmount",
					"type": "uint256"
				},
				{
					"indexed": false,
					"internalType": "uint256",
					"name": "newVaultBalance",
					"type": "uint256"
				},
				{
					"indexed": false,
					"internalType": "uint256",
					"name": "newtotalDeposits",
					"type": "uint256"
				}
			],
			"name": "SuccessDeposit",
			"type": "event"
		},
		{
			"anonymous": false,
			"inputs": [
				{
					"indexed": true,
					"internalType": "address",
					"name": "user",
					"type": "address"
				},
				{
					"indexed": false,
					"internalType": "uint256",
					"name": "withdrawAmount",
					"type": "uint256"
				},
				{
					"indexed": false,
					"internalType": "uint256",
					"name": "newVaultBalance",
					"type": "uint256"
				},
				{
					"indexed": false,
					"internalType": "uint256",
					"name": "newtotalDeposits",
					"type": "uint256"
				}
			],
			"name": "SuccessWithdraw",
			"type": "event"
		},
		{
			"inputs": [],
			"name": "bankCap",
			"outputs": [
				{
					"internalType": "uint256",
					"name": "",
					"type": "uint256"
				}
			],
			"stateMutability": "view",
			"type": "function"
		},
		{
			"inputs": [],
			"name": "deposit",
			"outputs": [],
			"stateMutability": "payable",
			"type": "function"
		},
		{
			"inputs": [],
			"name": "depositCount",
			"outputs": [
				{
					"internalType": "uint256",
					"name": "",
					"type": "uint256"
				}
			],
			"stateMutability": "view",
			"type": "function"
		},
		{
			"inputs": [
				{
					"internalType": "address",
					"name": "_user",
					"type": "address"
				}
			],
			"name": "getVaultBalance",
			"outputs": [
				{
					"internalType": "uint256",
					"name": "",
					"type": "uint256"
				}
			],
			"stateMutability": "view",
			"type": "function"
		},
		{
			"inputs": [],
			"name": "thresholdWithdrawal",
			"outputs": [
				{
					"internalType": "uint256",
					"name": "",
					"type": "uint256"
				}
			],
			"stateMutability": "view",
			"type": "function"
		},
		{
			"inputs": [],
			"name": "totalDeposits",
			"outputs": [
				{
					"internalType": "uint256",
					"name": "",
					"type": "uint256"
				}
			],
			"stateMutability": "view",
			"type": "function"
		},
		{
			"inputs": [
				{
					"internalType": "address",
					"name": "",
					"type": "address"
				}
			],
			"name": "vaults",
			"outputs": [
				{
					"internalType": "uint256",
					"name": "",
					"type": "uint256"
				}
			],
			"stateMutability": "view",
			"type": "function"
		},
		{
			"inputs": [
				{
					"internalType": "uint256",
					"name": "amount",
					"type": "uint256"
				}
			],
			"name": "withdraw",
			"outputs": [],
			"stateMutability": "nonpayable",
			"type": "function"
		},
		{
			"inputs": [],
			"name": "withdrawalCount",
			"outputs": [
				{
					"internalType": "uint256",
					"name": "",
					"type": "uint256"
				}
			],
			"stateMutability": "view",
			"type": "function"
		}
	]
}