{
	"data": {
		"bytecode": {
			"linkReferences": {},
			"object": "60c060405234801561000f575f5ffd5b506040516104873803806104878339818101604052810190610031919061007f565b8160a08181525050806080818152505050506100bd565b5f5ffd5b5f819050919050565b61005e8161004c565b8114610068575f5ffd5b50565b5f8151905061007981610055565b92915050565b5f5f6040838503121561009557610094610048565b5b5f6100a28582860161006b565b92505060206100b38582860161006b565b9150509250929050565b60805160a0516103a96100de5f395f61027c01525f6101e901526103a95ff3fe608060405260043610610085575f3560e01c80637d882097116100585780637d8820971461011d578063d0e30db014610147578063ecbea24d14610151578063ed12e8ef1461017b578063f815c03d146101a557610085565b80632dfdf0b51461008957806336b96be4146100b35780633ccfd60b146100dd57806371706cbe146100f3575b5f5ffd5b348015610094575f5ffd5b5061009d6101e1565b6040516100aa91906102d1565b60405180910390f35b3480156100be575f5ffd5b506100c76101e7565b6040516100d491906102d1565b60405180910390f35b3480156100e8575f5ffd5b506100f161020b565b005b3480156100fe575f5ffd5b50610107610241565b60405161011491906102d1565b60405180910390f35b348015610128575f5ffd5b50610131610247565b60405161013e91906102d1565b60405180910390f35b61014f61024c565b005b34801561015c575f5ffd5b5061016561027a565b60405161017291906102d1565b60405180910390f35b348015610186575f5ffd5b5061018f61029e565b60405161019c91906102d1565b60405180910390f35b3480156101b0575f5ffd5b506101cb60048036038101906101c69190610348565b6102a2565b6040516101d891906102d1565b60405180910390f35b60015481565b7f000000000000000000000000000000000000000000000000000000000000000081565b6102136102b7565b7f280b42f04be5d82c8a6162ef1c9f987aededaf27e872099e0cdaf1611354b4cb60405160405180910390a1565b60025481565b5f5481565b7f2d114f25686e0b9661379bf680fb3aa4c79d3e31f340e5a2fad166b76edf772760405160405180910390a1565b7f000000000000000000000000000000000000000000000000000000000000000081565b5f90565b6003602052805f5260405f205f915090505481565b565b5f819050919050565b6102cb816102b9565b82525050565b5f6020820190506102e45f8301846102c2565b92915050565b5f5ffd5b5f73ffffffffffffffffffffffffffffffffffffffff82169050919050565b5f610317826102ee565b9050919050565b6103278161030d565b8114610331575f5ffd5b50565b5f813590506103428161031e565b92915050565b5f6020828403121561035d5761035c6102ea565b5b5f61036a84828501610334565b9150509291505056fea2646970667358221220fca76b12d35235dae51bb9cb4610b1e1db5f838a41b10ef7ed26b434a62717de64736f6c634300081e0033",
			"opcodes": "PUSH1 0xC0 PUSH1 0x40 MSTORE CALLVALUE DUP1 ISZERO PUSH2 0xF JUMPI PUSH0 PUSH0 REVERT JUMPDEST POP PUSH1 0x40 MLOAD PUSH2 0x487 CODESIZE SUB DUP1 PUSH2 0x487 DUP4 CODECOPY DUP2 DUP2 ADD PUSH1 0x40 MSTORE DUP2 ADD SWAP1 PUSH2 0x31 SWAP2 SWAP1 PUSH2 0x7F JUMP JUMPDEST DUP2 PUSH1 0xA0 DUP2 DUP2 MSTORE POP POP DUP1 PUSH1 0x80 DUP2 DUP2 MSTORE POP POP POP POP PUSH2 0xBD JUMP JUMPDEST PUSH0 PUSH0 REVERT JUMPDEST PUSH0 DUP2 SWAP1 POP SWAP2 SWAP1 POP JUMP JUMPDEST PUSH2 0x5E DUP2 PUSH2 0x4C JUMP JUMPDEST DUP2 EQ PUSH2 0x68 JUMPI PUSH0 PUSH0 REVERT JUMPDEST POP JUMP JUMPDEST PUSH0 DUP2 MLOAD SWAP1 POP PUSH2 0x79 DUP2 PUSH2 0x55 JUMP JUMPDEST SWAP3 SWAP2 POP POP JUMP JUMPDEST PUSH0 PUSH0 PUSH1 0x40 DUP4 DUP6 SUB SLT ISZERO PUSH2 0x95 JUMPI PUSH2 0x94 PUSH2 0x48 JUMP JUMPDEST JUMPDEST PUSH0 PUSH2 0xA2 DUP6 DUP3 DUP7 ADD PUSH2 0x6B JUMP JUMPDEST SWAP3 POP POP PUSH1 0x20 PUSH2 0xB3 DUP6 DUP3 DUP7 ADD PUSH2 0x6B JUMP JUMPDEST SWAP2 POP POP SWAP3 POP SWAP3 SWAP1 POP JUMP JUMPDEST PUSH1 0x80 MLOAD PUSH1 0xA0 MLOAD PUSH2 0x3A9 PUSH2 0xDE PUSH0 CODECOPY PUSH0 PUSH2 0x27C ADD MSTORE PUSH0 PUSH2 0x1E9 ADD MSTORE PUSH2 0x3A9 PUSH0 RETURN INVALID PUSH1 0x80 PUSH1 0x40 MSTORE PUSH1 0x4 CALLDATASIZE LT PUSH2 0x85 JUMPI PUSH0 CALLDATALOAD PUSH1 0xE0 SHR DUP1 PUSH4 0x7D882097 GT PUSH2 0x58 JUMPI DUP1 PUSH4 0x7D882097 EQ PUSH2 0x11D JUMPI DUP1 PUSH4 0xD0E30DB0 EQ PUSH2 0x147 JUMPI DUP1 PUSH4 0xECBEA24D EQ PUSH2 0x151 JUMPI DUP1 PUSH4 0xED12E8EF EQ PUSH2 0x17B JUMPI DUP1 PUSH4 0xF815C03D EQ PUSH2 0x1A5 JUMPI PUSH2 0x85 JUMP JUMPDEST DUP1 PUSH4 0x2DFDF0B5 EQ PUSH2 0x89 JUMPI DUP1 PUSH4 0x36B96BE4 EQ PUSH2 0xB3 JUMPI DUP1 PUSH4 0x3CCFD60B EQ PUSH2 0xDD JUMPI DUP1 PUSH4 0x71706CBE EQ PUSH2 0xF3 JUMPI JUMPDEST PUSH0 PUSH0 REVERT JUMPDEST CALLVALUE DUP1 ISZERO PUSH2 0x94 JUMPI PUSH0 PUSH0 REVERT JUMPDEST POP PUSH2 0x9D PUSH2 0x1E1 JUMP JUMPDEST PUSH1 0x40 MLOAD PUSH2 0xAA SWAP2 SWAP1 PUSH2 0x2D1 JUMP JUMPDEST PUSH1 0x40 MLOAD DUP1 SWAP2 SUB SWAP1 RETURN JUMPDEST CALLVALUE DUP1 ISZERO PUSH2 0xBE JUMPI PUSH0 PUSH0 REVERT JUMPDEST POP PUSH2 0xC7 PUSH2 0x1E7 JUMP JUMPDEST PUSH1 0x40 MLOAD PUSH2 0xD4 SWAP2 SWAP1 PUSH2 0x2D1 JUMP JUMPDEST PUSH1 0x40 MLOAD DUP1 SWAP2 SUB SWAP1 RETURN JUMPDEST CALLVALUE DUP1 ISZERO PUSH2 0xE8 JUMPI PUSH0 PUSH0 REVERT JUMPDEST POP PUSH2 0xF1 PUSH2 0x20B JUMP JUMPDEST STOP JUMPDEST CALLVALUE DUP1 ISZERO PUSH2 0xFE JUMPI PUSH0 PUSH0 REVERT JUMPDEST POP PUSH2 0x107 PUSH2 0x241 JUMP JUMPDEST PUSH1 0x40 MLOAD PUSH2 0x114 SWAP2 SWAP1 PUSH2 0x2D1 JUMP JUMPDEST PUSH1 0x40 MLOAD DUP1 SWAP2 SUB SWAP1 RETURN JUMPDEST CALLVALUE DUP1 ISZERO PUSH2 0x128 JUMPI PUSH0 PUSH0 REVERT JUMPDEST POP PUSH2 0x131 PUSH2 0x247 JUMP JUMPDEST PUSH1 0x40 MLOAD PUSH2 0x13E SWAP2 SWAP1 PUSH2 0x2D1 JUMP JUMPDEST PUSH1 0x40 MLOAD DUP1 SWAP2 SUB SWAP1 RETURN JUMPDEST PUSH2 0x14F PUSH2 0x24C JUMP JUMPDEST STOP JUMPDEST CALLVALUE DUP1 ISZERO PUSH2 0x15C JUMPI PUSH0 PUSH0 REVERT JUMPDEST POP PUSH2 0x165 PUSH2 0x27A JUMP JUMPDEST PUSH1 0x40 MLOAD PUSH2 0x172 SWAP2 SWAP1 PUSH2 0x2D1 JUMP JUMPDEST PUSH1 0x40 MLOAD DUP1 SWAP2 SUB SWAP1 RETURN JUMPDEST CALLVALUE DUP1 ISZERO PUSH2 0x186 JUMPI PUSH0 PUSH0 REVERT JUMPDEST POP PUSH2 0x18F PUSH2 0x29E JUMP JUMPDEST PUSH1 0x40 MLOAD PUSH2 0x19C SWAP2 SWAP1 PUSH2 0x2D1 JUMP JUMPDEST PUSH1 0x40 MLOAD DUP1 SWAP2 SUB SWAP1 RETURN JUMPDEST CALLVALUE DUP1 ISZERO PUSH2 0x1B0 JUMPI PUSH0 PUSH0 REVERT JUMPDEST POP PUSH2 0x1CB PUSH1 0x4 DUP1 CALLDATASIZE SUB DUP2 ADD SWAP1 PUSH2 0x1C6 SWAP2 SWAP1 PUSH2 0x348 JUMP JUMPDEST PUSH2 0x2A2 JUMP JUMPDEST PUSH1 0x40 MLOAD PUSH2 0x1D8 SWAP2 SWAP1 PUSH2 0x2D1 JUMP JUMPDEST PUSH1 0x40 MLOAD DUP1 SWAP2 SUB SWAP1 RETURN JUMPDEST PUSH1 0x1 SLOAD DUP2 JUMP JUMPDEST PUSH32 0x0 DUP2 JUMP JUMPDEST PUSH2 0x213 PUSH2 0x2B7 JUMP JUMPDEST PUSH32 0x280B42F04BE5D82C8A6162EF1C9F987AEDEDAF27E872099E0CDAF1611354B4CB PUSH1 0x40 MLOAD PUSH1 0x40 MLOAD DUP1 SWAP2 SUB SWAP1 LOG1 JUMP JUMPDEST PUSH1 0x2 SLOAD DUP2 JUMP JUMPDEST PUSH0 SLOAD DUP2 JUMP JUMPDEST PUSH32 0x2D114F25686E0B9661379BF680FB3AA4C79D3E31F340E5A2FAD166B76EDF7727 PUSH1 0x40 MLOAD PUSH1 0x40 MLOAD DUP1 SWAP2 SUB SWAP1 LOG1 JUMP JUMPDEST PUSH32 0x0 DUP2 JUMP JUMPDEST PUSH0 SWAP1 JUMP JUMPDEST PUSH1 0x3 PUSH1 0x20 MSTORE DUP1 PUSH0 MSTORE PUSH1 0x40 PUSH0 KECCAK256 PUSH0 SWAP2 POP SWAP1 POP SLOAD DUP2 JUMP JUMPDEST JUMP JUMPDEST PUSH0 DUP2 SWAP1 POP SWAP2 SWAP1 POP JUMP JUMPDEST PUSH2 0x2CB DUP2 PUSH2 0x2B9 JUMP JUMPDEST DUP3 MSTORE POP POP JUMP JUMPDEST PUSH0 PUSH1 0x20 DUP3 ADD SWAP1 POP PUSH2 0x2E4 PUSH0 DUP4 ADD DUP5 PUSH2 0x2C2 JUMP JUMPDEST SWAP3 SWAP2 POP POP JUMP JUMPDEST PUSH0 PUSH0 REVERT JUMPDEST PUSH0 PUSH20 0xFFFFFFFFFFFFFFFFFFFFFFFFFFFFFFFFFFFFFFFF DUP3 AND SWAP1 POP SWAP2 SWAP1 POP JUMP JUMPDEST PUSH0 PUSH2 0x317 DUP3 PUSH2 0x2EE JUMP JUMPDEST SWAP1 POP SWAP2 SWAP1 POP JUMP JUMPDEST PUSH2 0x327 DUP2 PUSH2 0x30D JUMP JUMPDEST DUP2 EQ PUSH2 0x331 JUMPI PUSH0 PUSH0 REVERT JUMPDEST POP JUMP JUMPDEST PUSH0 DUP2 CALLDATALOAD SWAP1 POP PUSH2 0x342 DUP2 PUSH2 0x31E JUMP JUMPDEST SWAP3 SWAP2 POP POP JUMP JUMPDEST PUSH0 PUSH1 0x20 DUP3 DUP5 SUB SLT ISZERO PUSH2 0x35D JUMPI PUSH2 0x35C PUSH2 0x2EA JUMP JUMPDEST JUMPDEST PUSH0 PUSH2 0x36A DUP5 DUP3 DUP6 ADD PUSH2 0x334 JUMP JUMPDEST SWAP2 POP POP SWAP3 SWAP2 POP POP JUMP INVALID LOG2 PUSH5 0x6970667358 0x22 SLT KECCAK256 0xFC 0xA7 PUSH12 0x12D35235DAE51BB9CB4610B1 RJUMPI 0xDB5F DUP4 DUP11 COINBASE 0xB1 0xE 0xF7 0xED 0x26 0xB4 CALLVALUE 0xA6 0x27 OR 0xDE PUSH5 0x736F6C6343 STOP ADDMOD 0x1E STOP CALLER "
		},
		"gasEstimates": {
			"creation": {
				"codeDepositCost": "187400",
				"executionCost": "infinite",
				"totalCost": "infinite"
			},
			"external": {
				"bankCap()": "infinite",
				"deposit()": "918",
				"depositCount()": "2426",
				"getVaultBalance()": "390",
				"thresholdWithdrawl()": "infinite",
				"totalDeposits()": "2424",
				"vault(address)": "2890",
				"withdraw()": "989",
				"withdrawalCount()": "2492"
			},
			"internal": {
				"_updateTotalAfterWithdraw()": "9"
			}
		},
		"methodIdentifiers": {
			"bankCap()": "ecbea24d",
			"deposit()": "d0e30db0",
			"depositCount()": "2dfdf0b5",
			"getVaultBalance()": "ed12e8ef",
			"thresholdWithdrawl()": "36b96be4",
			"totalDeposits()": "7d882097",
			"vault(address)": "f815c03d",
			"withdraw()": "3ccfd60b",
			"withdrawalCount()": "71706cbe"
		}
	},
	"abi": [
		{
			"inputs": [
				{
					"internalType": "uint256",
					"name": "_bankCap",
					"type": "uint256"
				},
				{
					"internalType": "uint256",
					"name": "_thresholdWithdrawl",
					"type": "uint256"
				}
			],
			"stateMutability": "nonpayable",
			"type": "constructor"
		},
		{
			"inputs": [],
			"name": "ExceedsBankCap",
			"type": "error"
		},
		{
			"inputs": [],
			"name": "ExceedsThresholdWithdrawl",
			"type": "error"
		},
		{
			"inputs": [],
			"name": "InsufficientVaultBalance",
			"type": "error"
		},
		{
			"inputs": [],
			"name": "InvalidThreshold",
			"type": "error"
		},
		{
			"inputs": [],
			"name": "ZeroAmountNotAllowed",
			"type": "error"
		},
		{
			"anonymous": false,
			"inputs": [],
			"name": "NewDeposit",
			"type": "event"
		},
		{
			"anonymous": false,
			"inputs": [],
			"name": "NewWithdrawal",
			"type": "event"
		},
		{
			"inputs": [],
			"name": "bankCap",
			"outputs": [
				{
					"internalType": "uint256",
					"name": "",
					"type": "uint256"
				}
			],
			"stateMutability": "view",
			"type": "function"
		},
		{
			"inputs": [],
			"name": "deposit",
			"outputs": [],
			"stateMutability": "payable",
			"type": "function"
		},
		{
			"inputs": [],
			"name": "depositCount",
			"outputs": [
				{
					"internalType": "uint256",
					"name": "",
					"type": "uint256"
				}
			],
			"stateMutability": "view",
			"type": "function"
		},
		{
			"inputs": [],
			"name": "getVaultBalance",
			"outputs": [
				{
					"internalType": "uint256",
					"name": "",
					"type": "uint256"
				}
			],
			"stateMutability": "view",
			"type": "function"
		},
		{
			"inputs": [],
			"name": "thresholdWithdrawl",
			"outputs": [
				{
					"internalType": "uint256",
					"name": "",
					"type": "uint256"
				}
			],
			"stateMutability": "view",
			"type": "function"
		},
		{
			"inputs": [],
			"name": "totalDeposits",
			"outputs": [
				{
					"internalType": "uint256",
					"name": "",
					"type": "uint256"
				}
			],
			"stateMutability": "view",
			"type": "function"
		},
		{
			"inputs": [
				{
					"internalType": "address",
					"name": "",
					"type": "address"
				}
			],
			"name": "vault",
			"outputs": [
				{
					"internalType": "uint256",
					"name": "",
					"type": "uint256"
				}
			],
			"stateMutability": "view",
			"type": "function"
		},
		{
			"inputs": [],
			"name": "withdraw",
			"outputs": [],
			"stateMutability": "nonpayable",
			"type": "function"
		},
		{
			"inputs": [],
			"name": "withdrawalCount",
			"outputs": [
				{
					"internalType": "uint256",
					"name": "",
					"type": "uint256"
				}
			],
			"stateMutability": "view",
			"type": "function"
		}
	]
}